{
  "_format": "hh-sol-artifact-1",
  "contractName": "CrowdFunding",
  "sourceName": "contracts/CrowdFunding.sol",
  "abi": [
    {
      "inputs": [
        {
          "internalType": "uint256",
          "name": "initalSupply",
          "type": "uint256"
        },
        {
          "internalType": "string",
          "name": "TokenName",
          "type": "string"
        },
        {
          "internalType": "string",
          "name": "TokenSYM",
          "type": "string"
        },
        {
          "internalType": "uint256",
          "name": "cap",
          "type": "uint256"
        },
        {
          "internalType": "uint256",
          "name": "reawrd",
          "type": "uint256"
        },
        {
          "internalType": "address",
          "name": "_priceFeed",
          "type": "address"
        }
      ],
      "stateMutability": "nonpayable",
      "type": "constructor"
    },
    {
      "anonymous": false,
      "inputs": [
        {
          "indexed": true,
          "internalType": "address",
          "name": "owner",
          "type": "address"
        },
        {
          "indexed": true,
          "internalType": "address",
          "name": "spender",
          "type": "address"
        },
        {
          "indexed": false,
          "internalType": "uint256",
          "name": "value",
          "type": "uint256"
        }
      ],
      "name": "Approval",
      "type": "event"
    },
    {
      "anonymous": false,
      "inputs": [
        {
          "indexed": true,
          "internalType": "address",
          "name": "from",
          "type": "address"
        },
        {
          "indexed": true,
          "internalType": "address",
          "name": "to",
          "type": "address"
        },
        {
          "indexed": false,
          "internalType": "uint256",
          "name": "value",
          "type": "uint256"
        }
      ],
      "name": "Transfer",
      "type": "event"
    },
    {
      "inputs": [
        {
          "internalType": "string",
          "name": "",
          "type": "string"
        }
      ],
      "name": "ContractFund",
      "outputs": [
        {
          "internalType": "address",
          "name": "",
          "type": "address"
        }
      ],
      "stateMutability": "view",
      "type": "function"
    },
    {
      "inputs": [
        {
          "internalType": "uint256",
          "name": "",
          "type": "uint256"
        }
      ],
      "name": "NewFund",
      "outputs": [
        {
          "internalType": "contract FundContract",
          "name": "Name",
          "type": "address"
        },
        {
          "internalType": "address",
          "name": "ContractAddress",
          "type": "address"
        },
        {
          "internalType": "string",
          "name": "ContractName",
          "type": "string"
        }
      ],
      "stateMutability": "view",
      "type": "function"
    },
    {
      "inputs": [
        {
          "internalType": "string",
          "name": "ContractName",
          "type": "string"
        },
        {
          "internalType": "uint256",
          "name": "value",
          "type": "uint256"
        },
        {
          "internalType": "uint256",
          "name": "_Duration",
          "type": "uint256"
        }
      ],
      "name": "NewFundContract",
      "outputs": [],
      "stateMutability": "nonpayable",
      "type": "function"
    },
    {
      "inputs": [],
      "name": "TokenAddress",
      "outputs": [
        {
          "internalType": "address",
          "name": "",
          "type": "address"
        }
      ],
      "stateMutability": "view",
      "type": "function"
    },
    {
      "inputs": [
        {
          "internalType": "uint256",
          "name": "reward",
          "type": "uint256"
        }
      ],
      "name": "_blockReward",
      "outputs": [],
      "stateMutability": "nonpayable",
      "type": "function"
    },
    {
      "inputs": [],
      "name": "_cap",
      "outputs": [
        {
          "internalType": "uint256",
          "name": "",
          "type": "uint256"
        }
      ],
      "stateMutability": "view",
      "type": "function"
    },
    {
      "inputs": [],
      "name": "add",
      "outputs": [
        {
          "internalType": "address",
          "name": "",
          "type": "address"
        }
      ],
      "stateMutability": "view",
      "type": "function"
    },
    {
      "inputs": [
        {
          "internalType": "address",
          "name": "owner",
          "type": "address"
        },
        {
          "internalType": "address",
          "name": "spender",
          "type": "address"
        }
      ],
      "name": "allowance",
      "outputs": [
        {
          "internalType": "uint256",
          "name": "",
          "type": "uint256"
        }
      ],
      "stateMutability": "view",
      "type": "function"
    },
    {
      "inputs": [
        {
          "internalType": "address",
          "name": "spender",
          "type": "address"
        },
        {
          "internalType": "uint256",
          "name": "amount",
          "type": "uint256"
        }
      ],
      "name": "approve",
      "outputs": [
        {
          "internalType": "bool",
          "name": "",
          "type": "bool"
        }
      ],
      "stateMutability": "nonpayable",
      "type": "function"
    },
    {
      "inputs": [
        {
          "internalType": "address",
          "name": "account",
          "type": "address"
        }
      ],
      "name": "balanceOf",
      "outputs": [
        {
          "internalType": "uint256",
          "name": "",
          "type": "uint256"
        }
      ],
      "stateMutability": "view",
      "type": "function"
    },
    {
      "inputs": [],
      "name": "blockReward",
      "outputs": [
        {
          "internalType": "uint256",
          "name": "",
          "type": "uint256"
        }
      ],
      "stateMutability": "view",
      "type": "function"
    },
    {
      "inputs": [
        {
          "internalType": "uint256",
          "name": "amount",
          "type": "uint256"
        }
      ],
      "name": "burn",
      "outputs": [],
      "stateMutability": "nonpayable",
      "type": "function"
    },
    {
      "inputs": [
        {
          "internalType": "address",
          "name": "account",
          "type": "address"
        },
        {
          "internalType": "uint256",
          "name": "amount",
          "type": "uint256"
        }
      ],
      "name": "burnFrom",
      "outputs": [],
      "stateMutability": "nonpayable",
      "type": "function"
    },
    {
      "inputs": [],
      "name": "cap",
      "outputs": [
        {
          "internalType": "uint256",
          "name": "",
          "type": "uint256"
        }
      ],
      "stateMutability": "view",
      "type": "function"
    },
    {
      "inputs": [],
      "name": "count",
      "outputs": [
        {
          "internalType": "uint256",
          "name": "",
          "type": "uint256"
        }
      ],
      "stateMutability": "view",
      "type": "function"
    },
    {
      "inputs": [],
      "name": "decimals",
      "outputs": [
        {
          "internalType": "uint8",
          "name": "",
          "type": "uint8"
        }
      ],
      "stateMutability": "view",
      "type": "function"
    },
    {
      "inputs": [
        {
          "internalType": "address",
          "name": "spender",
          "type": "address"
        },
        {
          "internalType": "uint256",
          "name": "subtractedValue",
          "type": "uint256"
        }
      ],
      "name": "decreaseAllowance",
      "outputs": [
        {
          "internalType": "bool",
          "name": "",
          "type": "bool"
        }
      ],
      "stateMutability": "nonpayable",
      "type": "function"
    },
    {
      "inputs": [
        {
          "internalType": "uint256",
          "name": "",
          "type": "uint256"
        }
      ],
      "name": "fundMe",
      "outputs": [
        {
          "internalType": "string",
          "name": "fundingName",
          "type": "string"
        },
        {
          "internalType": "uint256",
          "name": "fundingGoalValue",
          "type": "uint256"
        },
        {
          "internalType": "address",
          "name": "fundingAddress",
          "type": "address"
        }
      ],
      "stateMutability": "view",
      "type": "function"
    },
    {
      "inputs": [],
      "name": "i_totalSupply",
      "outputs": [
        {
          "internalType": "uint256",
          "name": "",
          "type": "uint256"
        }
      ],
      "stateMutability": "view",
      "type": "function"
    },
    {
      "inputs": [
        {
          "internalType": "address",
          "name": "spender",
          "type": "address"
        },
        {
          "internalType": "uint256",
          "name": "addedValue",
          "type": "uint256"
        }
      ],
      "name": "increaseAllowance",
      "outputs": [
        {
          "internalType": "bool",
          "name": "",
          "type": "bool"
        }
      ],
      "stateMutability": "nonpayable",
      "type": "function"
    },
    {
      "inputs": [],
      "name": "name",
      "outputs": [
        {
          "internalType": "string",
          "name": "",
          "type": "string"
        }
      ],
      "stateMutability": "view",
      "type": "function"
    },
    {
      "inputs": [],
      "name": "priceFeed",
      "outputs": [
        {
          "internalType": "address",
          "name": "",
          "type": "address"
        }
      ],
      "stateMutability": "view",
      "type": "function"
    },
    {
      "inputs": [],
      "name": "s_TokenName",
      "outputs": [
        {
          "internalType": "string",
          "name": "",
          "type": "string"
        }
      ],
      "stateMutability": "view",
      "type": "function"
    },
    {
      "inputs": [],
      "name": "s_TokenSYM",
      "outputs": [
        {
          "internalType": "string",
          "name": "",
          "type": "string"
        }
      ],
      "stateMutability": "view",
      "type": "function"
    },
    {
      "inputs": [],
      "name": "symbol",
      "outputs": [
        {
          "internalType": "string",
          "name": "",
          "type": "string"
        }
      ],
      "stateMutability": "view",
      "type": "function"
    },
    {
      "inputs": [],
      "name": "totalSupply",
      "outputs": [
        {
          "internalType": "uint256",
          "name": "",
          "type": "uint256"
        }
      ],
      "stateMutability": "view",
      "type": "function"
    },
    {
      "inputs": [
        {
          "internalType": "address",
          "name": "to",
          "type": "address"
        },
        {
          "internalType": "uint256",
          "name": "amount",
          "type": "uint256"
        }
      ],
      "name": "transfer",
      "outputs": [
        {
          "internalType": "bool",
          "name": "",
          "type": "bool"
        }
      ],
      "stateMutability": "nonpayable",
      "type": "function"
    },
    {
      "inputs": [
        {
          "internalType": "address",
          "name": "from",
          "type": "address"
        },
        {
          "internalType": "address",
          "name": "to",
          "type": "address"
        },
        {
          "internalType": "uint256",
          "name": "amount",
          "type": "uint256"
        }
      ],
      "name": "transferFrom",
      "outputs": [
        {
          "internalType": "bool",
          "name": "",
          "type": "bool"
        }
      ],
      "stateMutability": "nonpayable",
      "type": "function"
    }
  ],
  "bytecode": "0x60c06040526000600b553480156200001657600080fd5b50604051620053a1380380620053a183398181016040528101906200003c919062000757565b858585858581848481600390805190602001906200005c929190620005fb565b50806004908051906020019062000075929190620005fb565b50505060008111620000be576040517f08c379a0000000000000000000000000000000000000000000000000000000008152600401620000b590620008b7565b60405180910390fd5b80600581905550503373ffffffffffffffffffffffffffffffffffffffff1660808173ffffffffffffffffffffffffffffffffffffffff1660601b81525050836006908051906020019062000115929190620005fb565b5082600790805190602001906200012e929190620005fb565b5081600881905550806009819055508460a081815250506200015733866200025f60201b60201c565b30600a60006101000a81548173ffffffffffffffffffffffffffffffffffffffff021916908373ffffffffffffffffffffffffffffffffffffffff1602179055505050505050620001af30876200025f60201b60201c565b600a60009054906101000a900473ffffffffffffffffffffffffffffffffffffffff16600d60006101000a81548173ffffffffffffffffffffffffffffffffffffffff021916908373ffffffffffffffffffffffffffffffffffffffff16021790555080600e60006101000a81548173ffffffffffffffffffffffffffffffffffffffff021916908373ffffffffffffffffffffffffffffffffffffffff16021790555050505050505062000c48565b6200026f620002f060201b60201c565b8162000285620002fa60201b620007441760201c565b620002919190620009aa565b1115620002d5576040517f08c379a0000000000000000000000000000000000000000000000000000000008152600401620002cc90620008d9565b60405180910390fd5b620002ec82826200030460201b620014fd1760201c565b5050565b6000600554905090565b6000600254905090565b62000314620002f060201b60201c565b816200032a620002fa60201b620007441760201c565b620003369190620009aa565b11156200037a576040517f08c379a00000000000000000000000000000000000000000000000000000000081526004016200037190620008d9565b60405180910390fd5b6200039182826200039560201b620015721760201c565b5050565b600073ffffffffffffffffffffffffffffffffffffffff168273ffffffffffffffffffffffffffffffffffffffff16141562000408576040517f08c379a0000000000000000000000000000000000000000000000000000000008152600401620003ff90620008fb565b60405180910390fd5b6200041c600083836200050360201b60201c565b8060026000828254620004309190620009aa565b92505081905550806000808473ffffffffffffffffffffffffffffffffffffffff1673ffffffffffffffffffffffffffffffffffffffff168152602001908152602001600020600082825401925050819055508173ffffffffffffffffffffffffffffffffffffffff16600073ffffffffffffffffffffffffffffffffffffffff167fddf252ad1be2c89b69c2b068fc378daa952ba7f163c4a11628f55a4df523b3ef83604051620004e391906200091d565b60405180910390a3620004ff60008383620005db60201b60201c565b5050565b600073ffffffffffffffffffffffffffffffffffffffff168373ffffffffffffffffffffffffffffffffffffffff16141580156200056d57504173ffffffffffffffffffffffffffffffffffffffff168273ffffffffffffffffffffffffffffffffffffffff1614155b8015620005a75750600073ffffffffffffffffffffffffffffffffffffffff168273ffffffffffffffffffffffffffffffffffffffff1614155b15620005be57620005bd620005e060201b60201c565b5b620005d6838383620005f660201b620016d41760201c565b505050565b505050565b620005f4416009546200025f60201b60201c565b565b505050565b828054620006099062000a7b565b90600052602060002090601f0160209004810192826200062d576000855562000679565b82601f106200064857805160ff191683800117855562000679565b8280016001018555821562000679579182015b82811115620006785782518255916020019190600101906200065b565b5b5090506200068891906200068c565b5090565b5b80821115620006a75760008160009055506001016200068d565b5090565b6000620006c2620006bc8462000963565b6200093a565b905082815260208101848484011115620006e157620006e062000b79565b5b620006ee84828562000a45565b509392505050565b600081519050620007078162000c14565b92915050565b600082601f83011262000725576200072462000b74565b5b815162000737848260208601620006ab565b91505092915050565b600081519050620007518162000c2e565b92915050565b60008060008060008060c0878903121562000777576200077662000b83565b5b60006200078789828a0162000740565b965050602087015167ffffffffffffffff811115620007ab57620007aa62000b7e565b5b620007b989828a016200070d565b955050604087015167ffffffffffffffff811115620007dd57620007dc62000b7e565b5b620007eb89828a016200070d565b9450506060620007fe89828a0162000740565b93505060806200081189828a0162000740565b92505060a06200082489828a01620006f6565b9150509295509295509295565b60006200084060158362000999565b91506200084d8262000b99565b602082019050919050565b60006200086760198362000999565b9150620008748262000bc2565b602082019050919050565b60006200088e601f8362000999565b91506200089b8262000beb565b602082019050919050565b620008b18162000a3b565b82525050565b60006020820190508181036000830152620008d28162000831565b9050919050565b60006020820190508181036000830152620008f48162000858565b9050919050565b6000602082019050818103600083015262000916816200087f565b9050919050565b6000602082019050620009346000830184620008a6565b92915050565b60006200094662000959565b905062000954828262000ab1565b919050565b6000604051905090565b600067ffffffffffffffff82111562000981576200098062000b45565b5b6200098c8262000b88565b9050602081019050919050565b600082825260208201905092915050565b6000620009b78262000a3b565b9150620009c48362000a3b565b9250827fffffffffffffffffffffffffffffffffffffffffffffffffffffffffffffffff03821115620009fc57620009fb62000ae7565b5b828201905092915050565b600062000a148262000a1b565b9050919050565b600073ffffffffffffffffffffffffffffffffffffffff82169050919050565b6000819050919050565b60005b8381101562000a6557808201518184015260208101905062000a48565b8381111562000a75576000848401525b50505050565b6000600282049050600182168062000a9457607f821691505b6020821081141562000aab5762000aaa62000b16565b5b50919050565b62000abc8262000b88565b810181811067ffffffffffffffff8211171562000ade5762000add62000b45565b5b80604052505050565b7f4e487b7100000000000000000000000000000000000000000000000000000000600052601160045260246000fd5b7f4e487b7100000000000000000000000000000000000000000000000000000000600052602260045260246000fd5b7f4e487b7100000000000000000000000000000000000000000000000000000000600052604160045260246000fd5b600080fd5b600080fd5b600080fd5b600080fd5b6000601f19601f8301169050919050565b7f45524332304361707065643a2063617020697320300000000000000000000000600082015250565b7f45524332304361707065643a2063617020657863656564656400000000000000600082015250565b7f45524332303a206d696e7420746f20746865207a65726f206164647265737300600082015250565b62000c1f8162000a07565b811462000c2b57600080fd5b50565b62000c398162000a3b565b811462000c4557600080fd5b50565b60805160601c60a05161470662000c9b6000396000610a400152600081816107d701528181610e3001528181610f5201528181610fee015281816110a10152818161116101526112fd01526147066000f3fe60806040523480156200001157600080fd5b5060043610620001f05760003560e01c806370a082311162000111578063a9059cbb11620000a5578063c2cba306116200007b578063c2cba30614620005d9578063c2f2f16614620005fb578063dd62ed3e146200061b578063e5fb7eeb146200065157620001f0565b8063a9059cbb1462000533578063aa9b811a1462000569578063be1e4b1a14620005a157620001f0565b806379cc679011620000e757806379cc6790146200048557806390e000ee14620004a557806395d89b4114620004db578063a457c2d714620004fd57620001f0565b806370a08231146200040b578063741bef1a146200044157806378d8049a146200046357620001f0565b8063313ce567116200018957806342966c68116200015f57806342966c6814620003855780634f2be91f14620003a557806352fb636a14620003c75780636adce71314620003e957620001f0565b8063313ce567146200030b578063355274ea146200032d57806339509351146200034f57620001f0565b8063095ea7b311620001cb578063095ea7b3146200025b5780630ac168a1146200029157806318160ddd14620002b357806323b872dd14620002d557620001f0565b8063060cf4e814620001f557806306661abd146200021757806306fdde031462000239575b600080fd5b620001ff62000671565b6040516200020e91906200282b565b60405180910390f35b6200022162000677565b6040516200023091906200282b565b60405180910390f35b620002436200067d565b604051620002529190620025c7565b60405180910390f35b62000279600480360381019062000273919062002139565b62000717565b60405162000288919062002566565b60405180910390f35b6200029b6200073e565b604051620002aa91906200282b565b60405180910390f35b620002bd62000744565b604051620002cc91906200282b565b60405180910390f35b620002f36004803603810190620002ed9190620020dd565b6200074e565b60405162000302919062002566565b60405180910390f35b6200031562000783565b60405162000324919062002848565b60405180910390f35b620003376200078c565b6040516200034691906200282b565b60405180910390f35b6200036d600480360381019062000367919062002139565b62000796565b6040516200037c919062002566565b60405180910390f35b620003a360048036038101906200039d91906200224c565b620007d5565b005b620003af6200087e565b604051620003be919062002549565b60405180910390f35b620003d1620008a4565b604051620003e09190620025c7565b60405180910390f35b620003f36200093a565b604051620004029190620025c7565b60405180910390f35b62000429600480360381019062000423919062002064565b620009d0565b6040516200043891906200282b565b60405180910390f35b6200044b62000a18565b6040516200045a919062002549565b60405180910390f35b6200046d62000a3e565b6040516200047c91906200282b565b60405180910390f35b620004a360048036038101906200049d919062002139565b62000a62565b005b620004c36004803603810190620004bd919062002180565b62000a88565b604051620004d2919062002549565b60405180910390f35b620004e562000ad1565b604051620004f49190620025c7565b60405180910390f35b6200051b600480360381019062000515919062002139565b62000b6b565b6040516200052a919062002566565b60405180910390f35b6200055160048036038101906200054b919062002139565b62000beb565b60405162000560919062002566565b60405180910390f35b6200058760048036038101906200058191906200224c565b62000c12565b60405162000598939291906200264f565b60405180910390f35b620005bf6004803603810190620005b991906200224c565b62000cfd565b604051620005d09392919062002583565b60405180910390f35b620005e362000e08565b604051620005f2919062002549565b60405180910390f35b6200061960048036038101906200061391906200224c565b62000e2e565b005b62000639600480360381019062000633919062002096565b62000ec9565b6040516200064891906200282b565b60405180910390f35b6200066f6004803603810190620006699190620021d1565b62000f50565b005b60085481565b600b5481565b6060600380546200068e9062002a34565b80601f0160208091040260200160405190810160405280929190818152602001828054620006bc9062002a34565b80156200070d5780601f10620006e1576101008083540402835291602001916200070d565b820191906000526020600020905b815481529060010190602001808311620006ef57829003601f168201915b5050505050905090565b60008062000724620016d9565b905062000733818585620016e1565b600191505092915050565b60095481565b6000600254905090565b6000806200075b620016d9565b90506200076a858285620018b4565b6200077785858562001948565b60019150509392505050565b60006012905090565b6000600554905090565b600080620007a3620016d9565b9050620007ca818585620007b8858962000ec9565b620007c49190620028eb565b620016e1565b600191505092915050565b7f000000000000000000000000000000000000000000000000000000000000000073ffffffffffffffffffffffffffffffffffffffff163373ffffffffffffffffffffffffffffffffffffffff161462000866576040517f08c379a00000000000000000000000000000000000000000000000000000000081526004016200085d906200273d565b60405180910390fd5b6200087b62000874620016d9565b8262001bcf565b50565b600c60009054906101000a900473ffffffffffffffffffffffffffffffffffffffff1681565b60078054620008b39062002a34565b80601f0160208091040260200160405190810160405280929190818152602001828054620008e19062002a34565b8015620009325780601f10620009065761010080835404028352916020019162000932565b820191906000526020600020905b8154815290600101906020018083116200091457829003601f168201915b505050505081565b60068054620009499062002a34565b80601f0160208091040260200160405190810160405280929190818152602001828054620009779062002a34565b8015620009c85780601f106200099c57610100808354040283529160200191620009c8565b820191906000526020600020905b815481529060010190602001808311620009aa57829003601f168201915b505050505081565b60008060008373ffffffffffffffffffffffffffffffffffffffff1673ffffffffffffffffffffffffffffffffffffffff168152602001908152602001600020549050919050565b600e60009054906101000a900473ffffffffffffffffffffffffffffffffffffffff1681565b7f000000000000000000000000000000000000000000000000000000000000000081565b62000a788262000a71620016d9565b83620018b4565b62000a84828262001bcf565b5050565b6011818051602081018201805184825260208301602085012081835280955050505050506000915054906101000a900473ffffffffffffffffffffffffffffffffffffffff1681565b60606004805462000ae29062002a34565b80601f016020809104026020016040519081016040528092919081815260200182805462000b109062002a34565b801562000b615780601f1062000b355761010080835404028352916020019162000b61565b820191906000526020600020905b81548152906001019060200180831162000b4357829003601f168201915b5050505050905090565b60008062000b78620016d9565b9050600062000b88828662000ec9565b90508381101562000bd0576040517f08c379a000000000000000000000000000000000000000000000000000000000815260040162000bc790620027e7565b60405180910390fd5b62000bdf8286868403620016e1565b60019250505092915050565b60008062000bf8620016d9565b905062000c0781858562001948565b600191505092915050565b600f818154811062000c2357600080fd5b906000526020600020906003020160009150905080600001805462000c489062002a34565b80601f016020809104026020016040519081016040528092919081815260200182805462000c769062002a34565b801562000cc75780601f1062000c9b5761010080835404028352916020019162000cc7565b820191906000526020600020905b81548152906001019060200180831162000ca957829003601f168201915b5050505050908060010154908060020160009054906101000a900473ffffffffffffffffffffffffffffffffffffffff16905083565b6010818154811062000d0e57600080fd5b90600052602060002090600302016000915090508060000160009054906101000a900473ffffffffffffffffffffffffffffffffffffffff16908060010160009054906101000a900473ffffffffffffffffffffffffffffffffffffffff169080600201805462000d7f9062002a34565b80601f016020809104026020016040519081016040528092919081815260200182805462000dad9062002a34565b801562000dfe5780601f1062000dd25761010080835404028352916020019162000dfe565b820191906000526020600020905b81548152906001019060200180831162000de057829003601f168201915b5050505050905083565b600a60009054906101000a900473ffffffffffffffffffffffffffffffffffffffff1681565b7f000000000000000000000000000000000000000000000000000000000000000073ffffffffffffffffffffffffffffffffffffffff163373ffffffffffffffffffffffffffffffffffffffff161462000ebf576040517f08c379a000000000000000000000000000000000000000000000000000000000815260040162000eb6906200273d565b60405180910390fd5b8060098190555050565b6000600160008473ffffffffffffffffffffffffffffffffffffffff1673ffffffffffffffffffffffffffffffffffffffff16815260200190815260200160002060008373ffffffffffffffffffffffffffffffffffffffff1673ffffffffffffffffffffffffffffffffffffffff16815260200190815260200160002054905092915050565b7f000000000000000000000000000000000000000000000000000000000000000073ffffffffffffffffffffffffffffffffffffffff163373ffffffffffffffffffffffffffffffffffffffff161462000fe1576040517f08c379a000000000000000000000000000000000000000000000000000000000815260040162000fd8906200273d565b60405180910390fd5b60008390506000829050847f0000000000000000000000000000000000000000000000000000000000000000600a60009054906101000a900473ffffffffffffffffffffffffffffffffffffffff1683600e60009054906101000a900473ffffffffffffffffffffffffffffffffffffffff16604051620010629062001efa565b62001072959493929190620025eb565b604051809103906000f0801580156200108f573d6000803e3d6000fd5b505060106040518060600160405280877f0000000000000000000000000000000000000000000000000000000000000000600a60009054906101000a900473ffffffffffffffffffffffffffffffffffffffff1686600e60009054906101000a900473ffffffffffffffffffffffffffffffffffffffff16604051620011159062001efa565b62001125959493929190620025eb565b604051809103906000f08015801562001142573d6000803e3d6000fd5b5073ffffffffffffffffffffffffffffffffffffffff168152602001877f0000000000000000000000000000000000000000000000000000000000000000600a60009054906101000a900473ffffffffffffffffffffffffffffffffffffffff1686600e60009054906101000a900473ffffffffffffffffffffffffffffffffffffffff16604051620011d59062001efa565b620011e5959493929190620025eb565b604051809103906000f08015801562001202573d6000803e3d6000fd5b5073ffffffffffffffffffffffffffffffffffffffff16815260200187815250908060018154018082558091505060019003906000526020600020906003020160009091909190915060008201518160000160006101000a81548173ffffffffffffffffffffffffffffffffffffffff021916908373ffffffffffffffffffffffffffffffffffffffff16021790555060208201518160010160006101000a81548173ffffffffffffffffffffffffffffffffffffffff021916908373ffffffffffffffffffffffffffffffffffffffff1602179055506040820151816002019080519060200190620012f792919062001f08565b505050847f0000000000000000000000000000000000000000000000000000000000000000600a60009054906101000a900473ffffffffffffffffffffffffffffffffffffffff1683600e60009054906101000a900473ffffffffffffffffffffffffffffffffffffffff16604051620013719062001efa565b62001381959493929190620025eb565b604051809103906000f0801580156200139e573d6000803e3d6000fd5b50601183604051620013b1919062002530565b908152602001604051809103902060006101000a81548173ffffffffffffffffffffffffffffffffffffffff021916908373ffffffffffffffffffffffffffffffffffffffff1602179055506010600b548154811062001416576200141562002afe565b5b906000526020600020906003020160000160009054906101000a900473ffffffffffffffffffffffffffffffffffffffff16600c60006101000a81548173ffffffffffffffffffffffffffffffffffffffff021916908373ffffffffffffffffffffffffffffffffffffffff160217905550620014de6010600b5481548110620014a557620014a462002afe565b5b906000526020600020906003020160000160009054906101000a900473ffffffffffffffffffffffffffffffffffffffff168562000beb565b506001600b54620014f09190620028eb565b600b819055505050505050565b620015076200078c565b816200151262000744565b6200151e9190620028eb565b111562001562576040517f08c379a00000000000000000000000000000000000000000000000000000000081526004016200155990620027a3565b60405180910390fd5b6200156e828262001572565b5050565b600073ffffffffffffffffffffffffffffffffffffffff168273ffffffffffffffffffffffffffffffffffffffff161415620015e5576040517f08c379a0000000000000000000000000000000000000000000000000000000008152600401620015dc9062002809565b60405180910390fd5b620015f36000838362001da9565b8060026000828254620016079190620028eb565b92505081905550806000808473ffffffffffffffffffffffffffffffffffffffff1673ffffffffffffffffffffffffffffffffffffffff168152602001908152602001600020600082825401925050819055508173ffffffffffffffffffffffffffffffffffffffff16600073ffffffffffffffffffffffffffffffffffffffff167fddf252ad1be2c89b69c2b068fc378daa952ba7f163c4a11628f55a4df523b3ef83604051620016ba91906200282b565b60405180910390a3620016d06000838362001e70565b5050565b505050565b600033905090565b600073ffffffffffffffffffffffffffffffffffffffff168373ffffffffffffffffffffffffffffffffffffffff16141562001754576040517f08c379a00000000000000000000000000000000000000000000000000000000081526004016200174b90620027c5565b60405180910390fd5b600073ffffffffffffffffffffffffffffffffffffffff168273ffffffffffffffffffffffffffffffffffffffff161415620017c7576040517f08c379a0000000000000000000000000000000000000000000000000000000008152600401620017be90620026d7565b60405180910390fd5b80600160008573ffffffffffffffffffffffffffffffffffffffff1673ffffffffffffffffffffffffffffffffffffffff16815260200190815260200160002060008473ffffffffffffffffffffffffffffffffffffffff1673ffffffffffffffffffffffffffffffffffffffff168152602001908152602001600020819055508173ffffffffffffffffffffffffffffffffffffffff168373ffffffffffffffffffffffffffffffffffffffff167f8c5be1e5ebec7d5bd14f71427d1e84f3dd0314c0f7b2291e5b200ac8c7c3b92583604051620018a791906200282b565b60405180910390a3505050565b6000620018c2848462000ec9565b90507fffffffffffffffffffffffffffffffffffffffffffffffffffffffffffffffff811462001942578181101562001932576040517f08c379a00000000000000000000000000000000000000000000000000000000081526004016200192990620026f9565b60405180910390fd5b620019418484848403620016e1565b5b50505050565b600073ffffffffffffffffffffffffffffffffffffffff168373ffffffffffffffffffffffffffffffffffffffff161415620019bb576040517f08c379a0000000000000000000000000000000000000000000000000000000008152600401620019b29062002781565b60405180910390fd5b600073ffffffffffffffffffffffffffffffffffffffff168273ffffffffffffffffffffffffffffffffffffffff16141562001a2e576040517f08c379a000000000000000000000000000000000000000000000000000000000815260040162001a259062002693565b60405180910390fd5b62001a3b83838362001da9565b60008060008573ffffffffffffffffffffffffffffffffffffffff1673ffffffffffffffffffffffffffffffffffffffff1681526020019081526020016000205490508181101562001ac4576040517f08c379a000000000000000000000000000000000000000000000000000000000815260040162001abb906200271b565b60405180910390fd5b8181036000808673ffffffffffffffffffffffffffffffffffffffff1673ffffffffffffffffffffffffffffffffffffffff16815260200190815260200160002081905550816000808573ffffffffffffffffffffffffffffffffffffffff1673ffffffffffffffffffffffffffffffffffffffff168152602001908152602001600020600082825401925050819055508273ffffffffffffffffffffffffffffffffffffffff168473ffffffffffffffffffffffffffffffffffffffff167fddf252ad1be2c89b69c2b068fc378daa952ba7f163c4a11628f55a4df523b3ef8460405162001bb491906200282b565b60405180910390a362001bc984848462001e70565b50505050565b600073ffffffffffffffffffffffffffffffffffffffff168273ffffffffffffffffffffffffffffffffffffffff16141562001c42576040517f08c379a000000000000000000000000000000000000000000000000000000000815260040162001c39906200275f565b60405180910390fd5b62001c508260008362001da9565b60008060008473ffffffffffffffffffffffffffffffffffffffff1673ffffffffffffffffffffffffffffffffffffffff1681526020019081526020016000205490508181101562001cd9576040517f08c379a000000000000000000000000000000000000000000000000000000000815260040162001cd090620026b5565b60405180910390fd5b8181036000808573ffffffffffffffffffffffffffffffffffffffff1673ffffffffffffffffffffffffffffffffffffffff1681526020019081526020016000208190555081600260008282540392505081905550600073ffffffffffffffffffffffffffffffffffffffff168373ffffffffffffffffffffffffffffffffffffffff167fddf252ad1be2c89b69c2b068fc378daa952ba7f163c4a11628f55a4df523b3ef8460405162001d8e91906200282b565b60405180910390a362001da48360008462001e70565b505050565b600073ffffffffffffffffffffffffffffffffffffffff168373ffffffffffffffffffffffffffffffffffffffff161415801562001e1357504173ffffffffffffffffffffffffffffffffffffffff168273ffffffffffffffffffffffffffffffffffffffff1614155b801562001e4d5750600073ffffffffffffffffffffffffffffffffffffffff168273ffffffffffffffffffffffffffffffffffffffff1614155b1562001e5e5762001e5d62001e75565b5b62001e6b838383620016d4565b505050565b505050565b62001e834160095462001e85565b565b62001e8f6200078c565b8162001e9a62000744565b62001ea69190620028eb565b111562001eea576040517f08c379a000000000000000000000000000000000000000000000000000000000815260040162001ee190620027a3565b60405180910390fd5b62001ef68282620014fd565b5050565b6117d98062002ef883390190565b82805462001f169062002a34565b90600052602060002090601f01602090048101928262001f3a576000855562001f86565b82601f1062001f5557805160ff191683800117855562001f86565b8280016001018555821562001f86579182015b8281111562001f8557825182559160200191906001019062001f68565b5b50905062001f95919062001f99565b5090565b5b8082111562001fb457600081600090555060010162001f9a565b5090565b600062001fcf62001fc9846200288e565b62002865565b90508281526020810184848401111562001fee5762001fed62002b61565b5b62001ffb848285620029ef565b509392505050565b600081359050620020148162002ec3565b92915050565b600082601f83011262002032576200203162002b5c565b5b81356200204484826020860162001fb8565b91505092915050565b6000813590506200205e8162002edd565b92915050565b6000602082840312156200207d576200207c62002b6b565b5b60006200208d8482850162002003565b91505092915050565b60008060408385031215620020b057620020af62002b6b565b5b6000620020c08582860162002003565b9250506020620020d38582860162002003565b9150509250929050565b600080600060608486031215620020f957620020f862002b6b565b5b6000620021098682870162002003565b93505060206200211c8682870162002003565b92505060406200212f868287016200204d565b9150509250925092565b6000806040838503121562002153576200215262002b6b565b5b6000620021638582860162002003565b925050602062002176858286016200204d565b9150509250929050565b60006020828403121562002199576200219862002b6b565b5b600082013567ffffffffffffffff811115620021ba57620021b962002b66565b5b620021c8848285016200201a565b91505092915050565b600080600060608486031215620021ed57620021ec62002b6b565b5b600084013567ffffffffffffffff8111156200220e576200220d62002b66565b5b6200221c868287016200201a565b93505060206200222f868287016200204d565b925050604062002242868287016200204d565b9150509250925092565b60006020828403121562002265576200226462002b6b565b5b600062002275848285016200204d565b91505092915050565b62002289816200299f565b82525050565b6200229a8162002948565b82525050565b620022ab816200295c565b82525050565b620022bc81620029b3565b82525050565b6000620022cf82620028c4565b620022db8185620028cf565b9350620022ed818560208601620029fe565b620022f88162002b70565b840191505092915050565b60006200231082620028c4565b6200231c8185620028e0565b93506200232e818560208601620029fe565b80840191505092915050565b600062002349602383620028cf565b9150620023568262002b81565b604082019050919050565b600062002370602283620028cf565b91506200237d8262002bd0565b604082019050919050565b600062002397602283620028cf565b9150620023a48262002c1f565b604082019050919050565b6000620023be601d83620028cf565b9150620023cb8262002c6e565b602082019050919050565b6000620023e5602683620028cf565b9150620023f28262002c97565b604082019050919050565b60006200240c602283620028cf565b9150620024198262002ce6565b604082019050919050565b600062002433602183620028cf565b9150620024408262002d35565b604082019050919050565b60006200245a602583620028cf565b9150620024678262002d84565b604082019050919050565b600062002481601983620028cf565b91506200248e8262002dd3565b602082019050919050565b6000620024a8602483620028cf565b9150620024b58262002dfc565b604082019050919050565b6000620024cf602583620028cf565b9150620024dc8262002e4b565b604082019050919050565b6000620024f6601f83620028cf565b9150620025038262002e9a565b602082019050919050565b620025198162002988565b82525050565b6200252a8162002992565b82525050565b60006200253e828462002303565b915081905092915050565b60006020820190506200256060008301846200228f565b92915050565b60006020820190506200257d6000830184620022a0565b92915050565b60006060820190506200259a6000830186620022b1565b620025a960208301856200228f565b8181036040830152620025bd8184620022c2565b9050949350505050565b60006020820190508181036000830152620025e38184620022c2565b905092915050565b600060a0820190508181036000830152620026078188620022c2565b90506200261860208301876200227e565b6200262760408301866200228f565b6200263660608301856200250e565b6200264560808301846200228f565b9695505050505050565b600060608201905081810360008301526200266b8186620022c2565b90506200267c60208301856200250e565b6200268b60408301846200228f565b949350505050565b60006020820190508181036000830152620026ae816200233a565b9050919050565b60006020820190508181036000830152620026d08162002361565b9050919050565b60006020820190508181036000830152620026f28162002388565b9050919050565b600060208201905081810360008301526200271481620023af565b9050919050565b600060208201905081810360008301526200273681620023d6565b9050919050565b600060208201905081810360008301526200275881620023fd565b9050919050565b600060208201905081810360008301526200277a8162002424565b9050919050565b600060208201905081810360008301526200279c816200244b565b9050919050565b60006020820190508181036000830152620027be8162002472565b9050919050565b60006020820190508181036000830152620027e08162002499565b9050919050565b600060208201905081810360008301526200280281620024c0565b9050919050565b600060208201905081810360008301526200282481620024e7565b9050919050565b60006020820190506200284260008301846200250e565b92915050565b60006020820190506200285f60008301846200251f565b92915050565b60006200287162002884565b90506200287f828262002a6a565b919050565b6000604051905090565b600067ffffffffffffffff821115620028ac57620028ab62002b2d565b5b620028b78262002b70565b9050602081019050919050565b600081519050919050565b600082825260208201905092915050565b600081905092915050565b6000620028f88262002988565b9150620029058362002988565b9250827fffffffffffffffffffffffffffffffffffffffffffffffffffffffffffffffff038211156200293d576200293c62002aa0565b5b828201905092915050565b6000620029558262002968565b9050919050565b60008115159050919050565b600073ffffffffffffffffffffffffffffffffffffffff82169050919050565b6000819050919050565b600060ff82169050919050565b6000620029ac82620029c7565b9050919050565b6000620029c082620029c7565b9050919050565b6000620029d482620029db565b9050919050565b6000620029e88262002968565b9050919050565b82818337600083830152505050565b60005b8381101562002a1e57808201518184015260208101905062002a01565b8381111562002a2e576000848401525b50505050565b6000600282049050600182168062002a4d57607f821691505b6020821081141562002a645762002a6362002acf565b5b50919050565b62002a758262002b70565b810181811067ffffffffffffffff8211171562002a975762002a9662002b2d565b5b80604052505050565b7f4e487b7100000000000000000000000000000000000000000000000000000000600052601160045260246000fd5b7f4e487b7100000000000000000000000000000000000000000000000000000000600052602260045260246000fd5b7f4e487b7100000000000000000000000000000000000000000000000000000000600052603260045260246000fd5b7f4e487b7100000000000000000000000000000000000000000000000000000000600052604160045260246000fd5b600080fd5b600080fd5b600080fd5b600080fd5b6000601f19601f8301169050919050565b7f45524332303a207472616e7366657220746f20746865207a65726f206164647260008201527f6573730000000000000000000000000000000000000000000000000000000000602082015250565b7f45524332303a206275726e20616d6f756e7420657863656564732062616c616e60008201527f6365000000000000000000000000000000000000000000000000000000000000602082015250565b7f45524332303a20617070726f766520746f20746865207a65726f20616464726560008201527f7373000000000000000000000000000000000000000000000000000000000000602082015250565b7f45524332303a20696e73756666696369656e7420616c6c6f77616e6365000000600082015250565b7f45524332303a207472616e7366657220616d6f756e742065786365656473206260008201527f616c616e63650000000000000000000000000000000000000000000000000000602082015250565b7f596f7572206e6f7420746865204f776e6572206f662074686520636f6e74726160008201527f6374000000000000000000000000000000000000000000000000000000000000602082015250565b7f45524332303a206275726e2066726f6d20746865207a65726f2061646472657360008201527f7300000000000000000000000000000000000000000000000000000000000000602082015250565b7f45524332303a207472616e736665722066726f6d20746865207a65726f20616460008201527f6472657373000000000000000000000000000000000000000000000000000000602082015250565b7f45524332304361707065643a2063617020657863656564656400000000000000600082015250565b7f45524332303a20617070726f76652066726f6d20746865207a65726f2061646460008201527f7265737300000000000000000000000000000000000000000000000000000000602082015250565b7f45524332303a2064656372656173656420616c6c6f77616e63652062656c6f7760008201527f207a65726f000000000000000000000000000000000000000000000000000000602082015250565b7f45524332303a206d696e7420746f20746865207a65726f206164647265737300600082015250565b62002ece8162002948565b811462002eda57600080fd5b50565b62002ee88162002988565b811462002ef457600080fd5b5056fe60806040523480156200001157600080fd5b50604051620017d9380380620017d98339818101604052810190620000379190620002c9565b84600090805190602001906200004f9291906200016d565b5083600160006101000a81548173ffffffffffffffffffffffffffffffffffffffff021916908373ffffffffffffffffffffffffffffffffffffffff16021790555082600760006101000a81548173ffffffffffffffffffffffffffffffffffffffff021916908373ffffffffffffffffffffffffffffffffffffffff16021790555082600460006101000a81548173ffffffffffffffffffffffffffffffffffffffff021916908373ffffffffffffffffffffffffffffffffffffffff1602179055504260058190555080600860006101000a81548173ffffffffffffffffffffffffffffffffffffffff021916908373ffffffffffffffffffffffffffffffffffffffff16021790555081600681905550505050505062000566565b8280546200017b9062000443565b90600052602060002090601f0160209004810192826200019f5760008555620001eb565b82601f10620001ba57805160ff1916838001178555620001eb565b82800160010185558215620001eb579182015b82811115620001ea578251825591602001919060010190620001cd565b5b509050620001fa9190620001fe565b5090565b5b8082111562000219576000816000905550600101620001ff565b5090565b6000620002346200022e8462000399565b62000370565b90508281526020810184848401111562000253576200025262000512565b5b620002608482856200040d565b509392505050565b600081519050620002798162000532565b92915050565b600082601f8301126200029757620002966200050d565b5b8151620002a98482602086016200021d565b91505092915050565b600081519050620002c3816200054c565b92915050565b600080600080600060a08688031215620002e857620002e76200051c565b5b600086015167ffffffffffffffff81111562000309576200030862000517565b5b62000317888289016200027f565b95505060206200032a8882890162000268565b94505060406200033d8882890162000268565b93505060606200035088828901620002b2565b9250506080620003638882890162000268565b9150509295509295909350565b60006200037c6200038f565b90506200038a828262000479565b919050565b6000604051905090565b600067ffffffffffffffff821115620003b757620003b6620004de565b5b620003c28262000521565b9050602081019050919050565b6000620003dc82620003e3565b9050919050565b600073ffffffffffffffffffffffffffffffffffffffff82169050919050565b6000819050919050565b60005b838110156200042d57808201518184015260208101905062000410565b838111156200043d576000848401525b50505050565b600060028204905060018216806200045c57607f821691505b60208210811415620004735762000472620004af565b5b50919050565b620004848262000521565b810181811067ffffffffffffffff82111715620004a657620004a5620004de565b5b80604052505050565b7f4e487b7100000000000000000000000000000000000000000000000000000000600052602260045260246000fd5b7f4e487b7100000000000000000000000000000000000000000000000000000000600052604160045260246000fd5b600080fd5b600080fd5b600080fd5b600080fd5b6000601f19601f8301169050919050565b6200053d81620003cf565b81146200054957600080fd5b50565b620005578162000403565b81146200056357600080fd5b50565b61126380620005766000396000f3fe6080604052600436106101145760003560e01c80638e15f473116100a0578063e6fd48bc11610064578063e6fd48bc14610365578063ef2e274014610390578063f6b4dfb4146103cd578063fd79c2a9146103f8578063feaf968c1461042357610114565b80638e15f4731461026557806392ca60c1146102905780639a6fc8f5146102ce578063b4a99a4e1461030f578063d4c3eea01461033a57610114565b80632e1a7d4d116100e75780632e1a7d4d14610190578063313ce567146101b957806354fd4d50146101e45780637284e4161461020f5780638e0f914c1461023a57610114565b80630b2cb3bc146101195780630fb5a6b4146101445780631b9265b81461016f5780631dcea42714610179575b600080fd5b34801561012557600080fd5b5061012e610452565b60405161013b9190610cbb565b60405180910390f35b34801561015057600080fd5b50610159610478565b6040516101669190610d61565b60405180910390f35b61017761047e565b005b34801561018557600080fd5b5061018e61062a565b005b34801561019c57600080fd5b506101b760048036038101906101b29190610aef565b6106dd565b005b3480156101c557600080fd5b506101ce6107d9565b6040516101db9190610dcf565b60405180910390f35b3480156101f057600080fd5b506101f96107de565b6040516102069190610d61565b60405180910390f35b34801561021b57600080fd5b506102246107e3565b6040516102319190610cff565b60405180910390f35b34801561024657600080fd5b5061024f6107e8565b60405161025c9190610d61565b60405180910390f35b34801561027157600080fd5b5061027a6107ee565b6040516102879190610d61565b60405180910390f35b34801561029c57600080fd5b506102b760048036038101906102b29190610aef565b6108ae565b6040516102c5929190610cd6565b60405180910390f35b3480156102da57600080fd5b506102f560048036038101906102f09190610b49565b610902565b604051610306959493929190610d7c565b60405180910390f35b34801561031b57600080fd5b50610324610913565b6040516103319190610cbb565b60405180910390f35b34801561034657600080fd5b5061034f610939565b60405161035c9190610d61565b60405180910390f35b34801561037157600080fd5b5061037a610941565b6040516103879190610d61565b60405180910390f35b34801561039c57600080fd5b506103b760048036038101906103b29190610aef565b610947565b6040516103c49190610d61565b60405180910390f35b3480156103d957600080fd5b506103e2610981565b6040516103ef9190610cbb565b60405180910390f35b34801561040457600080fd5b5061040d6109a7565b60405161041a9190610cff565b60405180910390f35b34801561042f57600080fd5b50610438610a35565b604051610449959493929190610d7c565b60405180910390f35b600460009054906101000a900473ffffffffffffffffffffffffffffffffffffffff1681565b60065481565b6006546005544261048f9190610fa8565b106104cf576040517f08c379a00000000000000000000000000000000000000000000000000000000081526004016104c690610d21565b60405180910390fd5b600960405180604001604052803373ffffffffffffffffffffffffffffffffffffffff16815260200134815250908060018154018082558091505060019003906000526020600020906002020160009091909190915060008201518160000160006101000a81548173ffffffffffffffffffffffffffffffffffffffff021916908373ffffffffffffffffffffffffffffffffffffffff160217905550602082015181600101555050600760009054906101000a900473ffffffffffffffffffffffffffffffffffffffff1673ffffffffffffffffffffffffffffffffffffffff1663a9059cbb33346040518363ffffffff1660e01b81526004016105d5929190610cd6565b602060405180830381600087803b1580156105ef57600080fd5b505af1158015610603573d6000803e3d6000fd5b505050506040513d601f19601f820116820180604052508101906106279190610ac2565b50565b600760009054906101000a900473ffffffffffffffffffffffffffffffffffffffff1673ffffffffffffffffffffffffffffffffffffffff166370a08231306040518263ffffffff1660e01b81526004016106859190610cbb565b60206040518083038186803b15801561069d57600080fd5b505afa1580156106b1573d6000803e3d6000fd5b505050506040513d601f19601f820116820180604052508101906106d59190610b1c565b600381905550565b600160009054906101000a900473ffffffffffffffffffffffffffffffffffffffff1673ffffffffffffffffffffffffffffffffffffffff163373ffffffffffffffffffffffffffffffffffffffff161461076d576040517f08c379a000000000000000000000000000000000000000000000000000000000815260040161076490610d41565b60405180910390fd5b600160009054906101000a900473ffffffffffffffffffffffffffffffffffffffff1673ffffffffffffffffffffffffffffffffffffffff166108fc829081150290604051600060405180830381858888f193505050501580156107d5573d6000803e3d6000fd5b5050565b600090565b600090565b606090565b60035481565b600080600860009054906101000a900473ffffffffffffffffffffffffffffffffffffffff1673ffffffffffffffffffffffffffffffffffffffff1663feaf968c6040518163ffffffff1660e01b815260040160a06040518083038186803b15801561085957600080fd5b505afa15801561086d573d6000803e3d6000fd5b505050506040513d601f19601f820116820180604052508101906108919190610b76565b5050509150506402540be400816108a89190610e37565b91505090565b600981815481106108be57600080fd5b90600052602060002090600202016000915090508060000160009054906101000a900473ffffffffffffffffffffffffffffffffffffffff16908060010154905082565b600080600080600091939590929450565b600160009054906101000a900473ffffffffffffffffffffffffffffffffffffffff1681565b600047905090565b60055481565b6000806109526107ee565b90506000670de0b6b3a7640000848361096b9190610f4e565b6109759190610e06565b90508092505050919050565b600260009054906101000a900473ffffffffffffffffffffffffffffffffffffffff1681565b600080546109b490611084565b80601f01602080910402602001604051908101604052809291908181526020018280546109e090611084565b8015610a2d5780601f10610a0257610100808354040283529160200191610a2d565b820191906000526020600020905b815481529060010190602001808311610a1057829003601f168201915b505050505081565b60008060008060009091929394565b600081519050610a53816111d1565b92915050565b600081519050610a68816111e8565b92915050565b600081359050610a7d816111ff565b92915050565b600081519050610a92816111ff565b92915050565b600081359050610aa781611216565b92915050565b600081519050610abc81611216565b92915050565b600060208284031215610ad857610ad7611143565b5b6000610ae684828501610a44565b91505092915050565b600060208284031215610b0557610b04611143565b5b6000610b1384828501610a6e565b91505092915050565b600060208284031215610b3257610b31611143565b5b6000610b4084828501610a83565b91505092915050565b600060208284031215610b5f57610b5e611143565b5b6000610b6d84828501610a98565b91505092915050565b600080600080600060a08688031215610b9257610b91611143565b5b6000610ba088828901610aad565b9550506020610bb188828901610a59565b9450506040610bc288828901610a83565b9350506060610bd388828901610a83565b9250506080610be488828901610aad565b9150509295509295909350565b610bfa81610fdc565b82525050565b610c0981610ffa565b82525050565b6000610c1a82610dea565b610c248185610df5565b9350610c34818560208601611051565b610c3d81611148565b840191505092915050565b6000610c55601983610df5565b9150610c6082611159565b602082019050919050565b6000610c78602183610df5565b9150610c8382611182565b604082019050919050565b610c9781611024565b82525050565b610ca68161103b565b82525050565b610cb58161102e565b82525050565b6000602082019050610cd06000830184610bf1565b92915050565b6000604082019050610ceb6000830185610bf1565b610cf86020830184610c8e565b9392505050565b60006020820190508181036000830152610d198184610c0f565b905092915050565b60006020820190508181036000830152610d3a81610c48565b9050919050565b60006020820190508181036000830152610d5a81610c6b565b9050919050565b6000602082019050610d766000830184610c8e565b92915050565b600060a082019050610d916000830188610c9d565b610d9e6020830187610c00565b610dab6040830186610c8e565b610db86060830185610c8e565b610dc56080830184610c9d565b9695505050505050565b6000602082019050610de46000830184610cac565b92915050565b600081519050919050565b600082825260208201905092915050565b6000610e1182611024565b9150610e1c83611024565b925082610e2c57610e2b6110e5565b5b828204905092915050565b6000610e4282610ffa565b9150610e4d83610ffa565b9250827f7fffffffffffffffffffffffffffffffffffffffffffffffffffffffffffffff0482116000841360008413161615610e8c57610e8b6110b6565b5b817f80000000000000000000000000000000000000000000000000000000000000000583126000841260008413161615610ec957610ec86110b6565b5b827f80000000000000000000000000000000000000000000000000000000000000000582126000841360008412161615610f0657610f056110b6565b5b827f7fffffffffffffffffffffffffffffffffffffffffffffffffffffffffffffff0582126000841260008412161615610f4357610f426110b6565b5b828202905092915050565b6000610f5982611024565b9150610f6483611024565b9250817fffffffffffffffffffffffffffffffffffffffffffffffffffffffffffffffff0483118215151615610f9d57610f9c6110b6565b5b828202905092915050565b6000610fb382611024565b9150610fbe83611024565b925082821015610fd157610fd06110b6565b5b828203905092915050565b6000610fe782611004565b9050919050565b60008115159050919050565b6000819050919050565b600073ffffffffffffffffffffffffffffffffffffffff82169050919050565b6000819050919050565b600060ff82169050919050565b600069ffffffffffffffffffff82169050919050565b60005b8381101561106f578082015181840152602081019050611054565b8381111561107e576000848401525b50505050565b6000600282049050600182168061109c57607f821691505b602082108114156110b0576110af611114565b5b50919050565b7f4e487b7100000000000000000000000000000000000000000000000000000000600052601160045260246000fd5b7f4e487b7100000000000000000000000000000000000000000000000000000000600052601260045260246000fd5b7f4e487b7100000000000000000000000000000000000000000000000000000000600052602260045260246000fd5b600080fd5b6000601f19601f8301169050919050565b7f54696d65204f76657220666f72207468652066756e64696e6700000000000000600082015250565b7f596f7520446f6e277420686176652041636365737320746f205769746844726160008201527f7700000000000000000000000000000000000000000000000000000000000000602082015250565b6111da81610fee565b81146111e557600080fd5b50565b6111f181610ffa565b81146111fc57600080fd5b50565b61120881611024565b811461121357600080fd5b50565b61121f8161103b565b811461122a57600080fd5b5056fea26469706673582212206b55c58169e43065a03e03f03b1f78de06e1a0b0556b85e692c3b5984d55318764736f6c63430008070033a2646970667358221220a18a9e754abf5995ca5ddd47bf7eae22c60dde513f31b305f3c8815d26d48a4d64736f6c63430008070033",
  "linkReferences": {},
  "deployedLinkReferences": {}
}