{
  "_format": "hh-sol-artifact-1",
  "contractName": "ERC20Token",
  "sourceName": "contracts/ERC20Token.sol",
  "abi": [
    {
      "inputs": [
        {
          "internalType": "uint256",
          "name": "initalSupply",
          "type": "uint256"
        },
        {
          "internalType": "string",
          "name": "TokenName",
          "type": "string"
        },
        {
          "internalType": "string",
          "name": "TokenSYM",
          "type": "string"
        },
        {
          "internalType": "uint256",
          "name": "cap",
          "type": "uint256"
        },
        {
          "internalType": "uint256",
          "name": "reawrd",
          "type": "uint256"
        }
      ],
      "stateMutability": "nonpayable",
      "type": "constructor"
    },
    {
      "anonymous": false,
      "inputs": [
        {
          "indexed": true,
          "internalType": "address",
          "name": "owner",
          "type": "address"
        },
        {
          "indexed": true,
          "internalType": "address",
          "name": "spender",
          "type": "address"
        },
        {
          "indexed": false,
          "internalType": "uint256",
          "name": "value",
          "type": "uint256"
        }
      ],
      "name": "Approval",
      "type": "event"
    },
    {
      "anonymous": false,
      "inputs": [
        {
          "indexed": true,
          "internalType": "address",
          "name": "from",
          "type": "address"
        },
        {
          "indexed": true,
          "internalType": "address",
          "name": "to",
          "type": "address"
        },
        {
          "indexed": false,
          "internalType": "uint256",
          "name": "value",
          "type": "uint256"
        }
      ],
      "name": "Transfer",
      "type": "event"
    },
    {
      "inputs": [],
      "name": "TokenAddress",
      "outputs": [
        {
          "internalType": "address",
          "name": "",
          "type": "address"
        }
      ],
      "stateMutability": "view",
      "type": "function"
    },
    {
      "inputs": [
        {
          "internalType": "uint256",
          "name": "reward",
          "type": "uint256"
        }
      ],
      "name": "_blockReward",
      "outputs": [],
      "stateMutability": "nonpayable",
      "type": "function"
    },
    {
      "inputs": [],
      "name": "_cap",
      "outputs": [
        {
          "internalType": "uint256",
          "name": "",
          "type": "uint256"
        }
      ],
      "stateMutability": "view",
      "type": "function"
    },
    {
      "inputs": [
        {
          "internalType": "address",
          "name": "owner",
          "type": "address"
        },
        {
          "internalType": "address",
          "name": "spender",
          "type": "address"
        }
      ],
      "name": "allowance",
      "outputs": [
        {
          "internalType": "uint256",
          "name": "",
          "type": "uint256"
        }
      ],
      "stateMutability": "view",
      "type": "function"
    },
    {
      "inputs": [
        {
          "internalType": "address",
          "name": "spender",
          "type": "address"
        },
        {
          "internalType": "uint256",
          "name": "amount",
          "type": "uint256"
        }
      ],
      "name": "approve",
      "outputs": [
        {
          "internalType": "bool",
          "name": "",
          "type": "bool"
        }
      ],
      "stateMutability": "nonpayable",
      "type": "function"
    },
    {
      "inputs": [
        {
          "internalType": "address",
          "name": "account",
          "type": "address"
        }
      ],
      "name": "balanceOf",
      "outputs": [
        {
          "internalType": "uint256",
          "name": "",
          "type": "uint256"
        }
      ],
      "stateMutability": "view",
      "type": "function"
    },
    {
      "inputs": [],
      "name": "blockReward",
      "outputs": [
        {
          "internalType": "uint256",
          "name": "",
          "type": "uint256"
        }
      ],
      "stateMutability": "view",
      "type": "function"
    },
    {
      "inputs": [
        {
          "internalType": "uint256",
          "name": "amount",
          "type": "uint256"
        }
      ],
      "name": "burn",
      "outputs": [],
      "stateMutability": "nonpayable",
      "type": "function"
    },
    {
      "inputs": [
        {
          "internalType": "address",
          "name": "account",
          "type": "address"
        },
        {
          "internalType": "uint256",
          "name": "amount",
          "type": "uint256"
        }
      ],
      "name": "burnFrom",
      "outputs": [],
      "stateMutability": "nonpayable",
      "type": "function"
    },
    {
      "inputs": [],
      "name": "cap",
      "outputs": [
        {
          "internalType": "uint256",
          "name": "",
          "type": "uint256"
        }
      ],
      "stateMutability": "view",
      "type": "function"
    },
    {
      "inputs": [],
      "name": "decimals",
      "outputs": [
        {
          "internalType": "uint8",
          "name": "",
          "type": "uint8"
        }
      ],
      "stateMutability": "view",
      "type": "function"
    },
    {
      "inputs": [
        {
          "internalType": "address",
          "name": "spender",
          "type": "address"
        },
        {
          "internalType": "uint256",
          "name": "subtractedValue",
          "type": "uint256"
        }
      ],
      "name": "decreaseAllowance",
      "outputs": [
        {
          "internalType": "bool",
          "name": "",
          "type": "bool"
        }
      ],
      "stateMutability": "nonpayable",
      "type": "function"
    },
    {
      "inputs": [],
      "name": "i_totalSupply",
      "outputs": [
        {
          "internalType": "uint256",
          "name": "",
          "type": "uint256"
        }
      ],
      "stateMutability": "view",
      "type": "function"
    },
    {
      "inputs": [
        {
          "internalType": "address",
          "name": "spender",
          "type": "address"
        },
        {
          "internalType": "uint256",
          "name": "addedValue",
          "type": "uint256"
        }
      ],
      "name": "increaseAllowance",
      "outputs": [
        {
          "internalType": "bool",
          "name": "",
          "type": "bool"
        }
      ],
      "stateMutability": "nonpayable",
      "type": "function"
    },
    {
      "inputs": [],
      "name": "name",
      "outputs": [
        {
          "internalType": "string",
          "name": "",
          "type": "string"
        }
      ],
      "stateMutability": "view",
      "type": "function"
    },
    {
      "inputs": [],
      "name": "s_TokenName",
      "outputs": [
        {
          "internalType": "string",
          "name": "",
          "type": "string"
        }
      ],
      "stateMutability": "view",
      "type": "function"
    },
    {
      "inputs": [],
      "name": "s_TokenSYM",
      "outputs": [
        {
          "internalType": "string",
          "name": "",
          "type": "string"
        }
      ],
      "stateMutability": "view",
      "type": "function"
    },
    {
      "inputs": [],
      "name": "symbol",
      "outputs": [
        {
          "internalType": "string",
          "name": "",
          "type": "string"
        }
      ],
      "stateMutability": "view",
      "type": "function"
    },
    {
      "inputs": [],
      "name": "totalSupply",
      "outputs": [
        {
          "internalType": "uint256",
          "name": "",
          "type": "uint256"
        }
      ],
      "stateMutability": "view",
      "type": "function"
    },
    {
      "inputs": [
        {
          "internalType": "address",
          "name": "to",
          "type": "address"
        },
        {
          "internalType": "uint256",
          "name": "amount",
          "type": "uint256"
        }
      ],
      "name": "transfer",
      "outputs": [
        {
          "internalType": "bool",
          "name": "",
          "type": "bool"
        }
      ],
      "stateMutability": "nonpayable",
      "type": "function"
    },
    {
      "inputs": [
        {
          "internalType": "address",
          "name": "from",
          "type": "address"
        },
        {
          "internalType": "address",
          "name": "to",
          "type": "address"
        },
        {
          "internalType": "uint256",
          "name": "amount",
          "type": "uint256"
        }
      ],
      "name": "transferFrom",
      "outputs": [
        {
          "internalType": "bool",
          "name": "",
          "type": "bool"
        }
      ],
      "stateMutability": "nonpayable",
      "type": "function"
    }
  ],
  "bytecode": "0x60c06040523480156200001157600080fd5b50604051620029ce380380620029ce83398181016040528101906200003791906200067a565b81848481600390805190602001906200005292919062000535565b5080600490805190602001906200006b92919062000535565b50505060008111620000b4576040517f08c379a0000000000000000000000000000000000000000000000000000000008152600401620000ab90620007c6565b60405180910390fd5b80600581905550503373ffffffffffffffffffffffffffffffffffffffff1660808173ffffffffffffffffffffffffffffffffffffffff1660601b8152505083600690805190602001906200010b92919062000535565b5082600790805190602001906200012492919062000535565b5081600881905550806009819055508460a081815250506200014d33866200019960201b60201c565b30600a60006101000a81548173ffffffffffffffffffffffffffffffffffffffff021916908373ffffffffffffffffffffffffffffffffffffffff160217905550505050505062000b09565b620001a96200022a60201b60201c565b81620001bf6200023460201b620004eb1760201c565b620001cb9190620008b9565b11156200020f576040517f08c379a00000000000000000000000000000000000000000000000000000000081526004016200020690620007e8565b60405180910390fd5b6200022682826200023e60201b62000a291760201c565b5050565b6000600554905090565b6000600254905090565b6200024e6200022a60201b60201c565b81620002646200023460201b620004eb1760201c565b620002709190620008b9565b1115620002b4576040517f08c379a0000000000000000000000000000000000000000000000000000000008152600401620002ab90620007e8565b60405180910390fd5b620002cb8282620002cf60201b62000a931760201c565b5050565b600073ffffffffffffffffffffffffffffffffffffffff168273ffffffffffffffffffffffffffffffffffffffff16141562000342576040517f08c379a000000000000000000000000000000000000000000000000000000000815260040162000339906200080a565b60405180910390fd5b62000356600083836200043d60201b60201c565b80600260008282546200036a9190620008b9565b92505081905550806000808473ffffffffffffffffffffffffffffffffffffffff1673ffffffffffffffffffffffffffffffffffffffff168152602001908152602001600020600082825401925050819055508173ffffffffffffffffffffffffffffffffffffffff16600073ffffffffffffffffffffffffffffffffffffffff167fddf252ad1be2c89b69c2b068fc378daa952ba7f163c4a11628f55a4df523b3ef836040516200041d91906200082c565b60405180910390a362000439600083836200051560201b60201c565b5050565b600073ffffffffffffffffffffffffffffffffffffffff168373ffffffffffffffffffffffffffffffffffffffff1614158015620004a757504173ffffffffffffffffffffffffffffffffffffffff168273ffffffffffffffffffffffffffffffffffffffff1614155b8015620004e15750600073ffffffffffffffffffffffffffffffffffffffff168273ffffffffffffffffffffffffffffffffffffffff1614155b15620004f857620004f76200051a60201b60201c565b5b620005108383836200053060201b62000bea1760201c565b505050565b505050565b6200052e416009546200019960201b60201c565b565b505050565b828054620005439062000956565b90600052602060002090601f016020900481019282620005675760008555620005b3565b82601f106200058257805160ff1916838001178555620005b3565b82800160010185558215620005b3579182015b82811115620005b257825182559160200191906001019062000595565b5b509050620005c29190620005c6565b5090565b5b80821115620005e1576000816000905550600101620005c7565b5090565b6000620005fc620005f68462000872565b62000849565b9050828152602081018484840111156200061b576200061a62000a54565b5b6200062884828562000920565b509392505050565b600082601f83011262000648576200064762000a4f565b5b81516200065a848260208601620005e5565b91505092915050565b600081519050620006748162000aef565b92915050565b600080600080600060a0868803121562000699576200069862000a5e565b5b6000620006a98882890162000663565b955050602086015167ffffffffffffffff811115620006cd57620006cc62000a59565b5b620006db8882890162000630565b945050604086015167ffffffffffffffff811115620006ff57620006fe62000a59565b5b6200070d8882890162000630565b9350506060620007208882890162000663565b9250506080620007338882890162000663565b9150509295509295909350565b60006200074f601583620008a8565b91506200075c8262000a74565b602082019050919050565b600062000776601983620008a8565b9150620007838262000a9d565b602082019050919050565b60006200079d601f83620008a8565b9150620007aa8262000ac6565b602082019050919050565b620007c08162000916565b82525050565b60006020820190508181036000830152620007e18162000740565b9050919050565b60006020820190508181036000830152620008038162000767565b9050919050565b6000602082019050818103600083015262000825816200078e565b9050919050565b6000602082019050620008436000830184620007b5565b92915050565b60006200085562000868565b90506200086382826200098c565b919050565b6000604051905090565b600067ffffffffffffffff82111562000890576200088f62000a20565b5b6200089b8262000a63565b9050602081019050919050565b600082825260208201905092915050565b6000620008c68262000916565b9150620008d38362000916565b9250827fffffffffffffffffffffffffffffffffffffffffffffffffffffffffffffffff038211156200090b576200090a620009c2565b5b828201905092915050565b6000819050919050565b60005b838110156200094057808201518184015260208101905062000923565b8381111562000950576000848401525b50505050565b600060028204905060018216806200096f57607f821691505b60208210811415620009865762000985620009f1565b5b50919050565b620009978262000a63565b810181811067ffffffffffffffff82111715620009b957620009b862000a20565b5b80604052505050565b7f4e487b7100000000000000000000000000000000000000000000000000000000600052601160045260246000fd5b7f4e487b7100000000000000000000000000000000000000000000000000000000600052602260045260246000fd5b7f4e487b7100000000000000000000000000000000000000000000000000000000600052604160045260246000fd5b600080fd5b600080fd5b600080fd5b600080fd5b6000601f19601f8301169050919050565b7f45524332304361707065643a2063617020697320300000000000000000000000600082015250565b7f45524332304361707065643a2063617020657863656564656400000000000000600082015250565b7f45524332303a206d696e7420746f20746865207a65726f206164647265737300600082015250565b62000afa8162000916565b811462000b0657600080fd5b50565b60805160601c60a051611e9562000b396000396000610776015260008181610570015261090c0152611e956000f3fe608060405234801561001057600080fd5b50600436106101375760003560e01c806352fb636a116100b857806395d89b411161007c57806395d89b4114610342578063a457c2d714610360578063a9059cbb14610390578063c2cba306146103c0578063c2f2f166146103de578063dd62ed3e146103fa57610137565b806352fb636a1461029c5780636adce713146102ba57806370a08231146102d857806378d8049a1461030857806379cc67901461032657610137565b806323b872dd116100ff57806323b872dd146101e4578063313ce56714610214578063355274ea14610232578063395093511461025057806342966c681461028057610137565b8063060cf4e81461013c57806306fdde031461015a578063095ea7b3146101785780630ac168a1146101a857806318160ddd146101c6575b600080fd5b61014461042a565b6040516101519190611919565b60405180910390f35b610162610430565b60405161016f9190611777565b60405180910390f35b610192600480360381019061018d91906114bb565b6104c2565b60405161019f919061175c565b60405180910390f35b6101b06104e5565b6040516101bd9190611919565b60405180910390f35b6101ce6104eb565b6040516101db9190611919565b60405180910390f35b6101fe60048036038101906101f99190611468565b6104f5565b60405161020b919061175c565b60405180910390f35b61021c610524565b6040516102299190611934565b60405180910390f35b61023a61052d565b6040516102479190611919565b60405180910390f35b61026a600480360381019061026591906114bb565b610537565b604051610277919061175c565b60405180910390f35b61029a600480360381019061029591906114fb565b61056e565b005b6102a4610610565b6040516102b19190611777565b60405180910390f35b6102c261069e565b6040516102cf9190611777565b60405180910390f35b6102f260048036038101906102ed91906113fb565b61072c565b6040516102ff9190611919565b60405180910390f35b610310610774565b60405161031d9190611919565b60405180910390f35b610340600480360381019061033b91906114bb565b610798565b005b61034a6107b8565b6040516103579190611777565b60405180910390f35b61037a600480360381019061037591906114bb565b61084a565b604051610387919061175c565b60405180910390f35b6103aa60048036038101906103a591906114bb565b6108c1565b6040516103b7919061175c565b60405180910390f35b6103c86108e4565b6040516103d59190611741565b60405180910390f35b6103f860048036038101906103f391906114fb565b61090a565b005b610414600480360381019061040f9190611428565b6109a2565b6040516104219190611919565b60405180910390f35b60085481565b60606003805461043f90611a49565b80601f016020809104026020016040519081016040528092919081815260200182805461046b90611a49565b80156104b85780601f1061048d576101008083540402835291602001916104b8565b820191906000526020600020905b81548152906001019060200180831161049b57829003601f168201915b5050505050905090565b6000806104cd610bef565b90506104da818585610bf7565b600191505092915050565b60095481565b6000600254905090565b600080610500610bef565b905061050d858285610dc2565b610518858585610e4e565b60019150509392505050565b60006012905090565b6000600554905090565b600080610542610bef565b905061056381858561055485896109a2565b61055e919061196b565b610bf7565b600191505092915050565b7f000000000000000000000000000000000000000000000000000000000000000073ffffffffffffffffffffffffffffffffffffffff163373ffffffffffffffffffffffffffffffffffffffff16146105fc576040517f08c379a00000000000000000000000000000000000000000000000000000000081526004016105f390611839565b60405180910390fd5b61060d610607610bef565b826110c6565b50565b6007805461061d90611a49565b80601f016020809104026020016040519081016040528092919081815260200182805461064990611a49565b80156106965780601f1061066b57610100808354040283529160200191610696565b820191906000526020600020905b81548152906001019060200180831161067957829003601f168201915b505050505081565b600680546106ab90611a49565b80601f01602080910402602001604051908101604052809291908181526020018280546106d790611a49565b80156107245780601f106106f957610100808354040283529160200191610724565b820191906000526020600020905b81548152906001019060200180831161070757829003601f168201915b505050505081565b60008060008373ffffffffffffffffffffffffffffffffffffffff1673ffffffffffffffffffffffffffffffffffffffff168152602001908152602001600020549050919050565b7f000000000000000000000000000000000000000000000000000000000000000081565b6107aa826107a4610bef565b83610dc2565b6107b482826110c6565b5050565b6060600480546107c790611a49565b80601f01602080910402602001604051908101604052809291908181526020018280546107f390611a49565b80156108405780601f1061081557610100808354040283529160200191610840565b820191906000526020600020905b81548152906001019060200180831161082357829003601f168201915b5050505050905090565b600080610855610bef565b9050600061086382866109a2565b9050838110156108a8576040517f08c379a000000000000000000000000000000000000000000000000000000000815260040161089f906118d9565b60405180910390fd5b6108b58286868403610bf7565b60019250505092915050565b6000806108cc610bef565b90506108d9818585610e4e565b600191505092915050565b600a60009054906101000a900473ffffffffffffffffffffffffffffffffffffffff1681565b7f000000000000000000000000000000000000000000000000000000000000000073ffffffffffffffffffffffffffffffffffffffff163373ffffffffffffffffffffffffffffffffffffffff1614610998576040517f08c379a000000000000000000000000000000000000000000000000000000000815260040161098f90611839565b60405180910390fd5b8060098190555050565b6000600160008473ffffffffffffffffffffffffffffffffffffffff1673ffffffffffffffffffffffffffffffffffffffff16815260200190815260200160002060008373ffffffffffffffffffffffffffffffffffffffff1673ffffffffffffffffffffffffffffffffffffffff16815260200190815260200160002054905092915050565b610a3161052d565b81610a3a6104eb565b610a44919061196b565b1115610a85576040517f08c379a0000000000000000000000000000000000000000000000000000000008152600401610a7c90611899565b60405180910390fd5b610a8f8282610a93565b5050565b600073ffffffffffffffffffffffffffffffffffffffff168273ffffffffffffffffffffffffffffffffffffffff161415610b03576040517f08c379a0000000000000000000000000000000000000000000000000000000008152600401610afa906118f9565b60405180910390fd5b610b0f60008383611294565b8060026000828254610b21919061196b565b92505081905550806000808473ffffffffffffffffffffffffffffffffffffffff1673ffffffffffffffffffffffffffffffffffffffff168152602001908152602001600020600082825401925050819055508173ffffffffffffffffffffffffffffffffffffffff16600073ffffffffffffffffffffffffffffffffffffffff167fddf252ad1be2c89b69c2b068fc378daa952ba7f163c4a11628f55a4df523b3ef83604051610bd29190611919565b60405180910390a3610be660008383611354565b5050565b505050565b600033905090565b600073ffffffffffffffffffffffffffffffffffffffff168373ffffffffffffffffffffffffffffffffffffffff161415610c67576040517f08c379a0000000000000000000000000000000000000000000000000000000008152600401610c5e906118b9565b60405180910390fd5b600073ffffffffffffffffffffffffffffffffffffffff168273ffffffffffffffffffffffffffffffffffffffff161415610cd7576040517f08c379a0000000000000000000000000000000000000000000000000000000008152600401610cce906117d9565b60405180910390fd5b80600160008573ffffffffffffffffffffffffffffffffffffffff1673ffffffffffffffffffffffffffffffffffffffff16815260200190815260200160002060008473ffffffffffffffffffffffffffffffffffffffff1673ffffffffffffffffffffffffffffffffffffffff168152602001908152602001600020819055508173ffffffffffffffffffffffffffffffffffffffff168373ffffffffffffffffffffffffffffffffffffffff167f8c5be1e5ebec7d5bd14f71427d1e84f3dd0314c0f7b2291e5b200ac8c7c3b92583604051610db59190611919565b60405180910390a3505050565b6000610dce84846109a2565b90507fffffffffffffffffffffffffffffffffffffffffffffffffffffffffffffffff8114610e485781811015610e3a576040517f08c379a0000000000000000000000000000000000000000000000000000000008152600401610e31906117f9565b60405180910390fd5b610e478484848403610bf7565b5b50505050565b600073ffffffffffffffffffffffffffffffffffffffff168373ffffffffffffffffffffffffffffffffffffffff161415610ebe576040517f08c379a0000000000000000000000000000000000000000000000000000000008152600401610eb590611879565b60405180910390fd5b600073ffffffffffffffffffffffffffffffffffffffff168273ffffffffffffffffffffffffffffffffffffffff161415610f2e576040517f08c379a0000000000000000000000000000000000000000000000000000000008152600401610f2590611799565b60405180910390fd5b610f39838383611294565b60008060008573ffffffffffffffffffffffffffffffffffffffff1673ffffffffffffffffffffffffffffffffffffffff16815260200190815260200160002054905081811015610fbf576040517f08c379a0000000000000000000000000000000000000000000000000000000008152600401610fb690611819565b60405180910390fd5b8181036000808673ffffffffffffffffffffffffffffffffffffffff1673ffffffffffffffffffffffffffffffffffffffff16815260200190815260200160002081905550816000808573ffffffffffffffffffffffffffffffffffffffff1673ffffffffffffffffffffffffffffffffffffffff168152602001908152602001600020600082825401925050819055508273ffffffffffffffffffffffffffffffffffffffff168473ffffffffffffffffffffffffffffffffffffffff167fddf252ad1be2c89b69c2b068fc378daa952ba7f163c4a11628f55a4df523b3ef846040516110ad9190611919565b60405180910390a36110c0848484611354565b50505050565b600073ffffffffffffffffffffffffffffffffffffffff168273ffffffffffffffffffffffffffffffffffffffff161415611136576040517f08c379a000000000000000000000000000000000000000000000000000000000815260040161112d90611859565b60405180910390fd5b61114282600083611294565b60008060008473ffffffffffffffffffffffffffffffffffffffff1673ffffffffffffffffffffffffffffffffffffffff168152602001908152602001600020549050818110156111c8576040517f08c379a00000000000000000000000000000000000000000000000000000000081526004016111bf906117b9565b60405180910390fd5b8181036000808573ffffffffffffffffffffffffffffffffffffffff1673ffffffffffffffffffffffffffffffffffffffff1681526020019081526020016000208190555081600260008282540392505081905550600073ffffffffffffffffffffffffffffffffffffffff168373ffffffffffffffffffffffffffffffffffffffff167fddf252ad1be2c89b69c2b068fc378daa952ba7f163c4a11628f55a4df523b3ef8460405161127b9190611919565b60405180910390a361128f83600084611354565b505050565b600073ffffffffffffffffffffffffffffffffffffffff168373ffffffffffffffffffffffffffffffffffffffff16141580156112fd57504173ffffffffffffffffffffffffffffffffffffffff168273ffffffffffffffffffffffffffffffffffffffff1614155b80156113365750600073ffffffffffffffffffffffffffffffffffffffff168273ffffffffffffffffffffffffffffffffffffffff1614155b1561134457611343611359565b5b61134f838383610bea565b505050565b505050565b61136541600954611367565b565b61136f61052d565b816113786104eb565b611382919061196b565b11156113c3576040517f08c379a00000000000000000000000000000000000000000000000000000000081526004016113ba90611899565b60405180910390fd5b6113cd8282610a29565b5050565b6000813590506113e081611e31565b92915050565b6000813590506113f581611e48565b92915050565b60006020828403121561141157611410611ad9565b5b600061141f848285016113d1565b91505092915050565b6000806040838503121561143f5761143e611ad9565b5b600061144d858286016113d1565b925050602061145e858286016113d1565b9150509250929050565b60008060006060848603121561148157611480611ad9565b5b600061148f868287016113d1565b93505060206114a0868287016113d1565b92505060406114b1868287016113e6565b9150509250925092565b600080604083850312156114d2576114d1611ad9565b5b60006114e0858286016113d1565b92505060206114f1858286016113e6565b9150509250929050565b60006020828403121561151157611510611ad9565b5b600061151f848285016113e6565b91505092915050565b611531816119c1565b82525050565b611540816119d3565b82525050565b60006115518261194f565b61155b818561195a565b935061156b818560208601611a16565b61157481611ade565b840191505092915050565b600061158c60238361195a565b915061159782611aef565b604082019050919050565b60006115af60228361195a565b91506115ba82611b3e565b604082019050919050565b60006115d260228361195a565b91506115dd82611b8d565b604082019050919050565b60006115f5601d8361195a565b915061160082611bdc565b602082019050919050565b600061161860268361195a565b915061162382611c05565b604082019050919050565b600061163b60228361195a565b915061164682611c54565b604082019050919050565b600061165e60218361195a565b915061166982611ca3565b604082019050919050565b600061168160258361195a565b915061168c82611cf2565b604082019050919050565b60006116a460198361195a565b91506116af82611d41565b602082019050919050565b60006116c760248361195a565b91506116d282611d6a565b604082019050919050565b60006116ea60258361195a565b91506116f582611db9565b604082019050919050565b600061170d601f8361195a565b915061171882611e08565b602082019050919050565b61172c816119ff565b82525050565b61173b81611a09565b82525050565b60006020820190506117566000830184611528565b92915050565b60006020820190506117716000830184611537565b92915050565b600060208201905081810360008301526117918184611546565b905092915050565b600060208201905081810360008301526117b28161157f565b9050919050565b600060208201905081810360008301526117d2816115a2565b9050919050565b600060208201905081810360008301526117f2816115c5565b9050919050565b60006020820190508181036000830152611812816115e8565b9050919050565b600060208201905081810360008301526118328161160b565b9050919050565b600060208201905081810360008301526118528161162e565b9050919050565b6000602082019050818103600083015261187281611651565b9050919050565b6000602082019050818103600083015261189281611674565b9050919050565b600060208201905081810360008301526118b281611697565b9050919050565b600060208201905081810360008301526118d2816116ba565b9050919050565b600060208201905081810360008301526118f2816116dd565b9050919050565b6000602082019050818103600083015261191281611700565b9050919050565b600060208201905061192e6000830184611723565b92915050565b60006020820190506119496000830184611732565b92915050565b600081519050919050565b600082825260208201905092915050565b6000611976826119ff565b9150611981836119ff565b9250827fffffffffffffffffffffffffffffffffffffffffffffffffffffffffffffffff038211156119b6576119b5611a7b565b5b828201905092915050565b60006119cc826119df565b9050919050565b60008115159050919050565b600073ffffffffffffffffffffffffffffffffffffffff82169050919050565b6000819050919050565b600060ff82169050919050565b60005b83811015611a34578082015181840152602081019050611a19565b83811115611a43576000848401525b50505050565b60006002820490506001821680611a6157607f821691505b60208210811415611a7557611a74611aaa565b5b50919050565b7f4e487b7100000000000000000000000000000000000000000000000000000000600052601160045260246000fd5b7f4e487b7100000000000000000000000000000000000000000000000000000000600052602260045260246000fd5b600080fd5b6000601f19601f8301169050919050565b7f45524332303a207472616e7366657220746f20746865207a65726f206164647260008201527f6573730000000000000000000000000000000000000000000000000000000000602082015250565b7f45524332303a206275726e20616d6f756e7420657863656564732062616c616e60008201527f6365000000000000000000000000000000000000000000000000000000000000602082015250565b7f45524332303a20617070726f766520746f20746865207a65726f20616464726560008201527f7373000000000000000000000000000000000000000000000000000000000000602082015250565b7f45524332303a20696e73756666696369656e7420616c6c6f77616e6365000000600082015250565b7f45524332303a207472616e7366657220616d6f756e742065786365656473206260008201527f616c616e63650000000000000000000000000000000000000000000000000000602082015250565b7f596f7572206e6f7420746865204f776e6572206f662074686520636f6e74726160008201527f6374000000000000000000000000000000000000000000000000000000000000602082015250565b7f45524332303a206275726e2066726f6d20746865207a65726f2061646472657360008201527f7300000000000000000000000000000000000000000000000000000000000000602082015250565b7f45524332303a207472616e736665722066726f6d20746865207a65726f20616460008201527f6472657373000000000000000000000000000000000000000000000000000000602082015250565b7f45524332304361707065643a2063617020657863656564656400000000000000600082015250565b7f45524332303a20617070726f76652066726f6d20746865207a65726f2061646460008201527f7265737300000000000000000000000000000000000000000000000000000000602082015250565b7f45524332303a2064656372656173656420616c6c6f77616e63652062656c6f7760008201527f207a65726f000000000000000000000000000000000000000000000000000000602082015250565b7f45524332303a206d696e7420746f20746865207a65726f206164647265737300600082015250565b611e3a816119c1565b8114611e4557600080fd5b50565b611e51816119ff565b8114611e5c57600080fd5b5056fea26469706673582212203059dd2f8e4e4c02aae83d560d7a19a9d03cef79263a3c685dbab306b6b9586264736f6c63430008070033",
  "linkReferences": {},
  "deployedLinkReferences": {}
}