{
  "address": "0x2aeb3d245d0d3c0e8496E7Ab5980d00E05DD2ad9",
  "abi": [
    {
      "inputs": [
        {
          "internalType": "uint256",
          "name": "initalSupply",
          "type": "uint256"
        },
        {
          "internalType": "string",
          "name": "TokenName",
          "type": "string"
        },
        {
          "internalType": "string",
          "name": "TokenSYM",
          "type": "string"
        },
        {
          "internalType": "uint256",
          "name": "cap",
          "type": "uint256"
        },
        {
          "internalType": "uint256",
          "name": "reawrd",
          "type": "uint256"
        },
        {
          "internalType": "address",
          "name": "_priceFeed",
          "type": "address"
        }
      ],
      "stateMutability": "nonpayable",
      "type": "constructor"
    },
    {
      "anonymous": false,
      "inputs": [
        {
          "indexed": true,
          "internalType": "address",
          "name": "owner",
          "type": "address"
        },
        {
          "indexed": true,
          "internalType": "address",
          "name": "spender",
          "type": "address"
        },
        {
          "indexed": false,
          "internalType": "uint256",
          "name": "value",
          "type": "uint256"
        }
      ],
      "name": "Approval",
      "type": "event"
    },
    {
      "anonymous": false,
      "inputs": [
        {
          "indexed": true,
          "internalType": "address",
          "name": "from",
          "type": "address"
        },
        {
          "indexed": true,
          "internalType": "address",
          "name": "to",
          "type": "address"
        },
        {
          "indexed": false,
          "internalType": "uint256",
          "name": "value",
          "type": "uint256"
        }
      ],
      "name": "Transfer",
      "type": "event"
    },
    {
      "inputs": [
        {
          "internalType": "string",
          "name": "",
          "type": "string"
        }
      ],
      "name": "ContractFund",
      "outputs": [
        {
          "internalType": "address",
          "name": "",
          "type": "address"
        }
      ],
      "stateMutability": "view",
      "type": "function"
    },
    {
      "inputs": [
        {
          "internalType": "uint256",
          "name": "",
          "type": "uint256"
        }
      ],
      "name": "NewFund",
      "outputs": [
        {
          "internalType": "contract FundContract",
          "name": "Name",
          "type": "address"
        },
        {
          "internalType": "address",
          "name": "ContractAddress",
          "type": "address"
        },
        {
          "internalType": "string",
          "name": "ContractName",
          "type": "string"
        },
        {
          "internalType": "uint256",
          "name": "duration",
          "type": "uint256"
        },
        {
          "internalType": "uint256",
          "name": "GoalAmount",
          "type": "uint256"
        }
      ],
      "stateMutability": "view",
      "type": "function"
    },
    {
      "inputs": [
        {
          "internalType": "string",
          "name": "ContractName",
          "type": "string"
        },
        {
          "internalType": "uint256",
          "name": "value",
          "type": "uint256"
        },
        {
          "internalType": "uint256",
          "name": "_Duration",
          "type": "uint256"
        },
        {
          "internalType": "uint256",
          "name": "FundingGoal",
          "type": "uint256"
        }
      ],
      "name": "NewFundContract",
      "outputs": [],
      "stateMutability": "nonpayable",
      "type": "function"
    },
    {
      "inputs": [],
      "name": "TokenAddress",
      "outputs": [
        {
          "internalType": "address",
          "name": "",
          "type": "address"
        }
      ],
      "stateMutability": "view",
      "type": "function"
    },
    {
      "inputs": [
        {
          "internalType": "uint256",
          "name": "reward",
          "type": "uint256"
        }
      ],
      "name": "_blockReward",
      "outputs": [],
      "stateMutability": "nonpayable",
      "type": "function"
    },
    {
      "inputs": [],
      "name": "_cap",
      "outputs": [
        {
          "internalType": "uint256",
          "name": "",
          "type": "uint256"
        }
      ],
      "stateMutability": "view",
      "type": "function"
    },
    {
      "inputs": [
        {
          "internalType": "address",
          "name": "owner",
          "type": "address"
        },
        {
          "internalType": "address",
          "name": "spender",
          "type": "address"
        }
      ],
      "name": "allowance",
      "outputs": [
        {
          "internalType": "uint256",
          "name": "",
          "type": "uint256"
        }
      ],
      "stateMutability": "view",
      "type": "function"
    },
    {
      "inputs": [
        {
          "internalType": "address",
          "name": "spender",
          "type": "address"
        },
        {
          "internalType": "uint256",
          "name": "amount",
          "type": "uint256"
        }
      ],
      "name": "approve",
      "outputs": [
        {
          "internalType": "bool",
          "name": "",
          "type": "bool"
        }
      ],
      "stateMutability": "nonpayable",
      "type": "function"
    },
    {
      "inputs": [
        {
          "internalType": "address",
          "name": "account",
          "type": "address"
        }
      ],
      "name": "balanceOf",
      "outputs": [
        {
          "internalType": "uint256",
          "name": "",
          "type": "uint256"
        }
      ],
      "stateMutability": "view",
      "type": "function"
    },
    {
      "inputs": [],
      "name": "blockReward",
      "outputs": [
        {
          "internalType": "uint256",
          "name": "",
          "type": "uint256"
        }
      ],
      "stateMutability": "view",
      "type": "function"
    },
    {
      "inputs": [
        {
          "internalType": "uint256",
          "name": "amount",
          "type": "uint256"
        }
      ],
      "name": "burn",
      "outputs": [],
      "stateMutability": "nonpayable",
      "type": "function"
    },
    {
      "inputs": [
        {
          "internalType": "address",
          "name": "account",
          "type": "address"
        },
        {
          "internalType": "uint256",
          "name": "amount",
          "type": "uint256"
        }
      ],
      "name": "burnFrom",
      "outputs": [],
      "stateMutability": "nonpayable",
      "type": "function"
    },
    {
      "inputs": [],
      "name": "cap",
      "outputs": [
        {
          "internalType": "uint256",
          "name": "",
          "type": "uint256"
        }
      ],
      "stateMutability": "view",
      "type": "function"
    },
    {
      "inputs": [],
      "name": "count",
      "outputs": [
        {
          "internalType": "uint256",
          "name": "",
          "type": "uint256"
        }
      ],
      "stateMutability": "view",
      "type": "function"
    },
    {
      "inputs": [],
      "name": "decimals",
      "outputs": [
        {
          "internalType": "uint8",
          "name": "",
          "type": "uint8"
        }
      ],
      "stateMutability": "view",
      "type": "function"
    },
    {
      "inputs": [
        {
          "internalType": "address",
          "name": "spender",
          "type": "address"
        },
        {
          "internalType": "uint256",
          "name": "subtractedValue",
          "type": "uint256"
        }
      ],
      "name": "decreaseAllowance",
      "outputs": [
        {
          "internalType": "bool",
          "name": "",
          "type": "bool"
        }
      ],
      "stateMutability": "nonpayable",
      "type": "function"
    },
    {
      "inputs": [],
      "name": "i_totalSupply",
      "outputs": [
        {
          "internalType": "uint256",
          "name": "",
          "type": "uint256"
        }
      ],
      "stateMutability": "view",
      "type": "function"
    },
    {
      "inputs": [
        {
          "internalType": "address",
          "name": "spender",
          "type": "address"
        },
        {
          "internalType": "uint256",
          "name": "addedValue",
          "type": "uint256"
        }
      ],
      "name": "increaseAllowance",
      "outputs": [
        {
          "internalType": "bool",
          "name": "",
          "type": "bool"
        }
      ],
      "stateMutability": "nonpayable",
      "type": "function"
    },
    {
      "inputs": [],
      "name": "name",
      "outputs": [
        {
          "internalType": "string",
          "name": "",
          "type": "string"
        }
      ],
      "stateMutability": "view",
      "type": "function"
    },
    {
      "inputs": [],
      "name": "priceFeed",
      "outputs": [
        {
          "internalType": "address",
          "name": "",
          "type": "address"
        }
      ],
      "stateMutability": "view",
      "type": "function"
    },
    {
      "inputs": [],
      "name": "s_TokenName",
      "outputs": [
        {
          "internalType": "string",
          "name": "",
          "type": "string"
        }
      ],
      "stateMutability": "view",
      "type": "function"
    },
    {
      "inputs": [],
      "name": "s_TokenSYM",
      "outputs": [
        {
          "internalType": "string",
          "name": "",
          "type": "string"
        }
      ],
      "stateMutability": "view",
      "type": "function"
    },
    {
      "inputs": [],
      "name": "symbol",
      "outputs": [
        {
          "internalType": "string",
          "name": "",
          "type": "string"
        }
      ],
      "stateMutability": "view",
      "type": "function"
    },
    {
      "inputs": [],
      "name": "totalSupply",
      "outputs": [
        {
          "internalType": "uint256",
          "name": "",
          "type": "uint256"
        }
      ],
      "stateMutability": "view",
      "type": "function"
    },
    {
      "inputs": [
        {
          "internalType": "address",
          "name": "to",
          "type": "address"
        },
        {
          "internalType": "uint256",
          "name": "amount",
          "type": "uint256"
        }
      ],
      "name": "transfer",
      "outputs": [
        {
          "internalType": "bool",
          "name": "",
          "type": "bool"
        }
      ],
      "stateMutability": "nonpayable",
      "type": "function"
    },
    {
      "inputs": [
        {
          "internalType": "address",
          "name": "from",
          "type": "address"
        },
        {
          "internalType": "address",
          "name": "to",
          "type": "address"
        },
        {
          "internalType": "uint256",
          "name": "amount",
          "type": "uint256"
        }
      ],
      "name": "transferFrom",
      "outputs": [
        {
          "internalType": "bool",
          "name": "",
          "type": "bool"
        }
      ],
      "stateMutability": "nonpayable",
      "type": "function"
    }
  ],
  "transactionHash": "0x19cdd3e4456304598da730607f3208011fdb2e8c158e147dd49175a06f40fadb",
  "args": [
    "70000000000000000000000000000000",
    "ERECOIN",
    "ERE",
    "1000000000000000000000000000000000",
    "50000",
    "0xD4a33860578De61DBAbDc8BFdb98FD742fA7028e"
  ],
  "numDeployments": 2,
  "solcInputHash": "6f58d804423eb1c91edb05862b269bb3",
  "bytecode": "0x60c06040526000600b553480156200001657600080fd5b50604051620056e3380380620056e383398181016040528101906200003c919062000798565b858585858581848481600390805190602001906200005c9291906200063c565b508060049080519060200190620000759291906200063c565b50505060008111620000be576040517f08c379a0000000000000000000000000000000000000000000000000000000008152600401620000b590620008f8565b60405180910390fd5b80600581905550503373ffffffffffffffffffffffffffffffffffffffff1660808173ffffffffffffffffffffffffffffffffffffffff1660601b815250508360069080519060200190620001159291906200063c565b5082600790805190602001906200012e9291906200063c565b5081600881905550806009819055508460a08181525050620001573386620002a060201b60201c565b30600a60006101000a81548173ffffffffffffffffffffffffffffffffffffffff021916908373ffffffffffffffffffffffffffffffffffffffff1602179055505050505050620001af3087620002a060201b60201c565b600a60009054906101000a900473ffffffffffffffffffffffffffffffffffffffff16600c60006101000a81548173ffffffffffffffffffffffffffffffffffffffff021916908373ffffffffffffffffffffffffffffffffffffffff16021790555080600d60006101000a81548173ffffffffffffffffffffffffffffffffffffffff021916908373ffffffffffffffffffffffffffffffffffffffff16021790555030600e60006101000a81548173ffffffffffffffffffffffffffffffffffffffff021916908373ffffffffffffffffffffffffffffffffffffffff16021790555050505050505062000c89565b620002b06200033160201b60201c565b81620002c66200033b60201b620006b01760201c565b620002d29190620009eb565b111562000316576040517f08c379a00000000000000000000000000000000000000000000000000000000081526004016200030d906200091a565b60405180910390fd5b6200032d82826200034560201b620013921760201c565b5050565b6000600554905090565b6000600254905090565b620003556200033160201b60201c565b816200036b6200033b60201b620006b01760201c565b620003779190620009eb565b1115620003bb576040517f08c379a0000000000000000000000000000000000000000000000000000000008152600401620003b2906200091a565b60405180910390fd5b620003d28282620003d660201b620014071760201c565b5050565b600073ffffffffffffffffffffffffffffffffffffffff168273ffffffffffffffffffffffffffffffffffffffff16141562000449576040517f08c379a000000000000000000000000000000000000000000000000000000000815260040162000440906200093c565b60405180910390fd5b6200045d600083836200054460201b60201c565b8060026000828254620004719190620009eb565b92505081905550806000808473ffffffffffffffffffffffffffffffffffffffff1673ffffffffffffffffffffffffffffffffffffffff168152602001908152602001600020600082825401925050819055508173ffffffffffffffffffffffffffffffffffffffff16600073ffffffffffffffffffffffffffffffffffffffff167fddf252ad1be2c89b69c2b068fc378daa952ba7f163c4a11628f55a4df523b3ef836040516200052491906200095e565b60405180910390a362000540600083836200061c60201b60201c565b5050565b600073ffffffffffffffffffffffffffffffffffffffff168373ffffffffffffffffffffffffffffffffffffffff1614158015620005ae57504173ffffffffffffffffffffffffffffffffffffffff168273ffffffffffffffffffffffffffffffffffffffff1614155b8015620005e85750600073ffffffffffffffffffffffffffffffffffffffff168273ffffffffffffffffffffffffffffffffffffffff1614155b15620005ff57620005fe6200062160201b60201c565b5b620006178383836200063760201b620015691760201c565b505050565b505050565b6200063541600954620002a060201b60201c565b565b505050565b8280546200064a9062000abc565b90600052602060002090601f0160209004810192826200066e5760008555620006ba565b82601f106200068957805160ff1916838001178555620006ba565b82800160010185558215620006ba579182015b82811115620006b95782518255916020019190600101906200069c565b5b509050620006c99190620006cd565b5090565b5b80821115620006e8576000816000905550600101620006ce565b5090565b600062000703620006fd84620009a4565b6200097b565b90508281526020810184848401111562000722576200072162000bba565b5b6200072f84828562000a86565b509392505050565b600081519050620007488162000c55565b92915050565b600082601f83011262000766576200076562000bb5565b5b815162000778848260208601620006ec565b91505092915050565b600081519050620007928162000c6f565b92915050565b60008060008060008060c08789031215620007b857620007b762000bc4565b5b6000620007c889828a0162000781565b965050602087015167ffffffffffffffff811115620007ec57620007eb62000bbf565b5b620007fa89828a016200074e565b955050604087015167ffffffffffffffff8111156200081e576200081d62000bbf565b5b6200082c89828a016200074e565b94505060606200083f89828a0162000781565b93505060806200085289828a0162000781565b92505060a06200086589828a0162000737565b9150509295509295509295565b600062000881601583620009da565b91506200088e8262000bda565b602082019050919050565b6000620008a8601983620009da565b9150620008b58262000c03565b602082019050919050565b6000620008cf601f83620009da565b9150620008dc8262000c2c565b602082019050919050565b620008f28162000a7c565b82525050565b60006020820190508181036000830152620009138162000872565b9050919050565b60006020820190508181036000830152620009358162000899565b9050919050565b600060208201905081810360008301526200095781620008c0565b9050919050565b6000602082019050620009756000830184620008e7565b92915050565b6000620009876200099a565b905062000995828262000af2565b919050565b6000604051905090565b600067ffffffffffffffff821115620009c257620009c162000b86565b5b620009cd8262000bc9565b9050602081019050919050565b600082825260208201905092915050565b6000620009f88262000a7c565b915062000a058362000a7c565b9250827fffffffffffffffffffffffffffffffffffffffffffffffffffffffffffffffff0382111562000a3d5762000a3c62000b28565b5b828201905092915050565b600062000a558262000a5c565b9050919050565b600073ffffffffffffffffffffffffffffffffffffffff82169050919050565b6000819050919050565b60005b8381101562000aa657808201518184015260208101905062000a89565b8381111562000ab6576000848401525b50505050565b6000600282049050600182168062000ad557607f821691505b6020821081141562000aec5762000aeb62000b57565b5b50919050565b62000afd8262000bc9565b810181811067ffffffffffffffff8211171562000b1f5762000b1e62000b86565b5b80604052505050565b7f4e487b7100000000000000000000000000000000000000000000000000000000600052601160045260246000fd5b7f4e487b7100000000000000000000000000000000000000000000000000000000600052602260045260246000fd5b7f4e487b7100000000000000000000000000000000000000000000000000000000600052604160045260246000fd5b600080fd5b600080fd5b600080fd5b600080fd5b6000601f19601f8301169050919050565b7f45524332304361707065643a2063617020697320300000000000000000000000600082015250565b7f45524332304361707065643a2063617020657863656564656400000000000000600082015250565b7f45524332303a206d696e7420746f20746865207a65726f206164647265737300600082015250565b62000c608162000a48565b811462000c6c57600080fd5b50565b62000c7a8162000a7c565b811462000c8657600080fd5b50565b60805160601c60a051614a0762000cdc600039600061098601526000818161074301528181610ab301528181610b4f01528181610c2801528181610d0e01528181610ef001526112720152614a076000f3fe60806040523480156200001157600080fd5b5060043610620001b45760003560e01c806370a0823111620000f3578063964bd3af11620000a5578063be1e4b1a116200007b578063be1e4b1a146200052b578063c2cba3061462000565578063c2f2f1661462000587578063dd62ed3e14620005a757620001b4565b8063964bd3af146200049f578063a457c2d714620004bf578063a9059cbb14620004f557620001b4565b806370a0823114620003ad578063741bef1a14620003e357806378d8049a146200040557806379cc6790146200042757806390e000ee146200044757806395d89b41146200047d57620001b4565b806323b872dd116200016b57806339509351116200014157806339509351146200031357806342966c68146200034957806352fb636a14620003695780636adce713146200038b57620001b4565b806323b872dd1462000299578063313ce56714620002cf578063355274ea14620002f157620001b4565b8063060cf4e814620001b957806306661abd14620001db57806306fdde0314620001fd578063095ea7b3146200021f5780630ac168a1146200025557806318160ddd1462000277575b600080fd5b620001c3620005dd565b604051620001d29190620026d2565b60405180910390f35b620001e5620005e3565b604051620001f49190620026d2565b60405180910390f35b62000207620005e9565b60405162000216919062002492565b60405180910390f35b6200023d600480360381019062000237919062001fce565b62000683565b6040516200024c919062002411565b60405180910390f35b6200025f620006aa565b6040516200026e9190620026d2565b60405180910390f35b62000281620006b0565b604051620002909190620026d2565b60405180910390f35b620002b76004803603810190620002b1919062001f72565b620006ba565b604051620002c6919062002411565b60405180910390f35b620002d9620006ef565b604051620002e89190620026ef565b60405180910390f35b620002fb620006f8565b6040516200030a9190620026d2565b60405180910390f35b6200033160048036038101906200032b919062001fce565b62000702565b60405162000340919062002411565b60405180910390f35b620003676004803603810190620003619190620020f7565b62000741565b005b62000373620007ea565b60405162000382919062002492565b60405180910390f35b6200039562000880565b604051620003a4919062002492565b60405180910390f35b620003cb6004803603810190620003c5919062001ef9565b62000916565b604051620003da9190620026d2565b60405180910390f35b620003ed6200095e565b604051620003fc9190620023f4565b60405180910390f35b6200040f62000984565b6040516200041e9190620026d2565b60405180910390f35b6200044560048036038101906200043f919062001fce565b620009a8565b005b6200046560048036038101906200045f919062002015565b620009ce565b604051620004749190620023f4565b60405180910390f35b6200048762000a17565b60405162000496919062002492565b60405180910390f35b620004bd6004803603810190620004b7919062002066565b62000ab1565b005b620004dd6004803603810190620004d7919062001fce565b6200108c565b604051620004ec919062002411565b60405180910390f35b6200051360048036038101906200050d919062001fce565b6200110c565b60405162000522919062002411565b60405180910390f35b620005496004803603810190620005439190620020f7565b62001133565b6040516200055c9594939291906200242e565b60405180910390f35b6200056f6200124a565b6040516200057e9190620023f4565b60405180910390f35b620005a560048036038101906200059f9190620020f7565b62001270565b005b620005c56004803603810190620005bf919062001f2b565b6200130b565b604051620005d49190620026d2565b60405180910390f35b60085481565b600b5481565b606060038054620005fa90620028db565b80601f01602080910402602001604051908101604052809291908181526020018280546200062890620028db565b8015620006795780601f106200064d5761010080835404028352916020019162000679565b820191906000526020600020905b8154815290600101906020018083116200065b57829003601f168201915b5050505050905090565b600080620006906200156e565b90506200069f81858562001576565b600191505092915050565b60095481565b6000600254905090565b600080620006c76200156e565b9050620006d685828562001749565b620006e3858585620017dd565b60019150509392505050565b60006012905090565b6000600554905090565b6000806200070f6200156e565b9050620007368185856200072485896200130b565b62000730919062002792565b62001576565b600191505092915050565b7f000000000000000000000000000000000000000000000000000000000000000073ffffffffffffffffffffffffffffffffffffffff163373ffffffffffffffffffffffffffffffffffffffff1614620007d2576040517f08c379a0000000000000000000000000000000000000000000000000000000008152600401620007c990620025e4565b60405180910390fd5b620007e7620007e06200156e565b8262001a64565b50565b60078054620007f990620028db565b80601f01602080910402602001604051908101604052809291908181526020018280546200082790620028db565b8015620008785780601f106200084c5761010080835404028352916020019162000878565b820191906000526020600020905b8154815290600101906020018083116200085a57829003601f168201915b505050505081565b600680546200088f90620028db565b80601f0160208091040260200160405190810160405280929190818152602001828054620008bd90620028db565b80156200090e5780601f10620008e2576101008083540402835291602001916200090e565b820191906000526020600020905b815481529060010190602001808311620008f057829003601f168201915b505050505081565b60008060008373ffffffffffffffffffffffffffffffffffffffff1673ffffffffffffffffffffffffffffffffffffffff168152602001908152602001600020549050919050565b600d60009054906101000a900473ffffffffffffffffffffffffffffffffffffffff1681565b7f000000000000000000000000000000000000000000000000000000000000000081565b620009be82620009b76200156e565b8362001749565b620009ca828262001a64565b5050565b6010818051602081018201805184825260208301602085012081835280955050505050506000915054906101000a900473ffffffffffffffffffffffffffffffffffffffff1681565b60606004805462000a2890620028db565b80601f016020809104026020016040519081016040528092919081815260200182805462000a5690620028db565b801562000aa75780601f1062000a7b5761010080835404028352916020019162000aa7565b820191906000526020600020905b81548152906001019060200180831162000a8957829003601f168201915b5050505050905090565b7f000000000000000000000000000000000000000000000000000000000000000073ffffffffffffffffffffffffffffffffffffffff163373ffffffffffffffffffffffffffffffffffffffff161462000b42576040517f08c379a000000000000000000000000000000000000000000000000000000000815260040162000b3990620025e4565b60405180910390fd5b60008490506000839050857f0000000000000000000000000000000000000000000000000000000000000000600a60009054906101000a900473ffffffffffffffffffffffffffffffffffffffff1683600d60009054906101000a900473ffffffffffffffffffffffffffffffffffffffff1687600e60009054906101000a900473ffffffffffffffffffffffffffffffffffffffff1660405162000be79062001d8f565b62000bf99796959493929190620024b6565b604051809103906000f08015801562000c16573d6000803e3d6000fd5b5050600f6040518060a00160405280887f0000000000000000000000000000000000000000000000000000000000000000600a60009054906101000a900473ffffffffffffffffffffffffffffffffffffffff1686600d60009054906101000a900473ffffffffffffffffffffffffffffffffffffffff168a600e60009054906101000a900473ffffffffffffffffffffffffffffffffffffffff1660405162000cc09062001d8f565b62000cd29796959493929190620024b6565b604051809103906000f08015801562000cef573d6000803e3d6000fd5b5073ffffffffffffffffffffffffffffffffffffffff168152602001887f0000000000000000000000000000000000000000000000000000000000000000600a60009054906101000a900473ffffffffffffffffffffffffffffffffffffffff1686600d60009054906101000a900473ffffffffffffffffffffffffffffffffffffffff168a600e60009054906101000a900473ffffffffffffffffffffffffffffffffffffffff1660405162000da69062001d8f565b62000db89796959493929190620024b6565b604051809103906000f08015801562000dd5573d6000803e3d6000fd5b5073ffffffffffffffffffffffffffffffffffffffff16815260200188815260200186815260200185815250908060018154018082558091505060019003906000526020600020906005020160009091909190915060008201518160000160006101000a81548173ffffffffffffffffffffffffffffffffffffffff021916908373ffffffffffffffffffffffffffffffffffffffff16021790555060208201518160010160006101000a81548173ffffffffffffffffffffffffffffffffffffffff021916908373ffffffffffffffffffffffffffffffffffffffff160217905550604082015181600201908051906020019062000ed692919062001d9d565b5060608201518160030155608082015181600401555050857f0000000000000000000000000000000000000000000000000000000000000000600a60009054906101000a900473ffffffffffffffffffffffffffffffffffffffff1683600d60009054906101000a900473ffffffffffffffffffffffffffffffffffffffff1687600e60009054906101000a900473ffffffffffffffffffffffffffffffffffffffff1660405162000f889062001d8f565b62000f9a9796959493929190620024b6565b604051809103906000f08015801562000fb7573d6000803e3d6000fd5b5060108360405162000fca9190620023db565b908152602001604051809103902060006101000a81548173ffffffffffffffffffffffffffffffffffffffff021916908373ffffffffffffffffffffffffffffffffffffffff1602179055506200106d30600f600b5481548110620010345762001033620029a5565b5b906000526020600020906005020160000160009054906101000a900473ffffffffffffffffffffffffffffffffffffffff1687620017dd565b6001600b546200107e919062002792565b600b81905550505050505050565b600080620010996200156e565b90506000620010a982866200130b565b905083811015620010f1576040517f08c379a0000000000000000000000000000000000000000000000000000000008152600401620010e8906200268e565b60405180910390fd5b62001100828686840362001576565b60019250505092915050565b600080620011196200156e565b905062001128818585620017dd565b600191505092915050565b600f81815481106200114457600080fd5b90600052602060002090600502016000915090508060000160009054906101000a900473ffffffffffffffffffffffffffffffffffffffff16908060010160009054906101000a900473ffffffffffffffffffffffffffffffffffffffff1690806002018054620011b590620028db565b80601f0160208091040260200160405190810160405280929190818152602001828054620011e390620028db565b8015620012345780601f10620012085761010080835404028352916020019162001234565b820191906000526020600020905b8154815290600101906020018083116200121657829003601f168201915b5050505050908060030154908060040154905085565b600a60009054906101000a900473ffffffffffffffffffffffffffffffffffffffff1681565b7f000000000000000000000000000000000000000000000000000000000000000073ffffffffffffffffffffffffffffffffffffffff163373ffffffffffffffffffffffffffffffffffffffff161462001301576040517f08c379a0000000000000000000000000000000000000000000000000000000008152600401620012f890620025e4565b60405180910390fd5b8060098190555050565b6000600160008473ffffffffffffffffffffffffffffffffffffffff1673ffffffffffffffffffffffffffffffffffffffff16815260200190815260200160002060008373ffffffffffffffffffffffffffffffffffffffff1673ffffffffffffffffffffffffffffffffffffffff16815260200190815260200160002054905092915050565b6200139c620006f8565b81620013a7620006b0565b620013b3919062002792565b1115620013f7576040517f08c379a0000000000000000000000000000000000000000000000000000000008152600401620013ee906200264a565b60405180910390fd5b62001403828262001407565b5050565b600073ffffffffffffffffffffffffffffffffffffffff168273ffffffffffffffffffffffffffffffffffffffff1614156200147a576040517f08c379a00000000000000000000000000000000000000000000000000000000081526004016200147190620026b0565b60405180910390fd5b620014886000838362001c3e565b80600260008282546200149c919062002792565b92505081905550806000808473ffffffffffffffffffffffffffffffffffffffff1673ffffffffffffffffffffffffffffffffffffffff168152602001908152602001600020600082825401925050819055508173ffffffffffffffffffffffffffffffffffffffff16600073ffffffffffffffffffffffffffffffffffffffff167fddf252ad1be2c89b69c2b068fc378daa952ba7f163c4a11628f55a4df523b3ef836040516200154f9190620026d2565b60405180910390a3620015656000838362001d05565b5050565b505050565b600033905090565b600073ffffffffffffffffffffffffffffffffffffffff168373ffffffffffffffffffffffffffffffffffffffff161415620015e9576040517f08c379a0000000000000000000000000000000000000000000000000000000008152600401620015e0906200266c565b60405180910390fd5b600073ffffffffffffffffffffffffffffffffffffffff168273ffffffffffffffffffffffffffffffffffffffff1614156200165c576040517f08c379a000000000000000000000000000000000000000000000000000000000815260040162001653906200257e565b60405180910390fd5b80600160008573ffffffffffffffffffffffffffffffffffffffff1673ffffffffffffffffffffffffffffffffffffffff16815260200190815260200160002060008473ffffffffffffffffffffffffffffffffffffffff1673ffffffffffffffffffffffffffffffffffffffff168152602001908152602001600020819055508173ffffffffffffffffffffffffffffffffffffffff168373ffffffffffffffffffffffffffffffffffffffff167f8c5be1e5ebec7d5bd14f71427d1e84f3dd0314c0f7b2291e5b200ac8c7c3b925836040516200173c9190620026d2565b60405180910390a3505050565b60006200175784846200130b565b90507fffffffffffffffffffffffffffffffffffffffffffffffffffffffffffffffff8114620017d75781811015620017c7576040517f08c379a0000000000000000000000000000000000000000000000000000000008152600401620017be90620025a0565b60405180910390fd5b620017d6848484840362001576565b5b50505050565b600073ffffffffffffffffffffffffffffffffffffffff168373ffffffffffffffffffffffffffffffffffffffff16141562001850576040517f08c379a0000000000000000000000000000000000000000000000000000000008152600401620018479062002628565b60405180910390fd5b600073ffffffffffffffffffffffffffffffffffffffff168273ffffffffffffffffffffffffffffffffffffffff161415620018c3576040517f08c379a0000000000000000000000000000000000000000000000000000000008152600401620018ba906200253a565b60405180910390fd5b620018d083838362001c3e565b60008060008573ffffffffffffffffffffffffffffffffffffffff1673ffffffffffffffffffffffffffffffffffffffff1681526020019081526020016000205490508181101562001959576040517f08c379a00000000000000000000000000000000000000000000000000000000081526004016200195090620025c2565b60405180910390fd5b8181036000808673ffffffffffffffffffffffffffffffffffffffff1673ffffffffffffffffffffffffffffffffffffffff16815260200190815260200160002081905550816000808573ffffffffffffffffffffffffffffffffffffffff1673ffffffffffffffffffffffffffffffffffffffff168152602001908152602001600020600082825401925050819055508273ffffffffffffffffffffffffffffffffffffffff168473ffffffffffffffffffffffffffffffffffffffff167fddf252ad1be2c89b69c2b068fc378daa952ba7f163c4a11628f55a4df523b3ef8460405162001a499190620026d2565b60405180910390a362001a5e84848462001d05565b50505050565b600073ffffffffffffffffffffffffffffffffffffffff168273ffffffffffffffffffffffffffffffffffffffff16141562001ad7576040517f08c379a000000000000000000000000000000000000000000000000000000000815260040162001ace9062002606565b60405180910390fd5b62001ae58260008362001c3e565b60008060008473ffffffffffffffffffffffffffffffffffffffff1673ffffffffffffffffffffffffffffffffffffffff1681526020019081526020016000205490508181101562001b6e576040517f08c379a000000000000000000000000000000000000000000000000000000000815260040162001b65906200255c565b60405180910390fd5b8181036000808573ffffffffffffffffffffffffffffffffffffffff1673ffffffffffffffffffffffffffffffffffffffff1681526020019081526020016000208190555081600260008282540392505081905550600073ffffffffffffffffffffffffffffffffffffffff168373ffffffffffffffffffffffffffffffffffffffff167fddf252ad1be2c89b69c2b068fc378daa952ba7f163c4a11628f55a4df523b3ef8460405162001c239190620026d2565b60405180910390a362001c398360008462001d05565b505050565b600073ffffffffffffffffffffffffffffffffffffffff168373ffffffffffffffffffffffffffffffffffffffff161415801562001ca857504173ffffffffffffffffffffffffffffffffffffffff168273ffffffffffffffffffffffffffffffffffffffff1614155b801562001ce25750600073ffffffffffffffffffffffffffffffffffffffff168273ffffffffffffffffffffffffffffffffffffffff1614155b1562001cf35762001cf262001d0a565b5b62001d0083838362001569565b505050565b505050565b62001d184160095462001d1a565b565b62001d24620006f8565b8162001d2f620006b0565b62001d3b919062002792565b111562001d7f576040517f08c379a000000000000000000000000000000000000000000000000000000000815260040162001d76906200264a565b60405180910390fd5b62001d8b828262001392565b5050565b611c338062002d9f83390190565b82805462001dab90620028db565b90600052602060002090601f01602090048101928262001dcf576000855562001e1b565b82601f1062001dea57805160ff191683800117855562001e1b565b8280016001018555821562001e1b579182015b8281111562001e1a57825182559160200191906001019062001dfd565b5b50905062001e2a919062001e2e565b5090565b5b8082111562001e4957600081600090555060010162001e2f565b5090565b600062001e6462001e5e8462002735565b6200270c565b90508281526020810184848401111562001e835762001e8262002a08565b5b62001e9084828562002896565b509392505050565b60008135905062001ea98162002d6a565b92915050565b600082601f83011262001ec75762001ec662002a03565b5b813562001ed984826020860162001e4d565b91505092915050565b60008135905062001ef38162002d84565b92915050565b60006020828403121562001f125762001f1162002a12565b5b600062001f228482850162001e98565b91505092915050565b6000806040838503121562001f455762001f4462002a12565b5b600062001f558582860162001e98565b925050602062001f688582860162001e98565b9150509250929050565b60008060006060848603121562001f8e5762001f8d62002a12565b5b600062001f9e8682870162001e98565b935050602062001fb18682870162001e98565b925050604062001fc48682870162001ee2565b9150509250925092565b6000806040838503121562001fe85762001fe762002a12565b5b600062001ff88582860162001e98565b92505060206200200b8582860162001ee2565b9150509250929050565b6000602082840312156200202e576200202d62002a12565b5b600082013567ffffffffffffffff8111156200204f576200204e62002a0d565b5b6200205d8482850162001eaf565b91505092915050565b6000806000806080858703121562002083576200208262002a12565b5b600085013567ffffffffffffffff811115620020a457620020a362002a0d565b5b620020b28782880162001eaf565b9450506020620020c58782880162001ee2565b9350506040620020d88782880162001ee2565b9250506060620020eb8782880162001ee2565b91505092959194509250565b60006020828403121562002110576200210f62002a12565b5b6000620021208482850162001ee2565b91505092915050565b620021348162002846565b82525050565b6200214581620027ef565b82525050565b620021568162002803565b82525050565b62002167816200285a565b82525050565b60006200217a826200276b565b62002186818562002776565b935062002198818560208601620028a5565b620021a38162002a17565b840191505092915050565b6000620021bb826200276b565b620021c7818562002787565b9350620021d9818560208601620028a5565b80840191505092915050565b6000620021f460238362002776565b9150620022018262002a28565b604082019050919050565b60006200221b60228362002776565b9150620022288262002a77565b604082019050919050565b60006200224260228362002776565b91506200224f8262002ac6565b604082019050919050565b600062002269601d8362002776565b9150620022768262002b15565b602082019050919050565b60006200229060268362002776565b91506200229d8262002b3e565b604082019050919050565b6000620022b760228362002776565b9150620022c48262002b8d565b604082019050919050565b6000620022de60218362002776565b9150620022eb8262002bdc565b604082019050919050565b60006200230560258362002776565b9150620023128262002c2b565b604082019050919050565b60006200232c60198362002776565b9150620023398262002c7a565b602082019050919050565b60006200235360248362002776565b9150620023608262002ca3565b604082019050919050565b60006200237a60258362002776565b9150620023878262002cf2565b604082019050919050565b6000620023a1601f8362002776565b9150620023ae8262002d41565b602082019050919050565b620023c4816200282f565b82525050565b620023d58162002839565b82525050565b6000620023e98284620021ae565b915081905092915050565b60006020820190506200240b60008301846200213a565b92915050565b60006020820190506200242860008301846200214b565b92915050565b600060a0820190506200244560008301886200215c565b6200245460208301876200213a565b81810360408301526200246881866200216d565b9050620024796060830185620023b9565b620024886080830184620023b9565b9695505050505050565b60006020820190508181036000830152620024ae81846200216d565b905092915050565b600060e0820190508181036000830152620024d2818a6200216d565b9050620024e3602083018962002129565b620024f260408301886200213a565b620025016060830187620023b9565b6200251060808301866200213a565b6200251f60a0830185620023b9565b6200252e60c08301846200213a565b98975050505050505050565b600060208201905081810360008301526200255581620021e5565b9050919050565b6000602082019050818103600083015262002577816200220c565b9050919050565b60006020820190508181036000830152620025998162002233565b9050919050565b60006020820190508181036000830152620025bb816200225a565b9050919050565b60006020820190508181036000830152620025dd8162002281565b9050919050565b60006020820190508181036000830152620025ff81620022a8565b9050919050565b600060208201905081810360008301526200262181620022cf565b9050919050565b600060208201905081810360008301526200264381620022f6565b9050919050565b6000602082019050818103600083015262002665816200231d565b9050919050565b60006020820190508181036000830152620026878162002344565b9050919050565b60006020820190508181036000830152620026a9816200236b565b9050919050565b60006020820190508181036000830152620026cb8162002392565b9050919050565b6000602082019050620026e96000830184620023b9565b92915050565b6000602082019050620027066000830184620023ca565b92915050565b6000620027186200272b565b905062002726828262002911565b919050565b6000604051905090565b600067ffffffffffffffff821115620027535762002752620029d4565b5b6200275e8262002a17565b9050602081019050919050565b600081519050919050565b600082825260208201905092915050565b600081905092915050565b60006200279f826200282f565b9150620027ac836200282f565b9250827fffffffffffffffffffffffffffffffffffffffffffffffffffffffffffffffff03821115620027e457620027e362002947565b5b828201905092915050565b6000620027fc826200280f565b9050919050565b60008115159050919050565b600073ffffffffffffffffffffffffffffffffffffffff82169050919050565b6000819050919050565b600060ff82169050919050565b600062002853826200286e565b9050919050565b600062002867826200286e565b9050919050565b60006200287b8262002882565b9050919050565b60006200288f826200280f565b9050919050565b82818337600083830152505050565b60005b83811015620028c5578082015181840152602081019050620028a8565b83811115620028d5576000848401525b50505050565b60006002820490506001821680620028f457607f821691505b602082108114156200290b576200290a62002976565b5b50919050565b6200291c8262002a17565b810181811067ffffffffffffffff821117156200293e576200293d620029d4565b5b80604052505050565b7f4e487b7100000000000000000000000000000000000000000000000000000000600052601160045260246000fd5b7f4e487b7100000000000000000000000000000000000000000000000000000000600052602260045260246000fd5b7f4e487b7100000000000000000000000000000000000000000000000000000000600052603260045260246000fd5b7f4e487b7100000000000000000000000000000000000000000000000000000000600052604160045260246000fd5b600080fd5b600080fd5b600080fd5b600080fd5b6000601f19601f8301169050919050565b7f45524332303a207472616e7366657220746f20746865207a65726f206164647260008201527f6573730000000000000000000000000000000000000000000000000000000000602082015250565b7f45524332303a206275726e20616d6f756e7420657863656564732062616c616e60008201527f6365000000000000000000000000000000000000000000000000000000000000602082015250565b7f45524332303a20617070726f766520746f20746865207a65726f20616464726560008201527f7373000000000000000000000000000000000000000000000000000000000000602082015250565b7f45524332303a20696e73756666696369656e7420616c6c6f77616e6365000000600082015250565b7f45524332303a207472616e7366657220616d6f756e742065786365656473206260008201527f616c616e63650000000000000000000000000000000000000000000000000000602082015250565b7f596f7572206e6f7420746865204f776e6572206f662074686520636f6e74726160008201527f6374000000000000000000000000000000000000000000000000000000000000602082015250565b7f45524332303a206275726e2066726f6d20746865207a65726f2061646472657360008201527f7300000000000000000000000000000000000000000000000000000000000000602082015250565b7f45524332303a207472616e736665722066726f6d20746865207a65726f20616460008201527f6472657373000000000000000000000000000000000000000000000000000000602082015250565b7f45524332304361707065643a2063617020657863656564656400000000000000600082015250565b7f45524332303a20617070726f76652066726f6d20746865207a65726f2061646460008201527f7265737300000000000000000000000000000000000000000000000000000000602082015250565b7f45524332303a2064656372656173656420616c6c6f77616e63652062656c6f7760008201527f207a65726f000000000000000000000000000000000000000000000000000000602082015250565b7f45524332303a206d696e7420746f20746865207a65726f206164647265737300600082015250565b62002d7581620027ef565b811462002d8157600080fd5b50565b62002d8f816200282f565b811462002d9b57600080fd5b5056fe60806040523480156200001157600080fd5b5060405162001c3338038062001c338339818101604052810190620000379190620002d2565b86600090805190602001906200004f92919062000176565b5085600160006101000a81548173ffffffffffffffffffffffffffffffffffffffff021916908373ffffffffffffffffffffffffffffffffffffffff16021790555084600c60006101000a81548173ffffffffffffffffffffffffffffffffffffffff021916908373ffffffffffffffffffffffffffffffffffffffff16021790555084600460006101000a81548173ffffffffffffffffffffffffffffffffffffffff021916908373ffffffffffffffffffffffffffffffffffffffff1602179055504260058190555082600d60006101000a81548173ffffffffffffffffffffffffffffffffffffffff021916908373ffffffffffffffffffffffffffffffffffffffff1602179055508360068190555081600781905550505050505050506200059a565b828054620001849062000477565b90600052602060002090601f016020900481019282620001a85760008555620001f4565b82601f10620001c357805160ff1916838001178555620001f4565b82800160010185558215620001f4579182015b82811115620001f3578251825591602001919060010190620001d6565b5b50905062000203919062000207565b5090565b5b808211156200022257600081600090555060010162000208565b5090565b60006200023d6200023784620003cd565b620003a4565b9050828152602081018484840111156200025c576200025b62000546565b5b6200026984828562000441565b509392505050565b600081519050620002828162000566565b92915050565b600082601f830112620002a0576200029f62000541565b5b8151620002b284826020860162000226565b91505092915050565b600081519050620002cc8162000580565b92915050565b600080600080600080600060e0888a031215620002f457620002f362000550565b5b600088015167ffffffffffffffff8111156200031557620003146200054b565b5b620003238a828b0162000288565b9750506020620003368a828b0162000271565b9650506040620003498a828b0162000271565b95505060606200035c8a828b01620002bb565b94505060806200036f8a828b0162000271565b93505060a0620003828a828b01620002bb565b92505060c0620003958a828b0162000271565b91505092959891949750929550565b6000620003b0620003c3565b9050620003be8282620004ad565b919050565b6000604051905090565b600067ffffffffffffffff821115620003eb57620003ea62000512565b5b620003f68262000555565b9050602081019050919050565b6000620004108262000417565b9050919050565b600073ffffffffffffffffffffffffffffffffffffffff82169050919050565b6000819050919050565b60005b838110156200046157808201518184015260208101905062000444565b8381111562000471576000848401525b50505050565b600060028204905060018216806200049057607f821691505b60208210811415620004a757620004a6620004e3565b5b50919050565b620004b88262000555565b810181811067ffffffffffffffff82111715620004da57620004d962000512565b5b80604052505050565b7f4e487b7100000000000000000000000000000000000000000000000000000000600052602260045260246000fd5b7f4e487b7100000000000000000000000000000000000000000000000000000000600052604160045260246000fd5b600080fd5b600080fd5b600080fd5b600080fd5b6000601f19601f8301169050919050565b620005718162000403565b81146200057d57600080fd5b50565b6200058b8162000437565b81146200059757600080fd5b50565b61168980620005aa6000396000f3fe60806040526004361061011f5760003560e01c80638e15f473116100a0578063da6b735611610064578063da6b735614610395578063e6fd48bc146103c0578063ef2e2740146103eb578063f6b4dfb414610428578063fd79c2a9146104535761011f565b80638e15f4731461029957806392ca60c1146102c4578063b4a99a4e14610302578063bc8fcb221461032d578063d4c3eea01461036a5761011f565b80633ccfd60b116100e75780633ccfd60b146101c45780634407e1e8146101db57806344ab323b14610218578063741bef1a146102435780638e0f914c1461026e5761011f565b80630b2cb3bc146101245780630fb5a6b41461014f5780631b9265b81461017a5780631dcea427146101845780632e1a7d4d1461019b575b600080fd5b34801561013057600080fd5b5061013961047e565b604051610146919061104e565b60405180910390f35b34801561015b57600080fd5b506101646104a4565b6040516101719190611166565b60405180910390f35b6101826104aa565b005b34801561019057600080fd5b5061019961078e565b005b3480156101a757600080fd5b506101c260048036038101906101bd9190610eaa565b610841565b005b3480156101d057600080fd5b506101d961093d565b005b3480156101e757600080fd5b5061020260048036038101906101fd9190610e50565b610b14565b60405161020f9190611166565b60405180910390f35b34801561022457600080fd5b5061022d610b2c565b60405161023a9190611166565b60405180910390f35b34801561024f57600080fd5b50610258610b32565b60405161026591906110c9565b60405180910390f35b34801561027a57600080fd5b50610283610b58565b6040516102909190611166565b60405180910390f35b3480156102a557600080fd5b506102ae610b5e565b6040516102bb9190611166565b60405180910390f35b3480156102d057600080fd5b506102eb60048036038101906102e69190610eaa565b610c1e565b6040516102f99291906110a0565b60405180910390f35b34801561030e57600080fd5b50610317610c72565b604051610324919061104e565b60405180910390f35b34801561033957600080fd5b50610354600480360381019061034f9190610e50565b610c98565b6040516103619190611166565b60405180910390f35b34801561037657600080fd5b5061037f610cb0565b60405161038c9190611166565b60405180910390f35b3480156103a157600080fd5b506103aa610cb8565b6040516103b7919061104e565b60405180910390f35b3480156103cc57600080fd5b506103d5610cde565b6040516103e29190611166565b60405180910390f35b3480156103f757600080fd5b50610412600480360381019061040d9190610eaa565b610ce4565b60405161041f9190611166565b60405180910390f35b34801561043457600080fd5b5061043d610d1e565b60405161044a919061104e565b60405180910390f35b34801561045f57600080fd5b50610468610d44565b60405161047591906110e4565b60405180910390f35b600460009054906101000a900473ffffffffffffffffffffffffffffffffffffffff1681565b60065481565b600654600554426104bb919061133f565b106104fb576040517f08c379a00000000000000000000000000000000000000000000000000000000081526004016104f290611106565b60405180910390fd5b600960405180604001604052803373ffffffffffffffffffffffffffffffffffffffff16815260200134815250908060018154018082558091505060019003906000526020600020906002020160009091909190915060008201518160000160006101000a81548173ffffffffffffffffffffffffffffffffffffffff021916908373ffffffffffffffffffffffffffffffffffffffff160217905550602082015181600101555050600c60009054906101000a900473ffffffffffffffffffffffffffffffffffffffff1673ffffffffffffffffffffffffffffffffffffffff1663a9059cbb33346040518363ffffffff1660e01b81526004016106019291906110a0565b602060405180830381600087803b15801561061b57600080fd5b505af115801561062f573d6000803e3d6000fd5b505050506040513d601f19601f820116820180604052508101906106539190610e7d565b5034600a60003373ffffffffffffffffffffffffffffffffffffffff1673ffffffffffffffffffffffffffffffffffffffff1681526020019081526020016000208190555034600b60003373ffffffffffffffffffffffffffffffffffffffff1673ffffffffffffffffffffffffffffffffffffffff16815260200190815260200160002081905550600c60009054906101000a900473ffffffffffffffffffffffffffffffffffffffff1673ffffffffffffffffffffffffffffffffffffffff1663095ea7b330346040518363ffffffff1660e01b81526004016107399291906110a0565b602060405180830381600087803b15801561075357600080fd5b505af1158015610767573d6000803e3d6000fd5b505050506040513d601f19601f8201168201806040525081019061078b9190610e7d565b50565b600c60009054906101000a900473ffffffffffffffffffffffffffffffffffffffff1673ffffffffffffffffffffffffffffffffffffffff166370a08231306040518263ffffffff1660e01b81526004016107e9919061104e565b60206040518083038186803b15801561080157600080fd5b505afa158015610815573d6000803e3d6000fd5b505050506040513d601f19601f820116820180604052508101906108399190610ed7565b600381905550565b600160009054906101000a900473ffffffffffffffffffffffffffffffffffffffff1673ffffffffffffffffffffffffffffffffffffffff163373ffffffffffffffffffffffffffffffffffffffff16146108d1576040517f08c379a00000000000000000000000000000000000000000000000000000000081526004016108c890611146565b60405180910390fd5b600160009054906101000a900473ffffffffffffffffffffffffffffffffffffffff1673ffffffffffffffffffffffffffffffffffffffff166108fc829081150290604051600060405180830381858888f19350505050158015610939573d6000803e3d6000fd5b5050565b6006546005544261094e919061133f565b11801561095c575060075447105b61099b576040517f08c379a000000000000000000000000000000000000000000000000000000000815260040161099290611126565b60405180910390fd5b3373ffffffffffffffffffffffffffffffffffffffff166108fc600a60003373ffffffffffffffffffffffffffffffffffffffff1673ffffffffffffffffffffffffffffffffffffffff168152602001908152602001600020549081150290604051600060405180830381858888f19350505050158015610a20573d6000803e3d6000fd5b50600c60009054906101000a900473ffffffffffffffffffffffffffffffffffffffff1673ffffffffffffffffffffffffffffffffffffffff166323b872dd3330600a60003373ffffffffffffffffffffffffffffffffffffffff1673ffffffffffffffffffffffffffffffffffffffff168152602001908152602001600020546040518463ffffffff1660e01b8152600401610abf93929190611069565b602060405180830381600087803b158015610ad957600080fd5b505af1158015610aed573d6000803e3d6000fd5b505050506040513d601f19601f82011682018060405250810190610b119190610e7d565b50565b600a6020528060005260406000206000915090505481565b60075481565b600d60009054906101000a900473ffffffffffffffffffffffffffffffffffffffff1681565b60035481565b600080600d60009054906101000a900473ffffffffffffffffffffffffffffffffffffffff1673ffffffffffffffffffffffffffffffffffffffff1663feaf968c6040518163ffffffff1660e01b815260040160a06040518083038186803b158015610bc957600080fd5b505afa158015610bdd573d6000803e3d6000fd5b505050506040513d601f19601f82011682018060405250810190610c019190610f04565b5050509150506402540be40081610c1891906111ce565b91505090565b60098181548110610c2e57600080fd5b90600052602060002090600202016000915090508060000160009054906101000a900473ffffffffffffffffffffffffffffffffffffffff16908060010154905082565b600160009054906101000a900473ffffffffffffffffffffffffffffffffffffffff1681565b600b6020528060005260406000206000915090505481565b600047905090565b600860009054906101000a900473ffffffffffffffffffffffffffffffffffffffff1681565b60055481565b600080610cef610b5e565b90506000670de0b6b3a76400008483610d0891906112e5565b610d12919061119d565b90508092505050919050565b600260009054906101000a900473ffffffffffffffffffffffffffffffffffffffff1681565b60008054610d5190611444565b80601f0160208091040260200160405190810160405280929190818152602001828054610d7d90611444565b8015610dca5780601f10610d9f57610100808354040283529160200191610dca565b820191906000526020600020905b815481529060010190602001808311610dad57829003601f168201915b505050505081565b600081359050610de1816115e0565b92915050565b600081519050610df6816115f7565b92915050565b600081519050610e0b8161160e565b92915050565b600081359050610e2081611625565b92915050565b600081519050610e3581611625565b92915050565b600081519050610e4a8161163c565b92915050565b600060208284031215610e6657610e65611503565b5b6000610e7484828501610dd2565b91505092915050565b600060208284031215610e9357610e92611503565b5b6000610ea184828501610de7565b91505092915050565b600060208284031215610ec057610ebf611503565b5b6000610ece84828501610e11565b91505092915050565b600060208284031215610eed57610eec611503565b5b6000610efb84828501610e26565b91505092915050565b600080600080600060a08688031215610f2057610f1f611503565b5b6000610f2e88828901610e3b565b9550506020610f3f88828901610dfc565b9450506040610f5088828901610e26565b9350506060610f6188828901610e26565b9250506080610f7288828901610e3b565b9150509295509295909350565b610f8881611373565b82525050565b610f97816113db565b82525050565b6000610fa882611181565b610fb2818561118c565b9350610fc2818560208601611411565b610fcb81611508565b840191505092915050565b6000610fe360198361118c565b9150610fee82611519565b602082019050919050565b6000611006602d8361118c565b915061101182611542565b604082019050919050565b600061102960218361118c565b915061103482611591565b604082019050919050565b611048816113bb565b82525050565b60006020820190506110636000830184610f7f565b92915050565b600060608201905061107e6000830186610f7f565b61108b6020830185610f7f565b611098604083018461103f565b949350505050565b60006040820190506110b56000830185610f7f565b6110c2602083018461103f565b9392505050565b60006020820190506110de6000830184610f8e565b92915050565b600060208201905081810360008301526110fe8184610f9d565b905092915050565b6000602082019050818103600083015261111f81610fd6565b9050919050565b6000602082019050818103600083015261113f81610ff9565b9050919050565b6000602082019050818103600083015261115f8161101c565b9050919050565b600060208201905061117b600083018461103f565b92915050565b600081519050919050565b600082825260208201905092915050565b60006111a8826113bb565b91506111b3836113bb565b9250826111c3576111c26114a5565b5b828204905092915050565b60006111d982611391565b91506111e483611391565b9250827f7fffffffffffffffffffffffffffffffffffffffffffffffffffffffffffffff048211600084136000841316161561122357611222611476565b5b817f800000000000000000000000000000000000000000000000000000000000000005831260008412600084131616156112605761125f611476565b5b827f8000000000000000000000000000000000000000000000000000000000000000058212600084136000841216161561129d5761129c611476565b5b827f7fffffffffffffffffffffffffffffffffffffffffffffffffffffffffffffff05821260008412600084121616156112da576112d9611476565b5b828202905092915050565b60006112f0826113bb565b91506112fb836113bb565b9250817fffffffffffffffffffffffffffffffffffffffffffffffffffffffffffffffff048311821515161561133457611333611476565b5b828202905092915050565b600061134a826113bb565b9150611355836113bb565b92508282101561136857611367611476565b5b828203905092915050565b600061137e8261139b565b9050919050565b60008115159050919050565b6000819050919050565b600073ffffffffffffffffffffffffffffffffffffffff82169050919050565b6000819050919050565b600069ffffffffffffffffffff82169050919050565b60006113e6826113ed565b9050919050565b60006113f8826113ff565b9050919050565b600061140a8261139b565b9050919050565b60005b8381101561142f578082015181840152602081019050611414565b8381111561143e576000848401525b50505050565b6000600282049050600182168061145c57607f821691505b602082108114156114705761146f6114d4565b5b50919050565b7f4e487b7100000000000000000000000000000000000000000000000000000000600052601160045260246000fd5b7f4e487b7100000000000000000000000000000000000000000000000000000000600052601260045260246000fd5b7f4e487b7100000000000000000000000000000000000000000000000000000000600052602260045260246000fd5b600080fd5b6000601f19601f8301169050919050565b7f54696d65204f76657220666f72207468652066756e64696e6700000000000000600082015250565b7f54686520476f616c206973206d656574206f7220546865207061796d656e742060008201527f6973207374696c6c206f70656e00000000000000000000000000000000000000602082015250565b7f596f7520446f6e277420686176652041636365737320746f205769746844726160008201527f7700000000000000000000000000000000000000000000000000000000000000602082015250565b6115e981611373565b81146115f457600080fd5b50565b61160081611385565b811461160b57600080fd5b50565b61161781611391565b811461162257600080fd5b50565b61162e816113bb565b811461163957600080fd5b50565b611645816113c5565b811461165057600080fd5b5056fea2646970667358221220bbd00b4a8974a5c23f7bdc47351c64851a1f28cc3ffca48975722499035718ba64736f6c63430008070033a2646970667358221220151f7e54b78cbd560337dbcba6c61a18e7c0331d4521aa3f453c0b08d08c252e64736f6c63430008070033",
  "devdoc": {
    "kind": "dev",
    "methods": {
      "allowance(address,address)": {
        "details": "See {IERC20-allowance}."
      },
      "approve(address,uint256)": {
        "details": "See {IERC20-approve}. NOTE: If `amount` is the maximum `uint256`, the allowance is not updated on `transferFrom`. This is semantically equivalent to an infinite approval. Requirements: - `spender` cannot be the zero address."
      },
      "balanceOf(address)": {
        "details": "See {IERC20-balanceOf}."
      },
      "burn(uint256)": {
        "details": "Destroys `amount` tokens from the caller. See {ERC20-_burn}."
      },
      "burnFrom(address,uint256)": {
        "details": "Destroys `amount` tokens from `account`, deducting from the caller's allowance. See {ERC20-_burn} and {ERC20-allowance}. Requirements: - the caller must have allowance for ``accounts``'s tokens of at least `amount`."
      },
      "cap()": {
        "details": "Returns the cap on the token's total supply."
      },
      "decimals()": {
        "details": "Returns the number of decimals used to get its user representation. For example, if `decimals` equals `2`, a balance of `505` tokens should be displayed to a user as `5.05` (`505 / 10 ** 2`). Tokens usually opt for a value of 18, imitating the relationship between Ether and Wei. This is the value {ERC20} uses, unless this function is overridden; NOTE: This information is only used for _display_ purposes: it in no way affects any of the arithmetic of the contract, including {IERC20-balanceOf} and {IERC20-transfer}."
      },
      "decreaseAllowance(address,uint256)": {
        "details": "Atomically decreases the allowance granted to `spender` by the caller. This is an alternative to {approve} that can be used as a mitigation for problems described in {IERC20-approve}. Emits an {Approval} event indicating the updated allowance. Requirements: - `spender` cannot be the zero address. - `spender` must have allowance for the caller of at least `subtractedValue`."
      },
      "increaseAllowance(address,uint256)": {
        "details": "Atomically increases the allowance granted to `spender` by the caller. This is an alternative to {approve} that can be used as a mitigation for problems described in {IERC20-approve}. Emits an {Approval} event indicating the updated allowance. Requirements: - `spender` cannot be the zero address."
      },
      "name()": {
        "details": "Returns the name of the token."
      },
      "symbol()": {
        "details": "Returns the symbol of the token, usually a shorter version of the name."
      },
      "totalSupply()": {
        "details": "See {IERC20-totalSupply}."
      },
      "transfer(address,uint256)": {
        "details": "See {IERC20-transfer}. Requirements: - `to` cannot be the zero address. - the caller must have a balance of at least `amount`."
      },
      "transferFrom(address,address,uint256)": {
        "details": "See {IERC20-transferFrom}. Emits an {Approval} event indicating the updated allowance. This is not required by the EIP. See the note at the beginning of {ERC20}. NOTE: Does not update the allowance if the current allowance is the maximum `uint256`. Requirements: - `from` and `to` cannot be the zero address. - `from` must have a balance of at least `amount`. - the caller must have allowance for ``from``'s tokens of at least `amount`."
      }
    },
    "version": 1
  },
  "userdoc": {
    "kind": "user",
    "methods": {},
    "version": 1
  },
  "storageLayout": {
    "storage": [
      {
        "astId": 61,
        "contract": "contracts/CrowdFunding.sol:CrowdFunding",
        "label": "_balances",
        "offset": 0,
        "slot": "0",
        "type": "t_mapping(t_address,t_uint256)"
      },
      {
        "astId": 67,
        "contract": "contracts/CrowdFunding.sol:CrowdFunding",
        "label": "_allowances",
        "offset": 0,
        "slot": "1",
        "type": "t_mapping(t_address,t_mapping(t_address,t_uint256))"
      },
      {
        "astId": 69,
        "contract": "contracts/CrowdFunding.sol:CrowdFunding",
        "label": "_totalSupply",
        "offset": 0,
        "slot": "2",
        "type": "t_uint256"
      },
      {
        "astId": 71,
        "contract": "contracts/CrowdFunding.sol:CrowdFunding",
        "label": "_name",
        "offset": 0,
        "slot": "3",
        "type": "t_string_storage"
      },
      {
        "astId": 73,
        "contract": "contracts/CrowdFunding.sol:CrowdFunding",
        "label": "_symbol",
        "offset": 0,
        "slot": "4",
        "type": "t_string_storage"
      },
      {
        "astId": 762,
        "contract": "contracts/CrowdFunding.sol:CrowdFunding",
        "label": "_cap",
        "offset": 0,
        "slot": "5",
        "type": "t_uint256"
      },
      {
        "astId": 1075,
        "contract": "contracts/CrowdFunding.sol:CrowdFunding",
        "label": "s_TokenName",
        "offset": 0,
        "slot": "6",
        "type": "t_string_storage"
      },
      {
        "astId": 1077,
        "contract": "contracts/CrowdFunding.sol:CrowdFunding",
        "label": "s_TokenSYM",
        "offset": 0,
        "slot": "7",
        "type": "t_string_storage"
      },
      {
        "astId": 1079,
        "contract": "contracts/CrowdFunding.sol:CrowdFunding",
        "label": "_cap",
        "offset": 0,
        "slot": "8",
        "type": "t_uint256"
      },
      {
        "astId": 1081,
        "contract": "contracts/CrowdFunding.sol:CrowdFunding",
        "label": "blockReward",
        "offset": 0,
        "slot": "9",
        "type": "t_uint256"
      },
      {
        "astId": 1083,
        "contract": "contracts/CrowdFunding.sol:CrowdFunding",
        "label": "TokenAddress",
        "offset": 0,
        "slot": "10",
        "type": "t_address"
      },
      {
        "astId": 887,
        "contract": "contracts/CrowdFunding.sol:CrowdFunding",
        "label": "count",
        "offset": 0,
        "slot": "11",
        "type": "t_uint256"
      },
      {
        "astId": 890,
        "contract": "contracts/CrowdFunding.sol:CrowdFunding",
        "label": "token",
        "offset": 0,
        "slot": "12",
        "type": "t_contract(ERC20Token)1267"
      },
      {
        "astId": 892,
        "contract": "contracts/CrowdFunding.sol:CrowdFunding",
        "label": "priceFeed",
        "offset": 0,
        "slot": "13",
        "type": "t_address"
      },
      {
        "astId": 894,
        "contract": "contracts/CrowdFunding.sol:CrowdFunding",
        "label": "mainContractAddress",
        "offset": 0,
        "slot": "14",
        "type": "t_address"
      },
      {
        "astId": 898,
        "contract": "contracts/CrowdFunding.sol:CrowdFunding",
        "label": "NewFund",
        "offset": 0,
        "slot": "15",
        "type": "t_array(t_struct(funding)884_storage)dyn_storage"
      },
      {
        "astId": 902,
        "contract": "contracts/CrowdFunding.sol:CrowdFunding",
        "label": "ContractFund",
        "offset": 0,
        "slot": "16",
        "type": "t_mapping(t_string_memory_ptr,t_address)"
      }
    ],
    "types": {
      "t_address": {
        "encoding": "inplace",
        "label": "address",
        "numberOfBytes": "20"
      },
      "t_array(t_struct(funding)884_storage)dyn_storage": {
        "base": "t_struct(funding)884_storage",
        "encoding": "dynamic_array",
        "label": "struct CrowdFunding.funding[]",
        "numberOfBytes": "32"
      },
      "t_contract(ERC20Token)1267": {
        "encoding": "inplace",
        "label": "contract ERC20Token",
        "numberOfBytes": "20"
      },
      "t_contract(FundContract)1575": {
        "encoding": "inplace",
        "label": "contract FundContract",
        "numberOfBytes": "20"
      },
      "t_mapping(t_address,t_mapping(t_address,t_uint256))": {
        "encoding": "mapping",
        "key": "t_address",
        "label": "mapping(address => mapping(address => uint256))",
        "numberOfBytes": "32",
        "value": "t_mapping(t_address,t_uint256)"
      },
      "t_mapping(t_address,t_uint256)": {
        "encoding": "mapping",
        "key": "t_address",
        "label": "mapping(address => uint256)",
        "numberOfBytes": "32",
        "value": "t_uint256"
      },
      "t_mapping(t_string_memory_ptr,t_address)": {
        "encoding": "mapping",
        "key": "t_string_memory_ptr",
        "label": "mapping(string => address)",
        "numberOfBytes": "32",
        "value": "t_address"
      },
      "t_string_memory_ptr": {
        "encoding": "bytes",
        "label": "string",
        "numberOfBytes": "32"
      },
      "t_string_storage": {
        "encoding": "bytes",
        "label": "string",
        "numberOfBytes": "32"
      },
      "t_struct(funding)884_storage": {
        "encoding": "inplace",
        "label": "struct CrowdFunding.funding",
        "members": [
          {
            "astId": 875,
            "contract": "contracts/CrowdFunding.sol:CrowdFunding",
            "label": "Name",
            "offset": 0,
            "slot": "0",
            "type": "t_contract(FundContract)1575"
          },
          {
            "astId": 877,
            "contract": "contracts/CrowdFunding.sol:CrowdFunding",
            "label": "ContractAddress",
            "offset": 0,
            "slot": "1",
            "type": "t_address"
          },
          {
            "astId": 879,
            "contract": "contracts/CrowdFunding.sol:CrowdFunding",
            "label": "ContractName",
            "offset": 0,
            "slot": "2",
            "type": "t_string_storage"
          },
          {
            "astId": 881,
            "contract": "contracts/CrowdFunding.sol:CrowdFunding",
            "label": "duration",
            "offset": 0,
            "slot": "3",
            "type": "t_uint256"
          },
          {
            "astId": 883,
            "contract": "contracts/CrowdFunding.sol:CrowdFunding",
            "label": "GoalAmount",
            "offset": 0,
            "slot": "4",
            "type": "t_uint256"
          }
        ],
        "numberOfBytes": "160"
      },
      "t_uint256": {
        "encoding": "inplace",
        "label": "uint256",
        "numberOfBytes": "32"
      }
    }
  }
}