{
  "_format": "hh-sol-artifact-1",
  "contractName": "FundContract",
  "sourceName": "contracts/FundContract.sol",
  "abi": [
    {
      "inputs": [
        {
          "internalType": "string",
          "name": "name",
          "type": "string"
        },
        {
          "internalType": "address",
          "name": "_Owner",
          "type": "address"
        },
        {
          "internalType": "address",
          "name": "_token",
          "type": "address"
        },
        {
          "internalType": "uint256",
          "name": "_duration",
          "type": "uint256"
        },
        {
          "internalType": "address",
          "name": "_priceFeed",
          "type": "address"
        }
      ],
      "stateMutability": "nonpayable",
      "type": "constructor"
    },
    {
      "inputs": [],
      "name": "ContractName",
      "outputs": [
        {
          "internalType": "string",
          "name": "",
          "type": "string"
        }
      ],
      "stateMutability": "view",
      "type": "function"
    },
    {
      "inputs": [],
      "name": "Owner",
      "outputs": [
        {
          "internalType": "address",
          "name": "",
          "type": "address"
        }
      ],
      "stateMutability": "view",
      "type": "function"
    },
    {
      "inputs": [
        {
          "internalType": "uint256",
          "name": "ethAmount",
          "type": "uint256"
        }
      ],
      "name": "calculateUSD",
      "outputs": [
        {
          "internalType": "uint256",
          "name": "",
          "type": "uint256"
        }
      ],
      "stateMutability": "nonpayable",
      "type": "function"
    },
    {
      "inputs": [],
      "name": "con",
      "outputs": [
        {
          "internalType": "address",
          "name": "",
          "type": "address"
        }
      ],
      "stateMutability": "view",
      "type": "function"
    },
    {
      "inputs": [],
      "name": "contractAddress",
      "outputs": [
        {
          "internalType": "address",
          "name": "",
          "type": "address"
        }
      ],
      "stateMutability": "view",
      "type": "function"
    },
    {
      "inputs": [],
      "name": "decimals",
      "outputs": [
        {
          "internalType": "uint8",
          "name": "",
          "type": "uint8"
        }
      ],
      "stateMutability": "view",
      "type": "function"
    },
    {
      "inputs": [],
      "name": "description",
      "outputs": [
        {
          "internalType": "string",
          "name": "",
          "type": "string"
        }
      ],
      "stateMutability": "view",
      "type": "function"
    },
    {
      "inputs": [],
      "name": "duration",
      "outputs": [
        {
          "internalType": "uint256",
          "name": "",
          "type": "uint256"
        }
      ],
      "stateMutability": "view",
      "type": "function"
    },
    {
      "inputs": [],
      "name": "erc20balance",
      "outputs": [
        {
          "internalType": "uint256",
          "name": "",
          "type": "uint256"
        }
      ],
      "stateMutability": "view",
      "type": "function"
    },
    {
      "inputs": [],
      "name": "erc20token",
      "outputs": [],
      "stateMutability": "nonpayable",
      "type": "function"
    },
    {
      "inputs": [
        {
          "internalType": "uint256",
          "name": "",
          "type": "uint256"
        }
      ],
      "name": "funding",
      "outputs": [
        {
          "internalType": "address",
          "name": "FunderAddress",
          "type": "address"
        },
        {
          "internalType": "uint256",
          "name": "FundingAmount",
          "type": "uint256"
        }
      ],
      "stateMutability": "view",
      "type": "function"
    },
    {
      "inputs": [],
      "name": "getLatestPrice",
      "outputs": [
        {
          "internalType": "uint256",
          "name": "",
          "type": "uint256"
        }
      ],
      "stateMutability": "view",
      "type": "function"
    },
    {
      "inputs": [
        {
          "internalType": "uint80",
          "name": "_roundId",
          "type": "uint80"
        }
      ],
      "name": "getRoundData",
      "outputs": [
        {
          "internalType": "uint80",
          "name": "roundId",
          "type": "uint80"
        },
        {
          "internalType": "int256",
          "name": "answer",
          "type": "int256"
        },
        {
          "internalType": "uint256",
          "name": "startedAt",
          "type": "uint256"
        },
        {
          "internalType": "uint256",
          "name": "updatedAt",
          "type": "uint256"
        },
        {
          "internalType": "uint80",
          "name": "answeredInRound",
          "type": "uint80"
        }
      ],
      "stateMutability": "view",
      "type": "function"
    },
    {
      "inputs": [],
      "name": "latestRoundData",
      "outputs": [
        {
          "internalType": "uint80",
          "name": "roundId",
          "type": "uint80"
        },
        {
          "internalType": "int256",
          "name": "answer",
          "type": "int256"
        },
        {
          "internalType": "uint256",
          "name": "startedAt",
          "type": "uint256"
        },
        {
          "internalType": "uint256",
          "name": "updatedAt",
          "type": "uint256"
        },
        {
          "internalType": "uint80",
          "name": "answeredInRound",
          "type": "uint80"
        }
      ],
      "stateMutability": "view",
      "type": "function"
    },
    {
      "inputs": [],
      "name": "pay",
      "outputs": [],
      "stateMutability": "payable",
      "type": "function"
    },
    {
      "inputs": [],
      "name": "startTimestamp",
      "outputs": [
        {
          "internalType": "uint256",
          "name": "",
          "type": "uint256"
        }
      ],
      "stateMutability": "view",
      "type": "function"
    },
    {
      "inputs": [],
      "name": "totalValue",
      "outputs": [
        {
          "internalType": "uint256",
          "name": "",
          "type": "uint256"
        }
      ],
      "stateMutability": "view",
      "type": "function"
    },
    {
      "inputs": [],
      "name": "version",
      "outputs": [
        {
          "internalType": "uint256",
          "name": "",
          "type": "uint256"
        }
      ],
      "stateMutability": "view",
      "type": "function"
    },
    {
      "inputs": [
        {
          "internalType": "uint256",
          "name": "amount",
          "type": "uint256"
        }
      ],
      "name": "withdraw",
      "outputs": [],
      "stateMutability": "nonpayable",
      "type": "function"
    }
  ],
  "bytecode": "0x60806040523480156200001157600080fd5b50604051620017d9380380620017d98339818101604052810190620000379190620002c9565b84600090805190602001906200004f9291906200016d565b5083600160006101000a81548173ffffffffffffffffffffffffffffffffffffffff021916908373ffffffffffffffffffffffffffffffffffffffff16021790555082600760006101000a81548173ffffffffffffffffffffffffffffffffffffffff021916908373ffffffffffffffffffffffffffffffffffffffff16021790555082600460006101000a81548173ffffffffffffffffffffffffffffffffffffffff021916908373ffffffffffffffffffffffffffffffffffffffff1602179055504260058190555080600860006101000a81548173ffffffffffffffffffffffffffffffffffffffff021916908373ffffffffffffffffffffffffffffffffffffffff16021790555081600681905550505050505062000566565b8280546200017b9062000443565b90600052602060002090601f0160209004810192826200019f5760008555620001eb565b82601f10620001ba57805160ff1916838001178555620001eb565b82800160010185558215620001eb579182015b82811115620001ea578251825591602001919060010190620001cd565b5b509050620001fa9190620001fe565b5090565b5b8082111562000219576000816000905550600101620001ff565b5090565b6000620002346200022e8462000399565b62000370565b90508281526020810184848401111562000253576200025262000512565b5b620002608482856200040d565b509392505050565b600081519050620002798162000532565b92915050565b600082601f8301126200029757620002966200050d565b5b8151620002a98482602086016200021d565b91505092915050565b600081519050620002c3816200054c565b92915050565b600080600080600060a08688031215620002e857620002e76200051c565b5b600086015167ffffffffffffffff81111562000309576200030862000517565b5b62000317888289016200027f565b95505060206200032a8882890162000268565b94505060406200033d8882890162000268565b93505060606200035088828901620002b2565b9250506080620003638882890162000268565b9150509295509295909350565b60006200037c6200038f565b90506200038a828262000479565b919050565b6000604051905090565b600067ffffffffffffffff821115620003b757620003b6620004de565b5b620003c28262000521565b9050602081019050919050565b6000620003dc82620003e3565b9050919050565b600073ffffffffffffffffffffffffffffffffffffffff82169050919050565b6000819050919050565b60005b838110156200042d57808201518184015260208101905062000410565b838111156200043d576000848401525b50505050565b600060028204905060018216806200045c57607f821691505b60208210811415620004735762000472620004af565b5b50919050565b620004848262000521565b810181811067ffffffffffffffff82111715620004a657620004a5620004de565b5b80604052505050565b7f4e487b7100000000000000000000000000000000000000000000000000000000600052602260045260246000fd5b7f4e487b7100000000000000000000000000000000000000000000000000000000600052604160045260246000fd5b600080fd5b600080fd5b600080fd5b600080fd5b6000601f19601f8301169050919050565b6200053d81620003cf565b81146200054957600080fd5b50565b620005578162000403565b81146200056357600080fd5b50565b61126380620005766000396000f3fe6080604052600436106101145760003560e01c80638e15f473116100a0578063e6fd48bc11610064578063e6fd48bc14610365578063ef2e274014610390578063f6b4dfb4146103cd578063fd79c2a9146103f8578063feaf968c1461042357610114565b80638e15f4731461026557806392ca60c1146102905780639a6fc8f5146102ce578063b4a99a4e1461030f578063d4c3eea01461033a57610114565b80632e1a7d4d116100e75780632e1a7d4d14610190578063313ce567146101b957806354fd4d50146101e45780637284e4161461020f5780638e0f914c1461023a57610114565b80630b2cb3bc146101195780630fb5a6b4146101445780631b9265b81461016f5780631dcea42714610179575b600080fd5b34801561012557600080fd5b5061012e610452565b60405161013b9190610cbb565b60405180910390f35b34801561015057600080fd5b50610159610478565b6040516101669190610d61565b60405180910390f35b61017761047e565b005b34801561018557600080fd5b5061018e61062a565b005b34801561019c57600080fd5b506101b760048036038101906101b29190610aef565b6106dd565b005b3480156101c557600080fd5b506101ce6107d9565b6040516101db9190610dcf565b60405180910390f35b3480156101f057600080fd5b506101f96107de565b6040516102069190610d61565b60405180910390f35b34801561021b57600080fd5b506102246107e3565b6040516102319190610cff565b60405180910390f35b34801561024657600080fd5b5061024f6107e8565b60405161025c9190610d61565b60405180910390f35b34801561027157600080fd5b5061027a6107ee565b6040516102879190610d61565b60405180910390f35b34801561029c57600080fd5b506102b760048036038101906102b29190610aef565b6108ae565b6040516102c5929190610cd6565b60405180910390f35b3480156102da57600080fd5b506102f560048036038101906102f09190610b49565b610902565b604051610306959493929190610d7c565b60405180910390f35b34801561031b57600080fd5b50610324610913565b6040516103319190610cbb565b60405180910390f35b34801561034657600080fd5b5061034f610939565b60405161035c9190610d61565b60405180910390f35b34801561037157600080fd5b5061037a610941565b6040516103879190610d61565b60405180910390f35b34801561039c57600080fd5b506103b760048036038101906103b29190610aef565b610947565b6040516103c49190610d61565b60405180910390f35b3480156103d957600080fd5b506103e2610981565b6040516103ef9190610cbb565b60405180910390f35b34801561040457600080fd5b5061040d6109a7565b60405161041a9190610cff565b60405180910390f35b34801561042f57600080fd5b50610438610a35565b604051610449959493929190610d7c565b60405180910390f35b600460009054906101000a900473ffffffffffffffffffffffffffffffffffffffff1681565b60065481565b6006546005544261048f9190610fa8565b106104cf576040517f08c379a00000000000000000000000000000000000000000000000000000000081526004016104c690610d21565b60405180910390fd5b600960405180604001604052803373ffffffffffffffffffffffffffffffffffffffff16815260200134815250908060018154018082558091505060019003906000526020600020906002020160009091909190915060008201518160000160006101000a81548173ffffffffffffffffffffffffffffffffffffffff021916908373ffffffffffffffffffffffffffffffffffffffff160217905550602082015181600101555050600760009054906101000a900473ffffffffffffffffffffffffffffffffffffffff1673ffffffffffffffffffffffffffffffffffffffff1663a9059cbb33346040518363ffffffff1660e01b81526004016105d5929190610cd6565b602060405180830381600087803b1580156105ef57600080fd5b505af1158015610603573d6000803e3d6000fd5b505050506040513d601f19601f820116820180604052508101906106279190610ac2565b50565b600760009054906101000a900473ffffffffffffffffffffffffffffffffffffffff1673ffffffffffffffffffffffffffffffffffffffff166370a08231306040518263ffffffff1660e01b81526004016106859190610cbb565b60206040518083038186803b15801561069d57600080fd5b505afa1580156106b1573d6000803e3d6000fd5b505050506040513d601f19601f820116820180604052508101906106d59190610b1c565b600381905550565b600160009054906101000a900473ffffffffffffffffffffffffffffffffffffffff1673ffffffffffffffffffffffffffffffffffffffff163373ffffffffffffffffffffffffffffffffffffffff161461076d576040517f08c379a000000000000000000000000000000000000000000000000000000000815260040161076490610d41565b60405180910390fd5b600160009054906101000a900473ffffffffffffffffffffffffffffffffffffffff1673ffffffffffffffffffffffffffffffffffffffff166108fc829081150290604051600060405180830381858888f193505050501580156107d5573d6000803e3d6000fd5b5050565b600090565b600090565b606090565b60035481565b600080600860009054906101000a900473ffffffffffffffffffffffffffffffffffffffff1673ffffffffffffffffffffffffffffffffffffffff1663feaf968c6040518163ffffffff1660e01b815260040160a06040518083038186803b15801561085957600080fd5b505afa15801561086d573d6000803e3d6000fd5b505050506040513d601f19601f820116820180604052508101906108919190610b76565b5050509150506402540be400816108a89190610e37565b91505090565b600981815481106108be57600080fd5b90600052602060002090600202016000915090508060000160009054906101000a900473ffffffffffffffffffffffffffffffffffffffff16908060010154905082565b600080600080600091939590929450565b600160009054906101000a900473ffffffffffffffffffffffffffffffffffffffff1681565b600047905090565b60055481565b6000806109526107ee565b90506000670de0b6b3a7640000848361096b9190610f4e565b6109759190610e06565b90508092505050919050565b600260009054906101000a900473ffffffffffffffffffffffffffffffffffffffff1681565b600080546109b490611084565b80601f01602080910402602001604051908101604052809291908181526020018280546109e090611084565b8015610a2d5780601f10610a0257610100808354040283529160200191610a2d565b820191906000526020600020905b815481529060010190602001808311610a1057829003601f168201915b505050505081565b60008060008060009091929394565b600081519050610a53816111d1565b92915050565b600081519050610a68816111e8565b92915050565b600081359050610a7d816111ff565b92915050565b600081519050610a92816111ff565b92915050565b600081359050610aa781611216565b92915050565b600081519050610abc81611216565b92915050565b600060208284031215610ad857610ad7611143565b5b6000610ae684828501610a44565b91505092915050565b600060208284031215610b0557610b04611143565b5b6000610b1384828501610a6e565b91505092915050565b600060208284031215610b3257610b31611143565b5b6000610b4084828501610a83565b91505092915050565b600060208284031215610b5f57610b5e611143565b5b6000610b6d84828501610a98565b91505092915050565b600080600080600060a08688031215610b9257610b91611143565b5b6000610ba088828901610aad565b9550506020610bb188828901610a59565b9450506040610bc288828901610a83565b9350506060610bd388828901610a83565b9250506080610be488828901610aad565b9150509295509295909350565b610bfa81610fdc565b82525050565b610c0981610ffa565b82525050565b6000610c1a82610dea565b610c248185610df5565b9350610c34818560208601611051565b610c3d81611148565b840191505092915050565b6000610c55601983610df5565b9150610c6082611159565b602082019050919050565b6000610c78602183610df5565b9150610c8382611182565b604082019050919050565b610c9781611024565b82525050565b610ca68161103b565b82525050565b610cb58161102e565b82525050565b6000602082019050610cd06000830184610bf1565b92915050565b6000604082019050610ceb6000830185610bf1565b610cf86020830184610c8e565b9392505050565b60006020820190508181036000830152610d198184610c0f565b905092915050565b60006020820190508181036000830152610d3a81610c48565b9050919050565b60006020820190508181036000830152610d5a81610c6b565b9050919050565b6000602082019050610d766000830184610c8e565b92915050565b600060a082019050610d916000830188610c9d565b610d9e6020830187610c00565b610dab6040830186610c8e565b610db86060830185610c8e565b610dc56080830184610c9d565b9695505050505050565b6000602082019050610de46000830184610cac565b92915050565b600081519050919050565b600082825260208201905092915050565b6000610e1182611024565b9150610e1c83611024565b925082610e2c57610e2b6110e5565b5b828204905092915050565b6000610e4282610ffa565b9150610e4d83610ffa565b9250827f7fffffffffffffffffffffffffffffffffffffffffffffffffffffffffffffff0482116000841360008413161615610e8c57610e8b6110b6565b5b817f80000000000000000000000000000000000000000000000000000000000000000583126000841260008413161615610ec957610ec86110b6565b5b827f80000000000000000000000000000000000000000000000000000000000000000582126000841360008412161615610f0657610f056110b6565b5b827f7fffffffffffffffffffffffffffffffffffffffffffffffffffffffffffffff0582126000841260008412161615610f4357610f426110b6565b5b828202905092915050565b6000610f5982611024565b9150610f6483611024565b9250817fffffffffffffffffffffffffffffffffffffffffffffffffffffffffffffffff0483118215151615610f9d57610f9c6110b6565b5b828202905092915050565b6000610fb382611024565b9150610fbe83611024565b925082821015610fd157610fd06110b6565b5b828203905092915050565b6000610fe782611004565b9050919050565b60008115159050919050565b6000819050919050565b600073ffffffffffffffffffffffffffffffffffffffff82169050919050565b6000819050919050565b600060ff82169050919050565b600069ffffffffffffffffffff82169050919050565b60005b8381101561106f578082015181840152602081019050611054565b8381111561107e576000848401525b50505050565b6000600282049050600182168061109c57607f821691505b602082108114156110b0576110af611114565b5b50919050565b7f4e487b7100000000000000000000000000000000000000000000000000000000600052601160045260246000fd5b7f4e487b7100000000000000000000000000000000000000000000000000000000600052601260045260246000fd5b7f4e487b7100000000000000000000000000000000000000000000000000000000600052602260045260246000fd5b600080fd5b6000601f19601f8301169050919050565b7f54696d65204f76657220666f72207468652066756e64696e6700000000000000600082015250565b7f596f7520446f6e277420686176652041636365737320746f205769746844726160008201527f7700000000000000000000000000000000000000000000000000000000000000602082015250565b6111da81610fee565b81146111e557600080fd5b50565b6111f181610ffa565b81146111fc57600080fd5b50565b61120881611024565b811461121357600080fd5b50565b61121f8161103b565b811461122a57600080fd5b5056fea26469706673582212206b55c58169e43065a03e03f03b1f78de06e1a0b0556b85e692c3b5984d55318764736f6c63430008070033",
  "linkReferences": {},
  "deployedLinkReferences": {}
}