{
  "_format": "hh-sol-artifact-1",
  "contractName": "FundContract",
  "sourceName": "contracts/FundContract.sol",
  "abi": [
    {
      "inputs": [
        {
          "internalType": "string",
          "name": "name",
          "type": "string"
        },
        {
          "internalType": "address",
          "name": "_Owner",
          "type": "address"
        },
        {
          "internalType": "address",
          "name": "_token",
          "type": "address"
        },
        {
          "internalType": "uint256",
          "name": "_duration",
          "type": "uint256"
        },
        {
          "internalType": "address",
          "name": "_priceFeed",
          "type": "address"
        },
        {
          "internalType": "uint256",
          "name": "_GoalAmount",
          "type": "uint256"
        }
      ],
      "stateMutability": "nonpayable",
      "type": "constructor"
    },
    {
      "inputs": [],
      "name": "CantWithDraw",
      "type": "error"
    },
    {
      "inputs": [],
      "name": "ContractName",
      "outputs": [
        {
          "internalType": "string",
          "name": "",
          "type": "string"
        }
      ],
      "stateMutability": "view",
      "type": "function"
    },
    {
      "inputs": [],
      "name": "GoalAmount",
      "outputs": [
        {
          "internalType": "uint256",
          "name": "",
          "type": "uint256"
        }
      ],
      "stateMutability": "view",
      "type": "function"
    },
    {
      "inputs": [],
      "name": "Owner",
      "outputs": [
        {
          "internalType": "address",
          "name": "",
          "type": "address"
        }
      ],
      "stateMutability": "view",
      "type": "function"
    },
    {
      "inputs": [
        {
          "internalType": "uint256",
          "name": "Amount",
          "type": "uint256"
        }
      ],
      "name": "calculateUSD",
      "outputs": [
        {
          "internalType": "uint256",
          "name": "",
          "type": "uint256"
        }
      ],
      "stateMutability": "nonpayable",
      "type": "function"
    },
    {
      "inputs": [],
      "name": "con",
      "outputs": [
        {
          "internalType": "address",
          "name": "",
          "type": "address"
        }
      ],
      "stateMutability": "view",
      "type": "function"
    },
    {
      "inputs": [],
      "name": "contractAddress",
      "outputs": [
        {
          "internalType": "address",
          "name": "",
          "type": "address"
        }
      ],
      "stateMutability": "view",
      "type": "function"
    },
    {
      "inputs": [],
      "name": "duration",
      "outputs": [
        {
          "internalType": "uint256",
          "name": "",
          "type": "uint256"
        }
      ],
      "stateMutability": "view",
      "type": "function"
    },
    {
      "inputs": [],
      "name": "erc20balance",
      "outputs": [
        {
          "internalType": "uint256",
          "name": "",
          "type": "uint256"
        }
      ],
      "stateMutability": "view",
      "type": "function"
    },
    {
      "inputs": [],
      "name": "erc20token",
      "outputs": [],
      "stateMutability": "nonpayable",
      "type": "function"
    },
    {
      "inputs": [
        {
          "internalType": "address",
          "name": "",
          "type": "address"
        }
      ],
      "name": "funderToAmount",
      "outputs": [
        {
          "internalType": "uint256",
          "name": "",
          "type": "uint256"
        }
      ],
      "stateMutability": "view",
      "type": "function"
    },
    {
      "inputs": [
        {
          "internalType": "address",
          "name": "",
          "type": "address"
        }
      ],
      "name": "funderToToken",
      "outputs": [
        {
          "internalType": "uint256",
          "name": "",
          "type": "uint256"
        }
      ],
      "stateMutability": "view",
      "type": "function"
    },
    {
      "inputs": [
        {
          "internalType": "uint256",
          "name": "",
          "type": "uint256"
        }
      ],
      "name": "funding",
      "outputs": [
        {
          "internalType": "address",
          "name": "FunderAddress",
          "type": "address"
        },
        {
          "internalType": "uint256",
          "name": "FundingAmount",
          "type": "uint256"
        }
      ],
      "stateMutability": "view",
      "type": "function"
    },
    {
      "inputs": [],
      "name": "getLatestPrice",
      "outputs": [
        {
          "internalType": "uint256",
          "name": "",
          "type": "uint256"
        }
      ],
      "stateMutability": "view",
      "type": "function"
    },
    {
      "inputs": [],
      "name": "pay",
      "outputs": [],
      "stateMutability": "payable",
      "type": "function"
    },
    {
      "inputs": [],
      "name": "priceFeed",
      "outputs": [
        {
          "internalType": "contract AggregatorV3Interface",
          "name": "",
          "type": "address"
        }
      ],
      "stateMutability": "view",
      "type": "function"
    },
    {
      "inputs": [],
      "name": "startTimestamp",
      "outputs": [
        {
          "internalType": "uint256",
          "name": "",
          "type": "uint256"
        }
      ],
      "stateMutability": "view",
      "type": "function"
    },
    {
      "inputs": [],
      "name": "totalValue",
      "outputs": [
        {
          "internalType": "uint256",
          "name": "",
          "type": "uint256"
        }
      ],
      "stateMutability": "view",
      "type": "function"
    },
    {
      "inputs": [],
      "name": "withdraw",
      "outputs": [],
      "stateMutability": "payable",
      "type": "function"
    },
    {
      "inputs": [
        {
          "internalType": "uint256",
          "name": "amount",
          "type": "uint256"
        }
      ],
      "name": "withdrawContractAmountOwner",
      "outputs": [],
      "stateMutability": "nonpayable",
      "type": "function"
    }
  ],
  "bytecode": "0x60806040523480156200001157600080fd5b5060405162001b5538038062001b558339818101604052810190620000379190620002d1565b85600090805190602001906200004f92919062000175565b5084600160006101000a81548173ffffffffffffffffffffffffffffffffffffffff021916908373ffffffffffffffffffffffffffffffffffffffff16021790555083600b60006101000a81548173ffffffffffffffffffffffffffffffffffffffff021916908373ffffffffffffffffffffffffffffffffffffffff16021790555083600460006101000a81548173ffffffffffffffffffffffffffffffffffffffff021916908373ffffffffffffffffffffffffffffffffffffffff1602179055504260058190555081600c60006101000a81548173ffffffffffffffffffffffffffffffffffffffff021916908373ffffffffffffffffffffffffffffffffffffffff160217905550826006819055508060078190555050505050505062000582565b82805462000183906200045f565b90600052602060002090601f016020900481019282620001a75760008555620001f3565b82601f10620001c257805160ff1916838001178555620001f3565b82800160010185558215620001f3579182015b82811115620001f2578251825591602001919060010190620001d5565b5b50905062000202919062000206565b5090565b5b808211156200022157600081600090555060010162000207565b5090565b60006200023c6200023684620003b5565b6200038c565b9050828152602081018484840111156200025b576200025a6200052e565b5b6200026884828562000429565b509392505050565b60008151905062000281816200054e565b92915050565b600082601f8301126200029f576200029e62000529565b5b8151620002b184826020860162000225565b91505092915050565b600081519050620002cb8162000568565b92915050565b60008060008060008060c08789031215620002f157620002f062000538565b5b600087015167ffffffffffffffff81111562000312576200031162000533565b5b6200032089828a0162000287565b96505060206200033389828a0162000270565b95505060406200034689828a0162000270565b94505060606200035989828a01620002ba565b93505060806200036c89828a0162000270565b92505060a06200037f89828a01620002ba565b9150509295509295509295565b600062000398620003ab565b9050620003a6828262000495565b919050565b6000604051905090565b600067ffffffffffffffff821115620003d357620003d2620004fa565b5b620003de826200053d565b9050602081019050919050565b6000620003f882620003ff565b9050919050565b600073ffffffffffffffffffffffffffffffffffffffff82169050919050565b6000819050919050565b60005b83811015620004495780820151818401526020810190506200042c565b8381111562000459576000848401525b50505050565b600060028204905060018216806200047857607f821691505b602082108114156200048f576200048e620004cb565b5b50919050565b620004a0826200053d565b810181811067ffffffffffffffff82111715620004c257620004c1620004fa565b5b80604052505050565b7f4e487b7100000000000000000000000000000000000000000000000000000000600052602260045260246000fd5b7f4e487b7100000000000000000000000000000000000000000000000000000000600052604160045260246000fd5b600080fd5b600080fd5b600080fd5b600080fd5b6000601f19601f8301169050919050565b6200055981620003eb565b81146200056557600080fd5b50565b62000573816200041f565b81146200057f57600080fd5b50565b6115c380620005926000396000f3fe6080604052600436106101145760003560e01c80638e0f914c116100a0578063d4c3eea011610064578063d4c3eea014610352578063e6fd48bc1461037d578063ef2e2740146103a8578063f6b4dfb4146103e5578063fd79c2a91461041057610114565b80638e0f914c146102565780638e15f4731461028157806392ca60c1146102ac578063b4a99a4e146102ea578063bc8fcb221461031557610114565b80631dcea427116100e75780631dcea427146101a25780633ccfd60b146101b95780634407e1e8146101c357806344ab323b14610200578063741bef1a1461022b57610114565b80630b2cb3bc146101195780630fb5a6b414610144578063192c6ec51461016f5780631b9265b814610198575b600080fd5b34801561012557600080fd5b5061012e61043b565b60405161013b9190610f99565b60405180910390f35b34801561015057600080fd5b50610159610461565b604051610166919061107a565b60405180910390f35b34801561017b57600080fd5b5061019660048036038101906101919190610df5565b610467565b005b6101a06105c2565b005b3480156101ae57600080fd5b506101b7610806565b005b6101c16108b9565b005b3480156101cf57600080fd5b506101ea60048036038101906101e59190610d9b565b610a85565b6040516101f7919061107a565b60405180910390f35b34801561020c57600080fd5b50610215610a9d565b604051610222919061107a565b60405180910390f35b34801561023757600080fd5b50610240610aa3565b60405161024d9190610fdd565b60405180910390f35b34801561026257600080fd5b5061026b610ac9565b604051610278919061107a565b60405180910390f35b34801561028d57600080fd5b50610296610acf565b6040516102a3919061107a565b60405180910390f35b3480156102b857600080fd5b506102d360048036038101906102ce9190610df5565b610b8f565b6040516102e1929190610fb4565b60405180910390f35b3480156102f657600080fd5b506102ff610be3565b60405161030c9190610f99565b60405180910390f35b34801561032157600080fd5b5061033c60048036038101906103379190610d9b565b610c09565b604051610349919061107a565b60405180910390f35b34801561035e57600080fd5b50610367610c21565b604051610374919061107a565b60405180910390f35b34801561038957600080fd5b50610392610c29565b60405161039f919061107a565b60405180910390f35b3480156103b457600080fd5b506103cf60048036038101906103ca9190610df5565b610c2f565b6040516103dc919061107a565b60405180910390f35b3480156103f157600080fd5b506103fa610c69565b6040516104079190610f99565b60405180910390f35b34801561041c57600080fd5b50610425610c8f565b6040516104329190610ff8565b60405180910390f35b600460009054906101000a900473ffffffffffffffffffffffffffffffffffffffff1681565b60065481565b600160009054906101000a900473ffffffffffffffffffffffffffffffffffffffff1673ffffffffffffffffffffffffffffffffffffffff163373ffffffffffffffffffffffffffffffffffffffff16146104f7576040517f08c379a00000000000000000000000000000000000000000000000000000000081526004016104ee9061105a565b60405180910390fd5b600654600554426105089190611253565b11801561051757506007544710155b610556576040517f08c379a000000000000000000000000000000000000000000000000000000000815260040161054d9061101a565b60405180910390fd5b600160009054906101000a900473ffffffffffffffffffffffffffffffffffffffff1673ffffffffffffffffffffffffffffffffffffffff166108fc829081150290604051600060405180830381858888f193505050501580156105be573d6000803e3d6000fd5b5050565b600654600554426105d39190611253565b10610613576040517f08c379a000000000000000000000000000000000000000000000000000000000815260040161060a9061103a565b60405180910390fd5b600860405180604001604052803373ffffffffffffffffffffffffffffffffffffffff16815260200134815250908060018154018082558091505060019003906000526020600020906002020160009091909190915060008201518160000160006101000a81548173ffffffffffffffffffffffffffffffffffffffff021916908373ffffffffffffffffffffffffffffffffffffffff160217905550602082015181600101555050600b60009054906101000a900473ffffffffffffffffffffffffffffffffffffffff1673ffffffffffffffffffffffffffffffffffffffff1663a9059cbb3361070434610c2f565b6040518363ffffffff1660e01b8152600401610721929190610fb4565b602060405180830381600087803b15801561073b57600080fd5b505af115801561074f573d6000803e3d6000fd5b505050506040513d601f19601f820116820180604052508101906107739190610dc8565b5034600960003373ffffffffffffffffffffffffffffffffffffffff1673ffffffffffffffffffffffffffffffffffffffff168152602001908152602001600020819055506107c134610c2f565b600a60003373ffffffffffffffffffffffffffffffffffffffff1673ffffffffffffffffffffffffffffffffffffffff16815260200190815260200160002081905550565b600b60009054906101000a900473ffffffffffffffffffffffffffffffffffffffff1673ffffffffffffffffffffffffffffffffffffffff166370a08231306040518263ffffffff1660e01b81526004016108619190610f99565b60206040518083038186803b15801561087957600080fd5b505afa15801561088d573d6000803e3d6000fd5b505050506040513d601f19601f820116820180604052508101906108b19190610e22565b600381905550565b600654600554426108ca9190611253565b1180156108d8575060075447105b15610a5357600b60009054906101000a900473ffffffffffffffffffffffffffffffffffffffff1673ffffffffffffffffffffffffffffffffffffffff1663a9059cbb30600960003373ffffffffffffffffffffffffffffffffffffffff1673ffffffffffffffffffffffffffffffffffffffff168152602001908152602001600020546040518363ffffffff1660e01b8152600401610979929190610fb4565b602060405180830381600087803b15801561099357600080fd5b505af11580156109a7573d6000803e3d6000fd5b505050506040513d601f19601f820116820180604052508101906109cb9190610dc8565b503373ffffffffffffffffffffffffffffffffffffffff166108fc600960003373ffffffffffffffffffffffffffffffffffffffff1673ffffffffffffffffffffffffffffffffffffffff168152602001908152602001600020549081150290604051600060405180830381858888f19350505050158015610a51573d6000803e3d6000fd5b505b6040517fcedc3d6b00000000000000000000000000000000000000000000000000000000815260040160405180910390fd5b60096020528060005260406000206000915090505481565b60075481565b600c60009054906101000a900473ffffffffffffffffffffffffffffffffffffffff1681565b60035481565b600080600c60009054906101000a900473ffffffffffffffffffffffffffffffffffffffff1673ffffffffffffffffffffffffffffffffffffffff1663feaf968c6040518163ffffffff1660e01b815260040160a06040518083038186803b158015610b3a57600080fd5b505afa158015610b4e573d6000803e3d6000fd5b505050506040513d601f19601f82011682018060405250810190610b729190610e4f565b5050509150506402540be40081610b8991906110e2565b91505090565b60088181548110610b9f57600080fd5b90600052602060002090600202016000915090508060000160009054906101000a900473ffffffffffffffffffffffffffffffffffffffff16908060010154905082565b600160009054906101000a900473ffffffffffffffffffffffffffffffffffffffff1681565b600a6020528060005260406000206000915090505481565b600047905090565b60055481565b600080610c3a610acf565b90506000670de0b6b3a76400008483610c5391906111f9565b610c5d91906110b1565b90508092505050919050565b600260009054906101000a900473ffffffffffffffffffffffffffffffffffffffff1681565b60008054610c9c90611358565b80601f0160208091040260200160405190810160405280929190818152602001828054610cc890611358565b8015610d155780601f10610cea57610100808354040283529160200191610d15565b820191906000526020600020905b815481529060010190602001808311610cf857829003601f168201915b505050505081565b600081359050610d2c8161151a565b92915050565b600081519050610d4181611531565b92915050565b600081519050610d5681611548565b92915050565b600081359050610d6b8161155f565b92915050565b600081519050610d808161155f565b92915050565b600081519050610d9581611576565b92915050565b600060208284031215610db157610db0611417565b5b6000610dbf84828501610d1d565b91505092915050565b600060208284031215610dde57610ddd611417565b5b6000610dec84828501610d32565b91505092915050565b600060208284031215610e0b57610e0a611417565b5b6000610e1984828501610d5c565b91505092915050565b600060208284031215610e3857610e37611417565b5b6000610e4684828501610d71565b91505092915050565b600080600080600060a08688031215610e6b57610e6a611417565b5b6000610e7988828901610d86565b9550506020610e8a88828901610d47565b9450506040610e9b88828901610d71565b9350506060610eac88828901610d71565b9250506080610ebd88828901610d86565b9150509295509295909350565b610ed381611287565b82525050565b610ee2816112ef565b82525050565b6000610ef382611095565b610efd81856110a0565b9350610f0d818560208601611325565b610f168161141c565b840191505092915050565b6000610f2e6044836110a0565b9150610f398261142d565b606082019050919050565b6000610f516019836110a0565b9150610f5c826114a2565b602082019050919050565b6000610f746021836110a0565b9150610f7f826114cb565b604082019050919050565b610f93816112cf565b82525050565b6000602082019050610fae6000830184610eca565b92915050565b6000604082019050610fc96000830185610eca565b610fd66020830184610f8a565b9392505050565b6000602082019050610ff26000830184610ed9565b92915050565b600060208201905081810360008301526110128184610ee8565b905092915050565b6000602082019050818103600083015261103381610f21565b9050919050565b6000602082019050818103600083015261105381610f44565b9050919050565b6000602082019050818103600083015261107381610f67565b9050919050565b600060208201905061108f6000830184610f8a565b92915050565b600081519050919050565b600082825260208201905092915050565b60006110bc826112cf565b91506110c7836112cf565b9250826110d7576110d66113b9565b5b828204905092915050565b60006110ed826112a5565b91506110f8836112a5565b9250827f7fffffffffffffffffffffffffffffffffffffffffffffffffffffffffffffff04821160008413600084131616156111375761113661138a565b5b817f800000000000000000000000000000000000000000000000000000000000000005831260008412600084131616156111745761117361138a565b5b827f800000000000000000000000000000000000000000000000000000000000000005821260008413600084121616156111b1576111b061138a565b5b827f7fffffffffffffffffffffffffffffffffffffffffffffffffffffffffffffff05821260008412600084121616156111ee576111ed61138a565b5b828202905092915050565b6000611204826112cf565b915061120f836112cf565b9250817fffffffffffffffffffffffffffffffffffffffffffffffffffffffffffffffff04831182151516156112485761124761138a565b5b828202905092915050565b600061125e826112cf565b9150611269836112cf565b92508282101561127c5761127b61138a565b5b828203905092915050565b6000611292826112af565b9050919050565b60008115159050919050565b6000819050919050565b600073ffffffffffffffffffffffffffffffffffffffff82169050919050565b6000819050919050565b600069ffffffffffffffffffff82169050919050565b60006112fa82611301565b9050919050565b600061130c82611313565b9050919050565b600061131e826112af565b9050919050565b60005b83811015611343578082015181840152602081019050611328565b83811115611352576000848401525b50505050565b6000600282049050600182168061137057607f821691505b60208210811415611384576113836113e8565b5b50919050565b7f4e487b7100000000000000000000000000000000000000000000000000000000600052601160045260246000fd5b7f4e487b7100000000000000000000000000000000000000000000000000000000600052601260045260246000fd5b7f4e487b7100000000000000000000000000000000000000000000000000000000600052602260045260246000fd5b600080fd5b6000601f19601f8301169050919050565b7f53696e636520436f6e74726163742063616e27742066756c6c66696c6c20746860008201527f6520676f616c2c2046756e646572206d6f6e65792077696c6c2062652072657060208201527f6179656400000000000000000000000000000000000000000000000000000000604082015250565b7f54696d65204f76657220666f72207468652066756e64696e6700000000000000600082015250565b7f596f7520446f6e277420686176652041636365737320746f205769746844726160008201527f7700000000000000000000000000000000000000000000000000000000000000602082015250565b61152381611287565b811461152e57600080fd5b50565b61153a81611299565b811461154557600080fd5b50565b611551816112a5565b811461155c57600080fd5b50565b611568816112cf565b811461157357600080fd5b50565b61157f816112d9565b811461158a57600080fd5b5056fea26469706673582212201f48fb9281e13db53ca4bed344f6c8c5db1735d8ebe8bba24b416eeea7fdd90f64736f6c63430008070033",
  "linkReferences": {},
  "deployedLinkReferences": {}
}