{
  "_format": "hh-sol-artifact-1",
  "contractName": "FundContract",
  "sourceName": "contracts/FundContract.sol",
  "abi": [
    {
      "inputs": [
        {
          "internalType": "string",
          "name": "name",
          "type": "string"
        },
        {
          "internalType": "address",
          "name": "_Owner",
          "type": "address"
        },
        {
          "internalType": "address",
          "name": "_token",
          "type": "address"
        },
        {
          "internalType": "uint256",
          "name": "_duration",
          "type": "uint256"
        },
        {
          "internalType": "address",
          "name": "_priceFeed",
          "type": "address"
        },
        {
          "internalType": "uint256",
          "name": "_GoalAmount",
          "type": "uint256"
        },
        {
          "internalType": "address",
          "name": "mainContractAddress",
          "type": "address"
        }
      ],
      "stateMutability": "nonpayable",
      "type": "constructor"
    },
    {
      "inputs": [],
      "name": "ContractName",
      "outputs": [
        {
          "internalType": "string",
          "name": "",
          "type": "string"
        }
      ],
      "stateMutability": "view",
      "type": "function"
    },
    {
      "inputs": [],
      "name": "GoalAmount",
      "outputs": [
        {
          "internalType": "uint256",
          "name": "",
          "type": "uint256"
        }
      ],
      "stateMutability": "view",
      "type": "function"
    },
    {
      "inputs": [],
      "name": "Owner",
      "outputs": [
        {
          "internalType": "address",
          "name": "",
          "type": "address"
        }
      ],
      "stateMutability": "view",
      "type": "function"
    },
    {
      "inputs": [
        {
          "internalType": "uint256",
          "name": "Amount",
          "type": "uint256"
        }
      ],
      "name": "calculateUSD",
      "outputs": [
        {
          "internalType": "uint256",
          "name": "",
          "type": "uint256"
        }
      ],
      "stateMutability": "nonpayable",
      "type": "function"
    },
    {
      "inputs": [],
      "name": "con",
      "outputs": [
        {
          "internalType": "address",
          "name": "",
          "type": "address"
        }
      ],
      "stateMutability": "view",
      "type": "function"
    },
    {
      "inputs": [],
      "name": "contractAddress",
      "outputs": [
        {
          "internalType": "address",
          "name": "",
          "type": "address"
        }
      ],
      "stateMutability": "view",
      "type": "function"
    },
    {
      "inputs": [],
      "name": "duration",
      "outputs": [
        {
          "internalType": "uint256",
          "name": "",
          "type": "uint256"
        }
      ],
      "stateMutability": "view",
      "type": "function"
    },
    {
      "inputs": [],
      "name": "erc20balance",
      "outputs": [
        {
          "internalType": "uint256",
          "name": "",
          "type": "uint256"
        }
      ],
      "stateMutability": "view",
      "type": "function"
    },
    {
      "inputs": [],
      "name": "erc20token",
      "outputs": [],
      "stateMutability": "nonpayable",
      "type": "function"
    },
    {
      "inputs": [
        {
          "internalType": "address",
          "name": "",
          "type": "address"
        }
      ],
      "name": "funderToAmount",
      "outputs": [
        {
          "internalType": "uint256",
          "name": "",
          "type": "uint256"
        }
      ],
      "stateMutability": "view",
      "type": "function"
    },
    {
      "inputs": [
        {
          "internalType": "address",
          "name": "",
          "type": "address"
        }
      ],
      "name": "funderToToken",
      "outputs": [
        {
          "internalType": "uint256",
          "name": "",
          "type": "uint256"
        }
      ],
      "stateMutability": "view",
      "type": "function"
    },
    {
      "inputs": [
        {
          "internalType": "uint256",
          "name": "",
          "type": "uint256"
        }
      ],
      "name": "funding",
      "outputs": [
        {
          "internalType": "address",
          "name": "FunderAddress",
          "type": "address"
        },
        {
          "internalType": "uint256",
          "name": "FundingAmount",
          "type": "uint256"
        }
      ],
      "stateMutability": "view",
      "type": "function"
    },
    {
      "inputs": [],
      "name": "getLatestPrice",
      "outputs": [
        {
          "internalType": "uint256",
          "name": "",
          "type": "uint256"
        }
      ],
      "stateMutability": "view",
      "type": "function"
    },
    {
      "inputs": [],
      "name": "mainContractAddress",
      "outputs": [
        {
          "internalType": "address",
          "name": "",
          "type": "address"
        }
      ],
      "stateMutability": "view",
      "type": "function"
    },
    {
      "inputs": [],
      "name": "pay",
      "outputs": [],
      "stateMutability": "payable",
      "type": "function"
    },
    {
      "inputs": [],
      "name": "priceFeed",
      "outputs": [
        {
          "internalType": "contract AggregatorV3Interface",
          "name": "",
          "type": "address"
        }
      ],
      "stateMutability": "view",
      "type": "function"
    },
    {
      "inputs": [],
      "name": "startTimestamp",
      "outputs": [
        {
          "internalType": "uint256",
          "name": "",
          "type": "uint256"
        }
      ],
      "stateMutability": "view",
      "type": "function"
    },
    {
      "inputs": [],
      "name": "totalValue",
      "outputs": [
        {
          "internalType": "uint256",
          "name": "",
          "type": "uint256"
        }
      ],
      "stateMutability": "view",
      "type": "function"
    },
    {
      "inputs": [
        {
          "internalType": "uint256",
          "name": "amount",
          "type": "uint256"
        }
      ],
      "name": "withdraw",
      "outputs": [],
      "stateMutability": "nonpayable",
      "type": "function"
    },
    {
      "inputs": [],
      "name": "withdraw",
      "outputs": [],
      "stateMutability": "nonpayable",
      "type": "function"
    }
  ],
  "bytecode": "0x60806040523480156200001157600080fd5b5060405162001c3338038062001c338339818101604052810190620000379190620002d2565b86600090805190602001906200004f92919062000176565b5085600160006101000a81548173ffffffffffffffffffffffffffffffffffffffff021916908373ffffffffffffffffffffffffffffffffffffffff16021790555084600c60006101000a81548173ffffffffffffffffffffffffffffffffffffffff021916908373ffffffffffffffffffffffffffffffffffffffff16021790555084600460006101000a81548173ffffffffffffffffffffffffffffffffffffffff021916908373ffffffffffffffffffffffffffffffffffffffff1602179055504260058190555082600d60006101000a81548173ffffffffffffffffffffffffffffffffffffffff021916908373ffffffffffffffffffffffffffffffffffffffff1602179055508360068190555081600781905550505050505050506200059a565b828054620001849062000477565b90600052602060002090601f016020900481019282620001a85760008555620001f4565b82601f10620001c357805160ff1916838001178555620001f4565b82800160010185558215620001f4579182015b82811115620001f3578251825591602001919060010190620001d6565b5b50905062000203919062000207565b5090565b5b808211156200022257600081600090555060010162000208565b5090565b60006200023d6200023784620003cd565b620003a4565b9050828152602081018484840111156200025c576200025b62000546565b5b6200026984828562000441565b509392505050565b600081519050620002828162000566565b92915050565b600082601f830112620002a0576200029f62000541565b5b8151620002b284826020860162000226565b91505092915050565b600081519050620002cc8162000580565b92915050565b600080600080600080600060e0888a031215620002f457620002f362000550565b5b600088015167ffffffffffffffff8111156200031557620003146200054b565b5b620003238a828b0162000288565b9750506020620003368a828b0162000271565b9650506040620003498a828b0162000271565b95505060606200035c8a828b01620002bb565b94505060806200036f8a828b0162000271565b93505060a0620003828a828b01620002bb565b92505060c0620003958a828b0162000271565b91505092959891949750929550565b6000620003b0620003c3565b9050620003be8282620004ad565b919050565b6000604051905090565b600067ffffffffffffffff821115620003eb57620003ea62000512565b5b620003f68262000555565b9050602081019050919050565b6000620004108262000417565b9050919050565b600073ffffffffffffffffffffffffffffffffffffffff82169050919050565b6000819050919050565b60005b838110156200046157808201518184015260208101905062000444565b8381111562000471576000848401525b50505050565b600060028204905060018216806200049057607f821691505b60208210811415620004a757620004a6620004e3565b5b50919050565b620004b88262000555565b810181811067ffffffffffffffff82111715620004da57620004d962000512565b5b80604052505050565b7f4e487b7100000000000000000000000000000000000000000000000000000000600052602260045260246000fd5b7f4e487b7100000000000000000000000000000000000000000000000000000000600052604160045260246000fd5b600080fd5b600080fd5b600080fd5b600080fd5b6000601f19601f8301169050919050565b620005718162000403565b81146200057d57600080fd5b50565b6200058b8162000437565b81146200059757600080fd5b50565b61168980620005aa6000396000f3fe60806040526004361061011f5760003560e01c80638e15f473116100a0578063da6b735611610064578063da6b735614610395578063e6fd48bc146103c0578063ef2e2740146103eb578063f6b4dfb414610428578063fd79c2a9146104535761011f565b80638e15f4731461029957806392ca60c1146102c4578063b4a99a4e14610302578063bc8fcb221461032d578063d4c3eea01461036a5761011f565b80633ccfd60b116100e75780633ccfd60b146101c45780634407e1e8146101db57806344ab323b14610218578063741bef1a146102435780638e0f914c1461026e5761011f565b80630b2cb3bc146101245780630fb5a6b41461014f5780631b9265b81461017a5780631dcea427146101845780632e1a7d4d1461019b575b600080fd5b34801561013057600080fd5b5061013961047e565b604051610146919061104e565b60405180910390f35b34801561015b57600080fd5b506101646104a4565b6040516101719190611166565b60405180910390f35b6101826104aa565b005b34801561019057600080fd5b5061019961078e565b005b3480156101a757600080fd5b506101c260048036038101906101bd9190610eaa565b610841565b005b3480156101d057600080fd5b506101d961093d565b005b3480156101e757600080fd5b5061020260048036038101906101fd9190610e50565b610b14565b60405161020f9190611166565b60405180910390f35b34801561022457600080fd5b5061022d610b2c565b60405161023a9190611166565b60405180910390f35b34801561024f57600080fd5b50610258610b32565b60405161026591906110c9565b60405180910390f35b34801561027a57600080fd5b50610283610b58565b6040516102909190611166565b60405180910390f35b3480156102a557600080fd5b506102ae610b5e565b6040516102bb9190611166565b60405180910390f35b3480156102d057600080fd5b506102eb60048036038101906102e69190610eaa565b610c1e565b6040516102f99291906110a0565b60405180910390f35b34801561030e57600080fd5b50610317610c72565b604051610324919061104e565b60405180910390f35b34801561033957600080fd5b50610354600480360381019061034f9190610e50565b610c98565b6040516103619190611166565b60405180910390f35b34801561037657600080fd5b5061037f610cb0565b60405161038c9190611166565b60405180910390f35b3480156103a157600080fd5b506103aa610cb8565b6040516103b7919061104e565b60405180910390f35b3480156103cc57600080fd5b506103d5610cde565b6040516103e29190611166565b60405180910390f35b3480156103f757600080fd5b50610412600480360381019061040d9190610eaa565b610ce4565b60405161041f9190611166565b60405180910390f35b34801561043457600080fd5b5061043d610d1e565b60405161044a919061104e565b60405180910390f35b34801561045f57600080fd5b50610468610d44565b60405161047591906110e4565b60405180910390f35b600460009054906101000a900473ffffffffffffffffffffffffffffffffffffffff1681565b60065481565b600654600554426104bb919061133f565b106104fb576040517f08c379a00000000000000000000000000000000000000000000000000000000081526004016104f290611106565b60405180910390fd5b600960405180604001604052803373ffffffffffffffffffffffffffffffffffffffff16815260200134815250908060018154018082558091505060019003906000526020600020906002020160009091909190915060008201518160000160006101000a81548173ffffffffffffffffffffffffffffffffffffffff021916908373ffffffffffffffffffffffffffffffffffffffff160217905550602082015181600101555050600c60009054906101000a900473ffffffffffffffffffffffffffffffffffffffff1673ffffffffffffffffffffffffffffffffffffffff1663a9059cbb33346040518363ffffffff1660e01b81526004016106019291906110a0565b602060405180830381600087803b15801561061b57600080fd5b505af115801561062f573d6000803e3d6000fd5b505050506040513d601f19601f820116820180604052508101906106539190610e7d565b5034600a60003373ffffffffffffffffffffffffffffffffffffffff1673ffffffffffffffffffffffffffffffffffffffff1681526020019081526020016000208190555034600b60003373ffffffffffffffffffffffffffffffffffffffff1673ffffffffffffffffffffffffffffffffffffffff16815260200190815260200160002081905550600c60009054906101000a900473ffffffffffffffffffffffffffffffffffffffff1673ffffffffffffffffffffffffffffffffffffffff1663095ea7b330346040518363ffffffff1660e01b81526004016107399291906110a0565b602060405180830381600087803b15801561075357600080fd5b505af1158015610767573d6000803e3d6000fd5b505050506040513d601f19601f8201168201806040525081019061078b9190610e7d565b50565b600c60009054906101000a900473ffffffffffffffffffffffffffffffffffffffff1673ffffffffffffffffffffffffffffffffffffffff166370a08231306040518263ffffffff1660e01b81526004016107e9919061104e565b60206040518083038186803b15801561080157600080fd5b505afa158015610815573d6000803e3d6000fd5b505050506040513d601f19601f820116820180604052508101906108399190610ed7565b600381905550565b600160009054906101000a900473ffffffffffffffffffffffffffffffffffffffff1673ffffffffffffffffffffffffffffffffffffffff163373ffffffffffffffffffffffffffffffffffffffff16146108d1576040517f08c379a00000000000000000000000000000000000000000000000000000000081526004016108c890611146565b60405180910390fd5b600160009054906101000a900473ffffffffffffffffffffffffffffffffffffffff1673ffffffffffffffffffffffffffffffffffffffff166108fc829081150290604051600060405180830381858888f19350505050158015610939573d6000803e3d6000fd5b5050565b6006546005544261094e919061133f565b11801561095c575060075447105b61099b576040517f08c379a000000000000000000000000000000000000000000000000000000000815260040161099290611126565b60405180910390fd5b3373ffffffffffffffffffffffffffffffffffffffff166108fc600a60003373ffffffffffffffffffffffffffffffffffffffff1673ffffffffffffffffffffffffffffffffffffffff168152602001908152602001600020549081150290604051600060405180830381858888f19350505050158015610a20573d6000803e3d6000fd5b50600c60009054906101000a900473ffffffffffffffffffffffffffffffffffffffff1673ffffffffffffffffffffffffffffffffffffffff166323b872dd3330600a60003373ffffffffffffffffffffffffffffffffffffffff1673ffffffffffffffffffffffffffffffffffffffff168152602001908152602001600020546040518463ffffffff1660e01b8152600401610abf93929190611069565b602060405180830381600087803b158015610ad957600080fd5b505af1158015610aed573d6000803e3d6000fd5b505050506040513d601f19601f82011682018060405250810190610b119190610e7d565b50565b600a6020528060005260406000206000915090505481565b60075481565b600d60009054906101000a900473ffffffffffffffffffffffffffffffffffffffff1681565b60035481565b600080600d60009054906101000a900473ffffffffffffffffffffffffffffffffffffffff1673ffffffffffffffffffffffffffffffffffffffff1663feaf968c6040518163ffffffff1660e01b815260040160a06040518083038186803b158015610bc957600080fd5b505afa158015610bdd573d6000803e3d6000fd5b505050506040513d601f19601f82011682018060405250810190610c019190610f04565b5050509150506402540be40081610c1891906111ce565b91505090565b60098181548110610c2e57600080fd5b90600052602060002090600202016000915090508060000160009054906101000a900473ffffffffffffffffffffffffffffffffffffffff16908060010154905082565b600160009054906101000a900473ffffffffffffffffffffffffffffffffffffffff1681565b600b6020528060005260406000206000915090505481565b600047905090565b600860009054906101000a900473ffffffffffffffffffffffffffffffffffffffff1681565b60055481565b600080610cef610b5e565b90506000670de0b6b3a76400008483610d0891906112e5565b610d12919061119d565b90508092505050919050565b600260009054906101000a900473ffffffffffffffffffffffffffffffffffffffff1681565b60008054610d5190611444565b80601f0160208091040260200160405190810160405280929190818152602001828054610d7d90611444565b8015610dca5780601f10610d9f57610100808354040283529160200191610dca565b820191906000526020600020905b815481529060010190602001808311610dad57829003601f168201915b505050505081565b600081359050610de1816115e0565b92915050565b600081519050610df6816115f7565b92915050565b600081519050610e0b8161160e565b92915050565b600081359050610e2081611625565b92915050565b600081519050610e3581611625565b92915050565b600081519050610e4a8161163c565b92915050565b600060208284031215610e6657610e65611503565b5b6000610e7484828501610dd2565b91505092915050565b600060208284031215610e9357610e92611503565b5b6000610ea184828501610de7565b91505092915050565b600060208284031215610ec057610ebf611503565b5b6000610ece84828501610e11565b91505092915050565b600060208284031215610eed57610eec611503565b5b6000610efb84828501610e26565b91505092915050565b600080600080600060a08688031215610f2057610f1f611503565b5b6000610f2e88828901610e3b565b9550506020610f3f88828901610dfc565b9450506040610f5088828901610e26565b9350506060610f6188828901610e26565b9250506080610f7288828901610e3b565b9150509295509295909350565b610f8881611373565b82525050565b610f97816113db565b82525050565b6000610fa882611181565b610fb2818561118c565b9350610fc2818560208601611411565b610fcb81611508565b840191505092915050565b6000610fe360198361118c565b9150610fee82611519565b602082019050919050565b6000611006602d8361118c565b915061101182611542565b604082019050919050565b600061102960218361118c565b915061103482611591565b604082019050919050565b611048816113bb565b82525050565b60006020820190506110636000830184610f7f565b92915050565b600060608201905061107e6000830186610f7f565b61108b6020830185610f7f565b611098604083018461103f565b949350505050565b60006040820190506110b56000830185610f7f565b6110c2602083018461103f565b9392505050565b60006020820190506110de6000830184610f8e565b92915050565b600060208201905081810360008301526110fe8184610f9d565b905092915050565b6000602082019050818103600083015261111f81610fd6565b9050919050565b6000602082019050818103600083015261113f81610ff9565b9050919050565b6000602082019050818103600083015261115f8161101c565b9050919050565b600060208201905061117b600083018461103f565b92915050565b600081519050919050565b600082825260208201905092915050565b60006111a8826113bb565b91506111b3836113bb565b9250826111c3576111c26114a5565b5b828204905092915050565b60006111d982611391565b91506111e483611391565b9250827f7fffffffffffffffffffffffffffffffffffffffffffffffffffffffffffffff048211600084136000841316161561122357611222611476565b5b817f800000000000000000000000000000000000000000000000000000000000000005831260008412600084131616156112605761125f611476565b5b827f8000000000000000000000000000000000000000000000000000000000000000058212600084136000841216161561129d5761129c611476565b5b827f7fffffffffffffffffffffffffffffffffffffffffffffffffffffffffffffff05821260008412600084121616156112da576112d9611476565b5b828202905092915050565b60006112f0826113bb565b91506112fb836113bb565b9250817fffffffffffffffffffffffffffffffffffffffffffffffffffffffffffffffff048311821515161561133457611333611476565b5b828202905092915050565b600061134a826113bb565b9150611355836113bb565b92508282101561136857611367611476565b5b828203905092915050565b600061137e8261139b565b9050919050565b60008115159050919050565b6000819050919050565b600073ffffffffffffffffffffffffffffffffffffffff82169050919050565b6000819050919050565b600069ffffffffffffffffffff82169050919050565b60006113e6826113ed565b9050919050565b60006113f8826113ff565b9050919050565b600061140a8261139b565b9050919050565b60005b8381101561142f578082015181840152602081019050611414565b8381111561143e576000848401525b50505050565b6000600282049050600182168061145c57607f821691505b602082108114156114705761146f6114d4565b5b50919050565b7f4e487b7100000000000000000000000000000000000000000000000000000000600052601160045260246000fd5b7f4e487b7100000000000000000000000000000000000000000000000000000000600052601260045260246000fd5b7f4e487b7100000000000000000000000000000000000000000000000000000000600052602260045260246000fd5b600080fd5b6000601f19601f8301169050919050565b7f54696d65204f76657220666f72207468652066756e64696e6700000000000000600082015250565b7f54686520476f616c206973206d656574206f7220546865207061796d656e742060008201527f6973207374696c6c206f70656e00000000000000000000000000000000000000602082015250565b7f596f7520446f6e277420686176652041636365737320746f205769746844726160008201527f7700000000000000000000000000000000000000000000000000000000000000602082015250565b6115e981611373565b81146115f457600080fd5b50565b61160081611385565b811461160b57600080fd5b50565b61161781611391565b811461162257600080fd5b50565b61162e816113bb565b811461163957600080fd5b50565b611645816113c5565b811461165057600080fd5b5056fea2646970667358221220bbd00b4a8974a5c23f7bdc47351c64851a1f28cc3ffca48975722499035718ba64736f6c63430008070033",
  "linkReferences": {},
  "deployedLinkReferences": {}
}