{
  "address": "0xB538529eBdcB0291B5c565596b951aC210C10301",
  "abi": [
    {
      "inputs": [
        {
          "internalType": "uint256",
          "name": "initalSupply",
          "type": "uint256"
        },
        {
          "internalType": "string",
          "name": "TokenName",
          "type": "string"
        },
        {
          "internalType": "string",
          "name": "TokenSYM",
          "type": "string"
        },
        {
          "internalType": "uint256",
          "name": "cap",
          "type": "uint256"
        },
        {
          "internalType": "uint256",
          "name": "reawrd",
          "type": "uint256"
        }
      ],
      "stateMutability": "nonpayable",
      "type": "constructor"
    },
    {
      "anonymous": false,
      "inputs": [
        {
          "indexed": true,
          "internalType": "address",
          "name": "owner",
          "type": "address"
        },
        {
          "indexed": true,
          "internalType": "address",
          "name": "spender",
          "type": "address"
        },
        {
          "indexed": false,
          "internalType": "uint256",
          "name": "value",
          "type": "uint256"
        }
      ],
      "name": "Approval",
      "type": "event"
    },
    {
      "anonymous": false,
      "inputs": [
        {
          "indexed": true,
          "internalType": "address",
          "name": "from",
          "type": "address"
        },
        {
          "indexed": true,
          "internalType": "address",
          "name": "to",
          "type": "address"
        },
        {
          "indexed": false,
          "internalType": "uint256",
          "name": "value",
          "type": "uint256"
        }
      ],
      "name": "Transfer",
      "type": "event"
    },
    {
      "inputs": [
        {
          "internalType": "uint256",
          "name": "reward",
          "type": "uint256"
        }
      ],
      "name": "_blockReward",
      "outputs": [],
      "stateMutability": "nonpayable",
      "type": "function"
    },
    {
      "inputs": [
        {
          "internalType": "address",
          "name": "owner",
          "type": "address"
        },
        {
          "internalType": "address",
          "name": "spender",
          "type": "address"
        }
      ],
      "name": "allowance",
      "outputs": [
        {
          "internalType": "uint256",
          "name": "",
          "type": "uint256"
        }
      ],
      "stateMutability": "view",
      "type": "function"
    },
    {
      "inputs": [
        {
          "internalType": "address",
          "name": "spender",
          "type": "address"
        },
        {
          "internalType": "uint256",
          "name": "amount",
          "type": "uint256"
        }
      ],
      "name": "approve",
      "outputs": [
        {
          "internalType": "bool",
          "name": "",
          "type": "bool"
        }
      ],
      "stateMutability": "nonpayable",
      "type": "function"
    },
    {
      "inputs": [
        {
          "internalType": "address",
          "name": "account",
          "type": "address"
        }
      ],
      "name": "balanceOf",
      "outputs": [
        {
          "internalType": "uint256",
          "name": "",
          "type": "uint256"
        }
      ],
      "stateMutability": "view",
      "type": "function"
    },
    {
      "inputs": [],
      "name": "blockReward",
      "outputs": [
        {
          "internalType": "uint256",
          "name": "",
          "type": "uint256"
        }
      ],
      "stateMutability": "view",
      "type": "function"
    },
    {
      "inputs": [
        {
          "internalType": "uint256",
          "name": "amount",
          "type": "uint256"
        }
      ],
      "name": "burn",
      "outputs": [],
      "stateMutability": "nonpayable",
      "type": "function"
    },
    {
      "inputs": [
        {
          "internalType": "address",
          "name": "account",
          "type": "address"
        },
        {
          "internalType": "uint256",
          "name": "amount",
          "type": "uint256"
        }
      ],
      "name": "burnFrom",
      "outputs": [],
      "stateMutability": "nonpayable",
      "type": "function"
    },
    {
      "inputs": [],
      "name": "cap",
      "outputs": [
        {
          "internalType": "uint256",
          "name": "",
          "type": "uint256"
        }
      ],
      "stateMutability": "view",
      "type": "function"
    },
    {
      "inputs": [],
      "name": "decimals",
      "outputs": [
        {
          "internalType": "uint8",
          "name": "",
          "type": "uint8"
        }
      ],
      "stateMutability": "view",
      "type": "function"
    },
    {
      "inputs": [
        {
          "internalType": "address",
          "name": "spender",
          "type": "address"
        },
        {
          "internalType": "uint256",
          "name": "subtractedValue",
          "type": "uint256"
        }
      ],
      "name": "decreaseAllowance",
      "outputs": [
        {
          "internalType": "bool",
          "name": "",
          "type": "bool"
        }
      ],
      "stateMutability": "nonpayable",
      "type": "function"
    },
    {
      "inputs": [
        {
          "internalType": "address",
          "name": "spender",
          "type": "address"
        },
        {
          "internalType": "uint256",
          "name": "addedValue",
          "type": "uint256"
        }
      ],
      "name": "increaseAllowance",
      "outputs": [
        {
          "internalType": "bool",
          "name": "",
          "type": "bool"
        }
      ],
      "stateMutability": "nonpayable",
      "type": "function"
    },
    {
      "inputs": [],
      "name": "name",
      "outputs": [
        {
          "internalType": "string",
          "name": "",
          "type": "string"
        }
      ],
      "stateMutability": "view",
      "type": "function"
    },
    {
      "inputs": [],
      "name": "symbol",
      "outputs": [
        {
          "internalType": "string",
          "name": "",
          "type": "string"
        }
      ],
      "stateMutability": "view",
      "type": "function"
    },
    {
      "inputs": [],
      "name": "totalSupply",
      "outputs": [
        {
          "internalType": "uint256",
          "name": "",
          "type": "uint256"
        }
      ],
      "stateMutability": "view",
      "type": "function"
    },
    {
      "inputs": [
        {
          "internalType": "address",
          "name": "to",
          "type": "address"
        },
        {
          "internalType": "uint256",
          "name": "amount",
          "type": "uint256"
        }
      ],
      "name": "transfer",
      "outputs": [
        {
          "internalType": "bool",
          "name": "",
          "type": "bool"
        }
      ],
      "stateMutability": "nonpayable",
      "type": "function"
    },
    {
      "inputs": [
        {
          "internalType": "address",
          "name": "from",
          "type": "address"
        },
        {
          "internalType": "address",
          "name": "to",
          "type": "address"
        },
        {
          "internalType": "uint256",
          "name": "amount",
          "type": "uint256"
        }
      ],
      "name": "transferFrom",
      "outputs": [
        {
          "internalType": "bool",
          "name": "",
          "type": "bool"
        }
      ],
      "stateMutability": "nonpayable",
      "type": "function"
    }
  ],
  "transactionHash": "0x17c0838646095aa0824958d7a3988738d395756c2ffdf28081dc4a7953eb8f13",
  "args": [
    "70000000000000000000",
    "ERECOIN",
    "ERE",
    "100000000000000000000",
    "5000000"
  ],
  "numDeployments": 1,
  "solcInputHash": "6278abe08f7afdff892242b6819707d8",
  "bytecode": "0x60c06040523480156200001157600080fd5b506040516200272738038062002727833981810160405281019062000037919062000639565b818484816003908051906020019062000052929190620004f4565b5080600490805190602001906200006b929190620004f4565b50505060008111620000b4576040517f08c379a0000000000000000000000000000000000000000000000000000000008152600401620000ab9062000785565b60405180910390fd5b80600581905550503373ffffffffffffffffffffffffffffffffffffffff1660808173ffffffffffffffffffffffffffffffffffffffff1660601b8152505083600690805190602001906200010b929190620004f4565b50826007908051906020019062000124929190620004f4565b5081600881905550806009819055508460a081815250506200014d33866200015860201b60201c565b505050505062000ac8565b62000168620001e960201b60201c565b816200017e620001f360201b620004181760201c565b6200018a919062000878565b1115620001ce576040517f08c379a0000000000000000000000000000000000000000000000000000000008152600401620001c590620007a7565b60405180910390fd5b620001e58282620001fd60201b620007f01760201c565b5050565b6000600554905090565b6000600254905090565b6200020d620001e960201b60201c565b8162000223620001f360201b620004181760201c565b6200022f919062000878565b111562000273576040517f08c379a00000000000000000000000000000000000000000000000000000000081526004016200026a90620007a7565b60405180910390fd5b6200028a82826200028e60201b6200085a1760201c565b5050565b600073ffffffffffffffffffffffffffffffffffffffff168273ffffffffffffffffffffffffffffffffffffffff16141562000301576040517f08c379a0000000000000000000000000000000000000000000000000000000008152600401620002f890620007c9565b60405180910390fd5b6200031560008383620003fc60201b60201c565b806002600082825462000329919062000878565b92505081905550806000808473ffffffffffffffffffffffffffffffffffffffff1673ffffffffffffffffffffffffffffffffffffffff168152602001908152602001600020600082825401925050819055508173ffffffffffffffffffffffffffffffffffffffff16600073ffffffffffffffffffffffffffffffffffffffff167fddf252ad1be2c89b69c2b068fc378daa952ba7f163c4a11628f55a4df523b3ef83604051620003dc9190620007eb565b60405180910390a3620003f860008383620004d460201b60201c565b5050565b600073ffffffffffffffffffffffffffffffffffffffff168373ffffffffffffffffffffffffffffffffffffffff16141580156200046657504173ffffffffffffffffffffffffffffffffffffffff168273ffffffffffffffffffffffffffffffffffffffff1614155b8015620004a05750600073ffffffffffffffffffffffffffffffffffffffff168273ffffffffffffffffffffffffffffffffffffffff1614155b15620004b757620004b6620004d960201b60201c565b5b620004cf838383620004ef60201b620009b11760201c565b505050565b505050565b620004ed416009546200015860201b60201c565b565b505050565b828054620005029062000915565b90600052602060002090601f01602090048101928262000526576000855562000572565b82601f106200054157805160ff191683800117855562000572565b8280016001018555821562000572579182015b828111156200057157825182559160200191906001019062000554565b5b50905062000581919062000585565b5090565b5b80821115620005a057600081600090555060010162000586565b5090565b6000620005bb620005b58462000831565b62000808565b905082815260208101848484011115620005da57620005d962000a13565b5b620005e7848285620008df565b509392505050565b600082601f83011262000607576200060662000a0e565b5b815162000619848260208601620005a4565b91505092915050565b600081519050620006338162000aae565b92915050565b600080600080600060a0868803121562000658576200065762000a1d565b5b6000620006688882890162000622565b955050602086015167ffffffffffffffff8111156200068c576200068b62000a18565b5b6200069a88828901620005ef565b945050604086015167ffffffffffffffff811115620006be57620006bd62000a18565b5b620006cc88828901620005ef565b9350506060620006df8882890162000622565b9250506080620006f28882890162000622565b9150509295509295909350565b60006200070e60158362000867565b91506200071b8262000a33565b602082019050919050565b60006200073560198362000867565b9150620007428262000a5c565b602082019050919050565b60006200075c601f8362000867565b9150620007698262000a85565b602082019050919050565b6200077f81620008d5565b82525050565b60006020820190508181036000830152620007a081620006ff565b9050919050565b60006020820190508181036000830152620007c28162000726565b9050919050565b60006020820190508181036000830152620007e4816200074d565b9050919050565b600060208201905062000802600083018462000774565b92915050565b60006200081462000827565b90506200082282826200094b565b919050565b6000604051905090565b600067ffffffffffffffff8211156200084f576200084e620009df565b5b6200085a8262000a22565b9050602081019050919050565b600082825260208201905092915050565b60006200088582620008d5565b91506200089283620008d5565b9250827fffffffffffffffffffffffffffffffffffffffffffffffffffffffffffffffff03821115620008ca57620008c962000981565b5b828201905092915050565b6000819050919050565b60005b83811015620008ff578082015181840152602081019050620008e2565b838111156200090f576000848401525b50505050565b600060028204905060018216806200092e57607f821691505b60208210811415620009455762000944620009b0565b5b50919050565b620009568262000a22565b810181811067ffffffffffffffff82111715620009785762000977620009df565b5b80604052505050565b7f4e487b7100000000000000000000000000000000000000000000000000000000600052601160045260246000fd5b7f4e487b7100000000000000000000000000000000000000000000000000000000600052602260045260246000fd5b7f4e487b7100000000000000000000000000000000000000000000000000000000600052604160045260246000fd5b600080fd5b600080fd5b600080fd5b600080fd5b6000601f19601f8301169050919050565b7f45524332304361707065643a2063617020697320300000000000000000000000600082015250565b7f45524332304361707065643a2063617020657863656564656400000000000000600082015250565b7f45524332303a206d696e7420746f20746865207a65726f206164647265737300600082015250565b62000ab981620008d5565b811462000ac557600080fd5b50565b60805160601c60a051611c3262000af5600039600050506000818161049d01526106d30152611c326000f3fe608060405234801561001057600080fd5b50600436106101005760003560e01c806342966c6811610097578063a457c2d711610066578063a457c2d7146102b1578063a9059cbb146102e1578063c2f2f16614610311578063dd62ed3e1461032d57610100565b806342966c681461022b57806370a082311461024757806379cc67901461027757806395d89b411461029357610100565b806323b872dd116100d357806323b872dd1461018f578063313ce567146101bf578063355274ea146101dd57806339509351146101fb57610100565b806306fdde0314610105578063095ea7b3146101235780630ac168a11461015357806318160ddd14610171575b600080fd5b61010d61035d565b60405161011a9190611514565b60405180910390f35b61013d60048036038101906101389190611282565b6103ef565b60405161014a91906114f9565b60405180910390f35b61015b610412565b60405161016891906116b6565b60405180910390f35b610179610418565b60405161018691906116b6565b60405180910390f35b6101a960048036038101906101a4919061122f565b610422565b6040516101b691906114f9565b60405180910390f35b6101c7610451565b6040516101d491906116d1565b60405180910390f35b6101e561045a565b6040516101f291906116b6565b60405180910390f35b61021560048036038101906102109190611282565b610464565b60405161022291906114f9565b60405180910390f35b610245600480360381019061024091906112c2565b61049b565b005b610261600480360381019061025c91906111c2565b61053d565b60405161026e91906116b6565b60405180910390f35b610291600480360381019061028c9190611282565b610585565b005b61029b6105a5565b6040516102a89190611514565b60405180910390f35b6102cb60048036038101906102c69190611282565b610637565b6040516102d891906114f9565b60405180910390f35b6102fb60048036038101906102f69190611282565b6106ae565b60405161030891906114f9565b60405180910390f35b61032b600480360381019061032691906112c2565b6106d1565b005b610347600480360381019061034291906111ef565b610769565b60405161035491906116b6565b60405180910390f35b60606003805461036c906117e6565b80601f0160208091040260200160405190810160405280929190818152602001828054610398906117e6565b80156103e55780601f106103ba576101008083540402835291602001916103e5565b820191906000526020600020905b8154815290600101906020018083116103c857829003601f168201915b5050505050905090565b6000806103fa6109b6565b90506104078185856109be565b600191505092915050565b60095481565b6000600254905090565b60008061042d6109b6565b905061043a858285610b89565b610445858585610c15565b60019150509392505050565b60006012905090565b6000600554905090565b60008061046f6109b6565b90506104908185856104818589610769565b61048b9190611708565b6109be565b600191505092915050565b7f000000000000000000000000000000000000000000000000000000000000000073ffffffffffffffffffffffffffffffffffffffff163373ffffffffffffffffffffffffffffffffffffffff1614610529576040517f08c379a0000000000000000000000000000000000000000000000000000000008152600401610520906115d6565b60405180910390fd5b61053a6105346109b6565b82610e8d565b50565b60008060008373ffffffffffffffffffffffffffffffffffffffff1673ffffffffffffffffffffffffffffffffffffffff168152602001908152602001600020549050919050565b610597826105916109b6565b83610b89565b6105a18282610e8d565b5050565b6060600480546105b4906117e6565b80601f01602080910402602001604051908101604052809291908181526020018280546105e0906117e6565b801561062d5780601f106106025761010080835404028352916020019161062d565b820191906000526020600020905b81548152906001019060200180831161061057829003601f168201915b5050505050905090565b6000806106426109b6565b905060006106508286610769565b905083811015610695576040517f08c379a000000000000000000000000000000000000000000000000000000000815260040161068c90611676565b60405180910390fd5b6106a282868684036109be565b60019250505092915050565b6000806106b96109b6565b90506106c6818585610c15565b600191505092915050565b7f000000000000000000000000000000000000000000000000000000000000000073ffffffffffffffffffffffffffffffffffffffff163373ffffffffffffffffffffffffffffffffffffffff161461075f576040517f08c379a0000000000000000000000000000000000000000000000000000000008152600401610756906115d6565b60405180910390fd5b8060098190555050565b6000600160008473ffffffffffffffffffffffffffffffffffffffff1673ffffffffffffffffffffffffffffffffffffffff16815260200190815260200160002060008373ffffffffffffffffffffffffffffffffffffffff1673ffffffffffffffffffffffffffffffffffffffff16815260200190815260200160002054905092915050565b6107f861045a565b81610801610418565b61080b9190611708565b111561084c576040517f08c379a000000000000000000000000000000000000000000000000000000000815260040161084390611636565b60405180910390fd5b610856828261085a565b5050565b600073ffffffffffffffffffffffffffffffffffffffff168273ffffffffffffffffffffffffffffffffffffffff1614156108ca576040517f08c379a00000000000000000000000000000000000000000000000000000000081526004016108c190611696565b60405180910390fd5b6108d66000838361105b565b80600260008282546108e89190611708565b92505081905550806000808473ffffffffffffffffffffffffffffffffffffffff1673ffffffffffffffffffffffffffffffffffffffff168152602001908152602001600020600082825401925050819055508173ffffffffffffffffffffffffffffffffffffffff16600073ffffffffffffffffffffffffffffffffffffffff167fddf252ad1be2c89b69c2b068fc378daa952ba7f163c4a11628f55a4df523b3ef8360405161099991906116b6565b60405180910390a36109ad6000838361111b565b5050565b505050565b600033905090565b600073ffffffffffffffffffffffffffffffffffffffff168373ffffffffffffffffffffffffffffffffffffffff161415610a2e576040517f08c379a0000000000000000000000000000000000000000000000000000000008152600401610a2590611656565b60405180910390fd5b600073ffffffffffffffffffffffffffffffffffffffff168273ffffffffffffffffffffffffffffffffffffffff161415610a9e576040517f08c379a0000000000000000000000000000000000000000000000000000000008152600401610a9590611576565b60405180910390fd5b80600160008573ffffffffffffffffffffffffffffffffffffffff1673ffffffffffffffffffffffffffffffffffffffff16815260200190815260200160002060008473ffffffffffffffffffffffffffffffffffffffff1673ffffffffffffffffffffffffffffffffffffffff168152602001908152602001600020819055508173ffffffffffffffffffffffffffffffffffffffff168373ffffffffffffffffffffffffffffffffffffffff167f8c5be1e5ebec7d5bd14f71427d1e84f3dd0314c0f7b2291e5b200ac8c7c3b92583604051610b7c91906116b6565b60405180910390a3505050565b6000610b958484610769565b90507fffffffffffffffffffffffffffffffffffffffffffffffffffffffffffffffff8114610c0f5781811015610c01576040517f08c379a0000000000000000000000000000000000000000000000000000000008152600401610bf890611596565b60405180910390fd5b610c0e84848484036109be565b5b50505050565b600073ffffffffffffffffffffffffffffffffffffffff168373ffffffffffffffffffffffffffffffffffffffff161415610c85576040517f08c379a0000000000000000000000000000000000000000000000000000000008152600401610c7c90611616565b60405180910390fd5b600073ffffffffffffffffffffffffffffffffffffffff168273ffffffffffffffffffffffffffffffffffffffff161415610cf5576040517f08c379a0000000000000000000000000000000000000000000000000000000008152600401610cec90611536565b60405180910390fd5b610d0083838361105b565b60008060008573ffffffffffffffffffffffffffffffffffffffff1673ffffffffffffffffffffffffffffffffffffffff16815260200190815260200160002054905081811015610d86576040517f08c379a0000000000000000000000000000000000000000000000000000000008152600401610d7d906115b6565b60405180910390fd5b8181036000808673ffffffffffffffffffffffffffffffffffffffff1673ffffffffffffffffffffffffffffffffffffffff16815260200190815260200160002081905550816000808573ffffffffffffffffffffffffffffffffffffffff1673ffffffffffffffffffffffffffffffffffffffff168152602001908152602001600020600082825401925050819055508273ffffffffffffffffffffffffffffffffffffffff168473ffffffffffffffffffffffffffffffffffffffff167fddf252ad1be2c89b69c2b068fc378daa952ba7f163c4a11628f55a4df523b3ef84604051610e7491906116b6565b60405180910390a3610e8784848461111b565b50505050565b600073ffffffffffffffffffffffffffffffffffffffff168273ffffffffffffffffffffffffffffffffffffffff161415610efd576040517f08c379a0000000000000000000000000000000000000000000000000000000008152600401610ef4906115f6565b60405180910390fd5b610f098260008361105b565b60008060008473ffffffffffffffffffffffffffffffffffffffff1673ffffffffffffffffffffffffffffffffffffffff16815260200190815260200160002054905081811015610f8f576040517f08c379a0000000000000000000000000000000000000000000000000000000008152600401610f8690611556565b60405180910390fd5b8181036000808573ffffffffffffffffffffffffffffffffffffffff1673ffffffffffffffffffffffffffffffffffffffff1681526020019081526020016000208190555081600260008282540392505081905550600073ffffffffffffffffffffffffffffffffffffffff168373ffffffffffffffffffffffffffffffffffffffff167fddf252ad1be2c89b69c2b068fc378daa952ba7f163c4a11628f55a4df523b3ef8460405161104291906116b6565b60405180910390a36110568360008461111b565b505050565b600073ffffffffffffffffffffffffffffffffffffffff168373ffffffffffffffffffffffffffffffffffffffff16141580156110c457504173ffffffffffffffffffffffffffffffffffffffff168273ffffffffffffffffffffffffffffffffffffffff1614155b80156110fd5750600073ffffffffffffffffffffffffffffffffffffffff168273ffffffffffffffffffffffffffffffffffffffff1614155b1561110b5761110a611120565b5b6111168383836109b1565b505050565b505050565b61112c4160095461112e565b565b61113661045a565b8161113f610418565b6111499190611708565b111561118a576040517f08c379a000000000000000000000000000000000000000000000000000000000815260040161118190611636565b60405180910390fd5b61119482826107f0565b5050565b6000813590506111a781611bce565b92915050565b6000813590506111bc81611be5565b92915050565b6000602082840312156111d8576111d7611876565b5b60006111e684828501611198565b91505092915050565b6000806040838503121561120657611205611876565b5b600061121485828601611198565b925050602061122585828601611198565b9150509250929050565b60008060006060848603121561124857611247611876565b5b600061125686828701611198565b935050602061126786828701611198565b9250506040611278868287016111ad565b9150509250925092565b6000806040838503121561129957611298611876565b5b60006112a785828601611198565b92505060206112b8858286016111ad565b9150509250929050565b6000602082840312156112d8576112d7611876565b5b60006112e6848285016111ad565b91505092915050565b6112f881611770565b82525050565b6000611309826116ec565b61131381856116f7565b93506113238185602086016117b3565b61132c8161187b565b840191505092915050565b60006113446023836116f7565b915061134f8261188c565b604082019050919050565b60006113676022836116f7565b9150611372826118db565b604082019050919050565b600061138a6022836116f7565b91506113958261192a565b604082019050919050565b60006113ad601d836116f7565b91506113b882611979565b602082019050919050565b60006113d06026836116f7565b91506113db826119a2565b604082019050919050565b60006113f36022836116f7565b91506113fe826119f1565b604082019050919050565b60006114166021836116f7565b915061142182611a40565b604082019050919050565b60006114396025836116f7565b915061144482611a8f565b604082019050919050565b600061145c6019836116f7565b915061146782611ade565b602082019050919050565b600061147f6024836116f7565b915061148a82611b07565b604082019050919050565b60006114a26025836116f7565b91506114ad82611b56565b604082019050919050565b60006114c5601f836116f7565b91506114d082611ba5565b602082019050919050565b6114e48161179c565b82525050565b6114f3816117a6565b82525050565b600060208201905061150e60008301846112ef565b92915050565b6000602082019050818103600083015261152e81846112fe565b905092915050565b6000602082019050818103600083015261154f81611337565b9050919050565b6000602082019050818103600083015261156f8161135a565b9050919050565b6000602082019050818103600083015261158f8161137d565b9050919050565b600060208201905081810360008301526115af816113a0565b9050919050565b600060208201905081810360008301526115cf816113c3565b9050919050565b600060208201905081810360008301526115ef816113e6565b9050919050565b6000602082019050818103600083015261160f81611409565b9050919050565b6000602082019050818103600083015261162f8161142c565b9050919050565b6000602082019050818103600083015261164f8161144f565b9050919050565b6000602082019050818103600083015261166f81611472565b9050919050565b6000602082019050818103600083015261168f81611495565b9050919050565b600060208201905081810360008301526116af816114b8565b9050919050565b60006020820190506116cb60008301846114db565b92915050565b60006020820190506116e660008301846114ea565b92915050565b600081519050919050565b600082825260208201905092915050565b60006117138261179c565b915061171e8361179c565b9250827fffffffffffffffffffffffffffffffffffffffffffffffffffffffffffffffff0382111561175357611752611818565b5b828201905092915050565b60006117698261177c565b9050919050565b60008115159050919050565b600073ffffffffffffffffffffffffffffffffffffffff82169050919050565b6000819050919050565b600060ff82169050919050565b60005b838110156117d15780820151818401526020810190506117b6565b838111156117e0576000848401525b50505050565b600060028204905060018216806117fe57607f821691505b6020821081141561181257611811611847565b5b50919050565b7f4e487b7100000000000000000000000000000000000000000000000000000000600052601160045260246000fd5b7f4e487b7100000000000000000000000000000000000000000000000000000000600052602260045260246000fd5b600080fd5b6000601f19601f8301169050919050565b7f45524332303a207472616e7366657220746f20746865207a65726f206164647260008201527f6573730000000000000000000000000000000000000000000000000000000000602082015250565b7f45524332303a206275726e20616d6f756e7420657863656564732062616c616e60008201527f6365000000000000000000000000000000000000000000000000000000000000602082015250565b7f45524332303a20617070726f766520746f20746865207a65726f20616464726560008201527f7373000000000000000000000000000000000000000000000000000000000000602082015250565b7f45524332303a20696e73756666696369656e7420616c6c6f77616e6365000000600082015250565b7f45524332303a207472616e7366657220616d6f756e742065786365656473206260008201527f616c616e63650000000000000000000000000000000000000000000000000000602082015250565b7f596f7572206e6f7420746865204f776e6572206f662074686520636f6e74726160008201527f6374000000000000000000000000000000000000000000000000000000000000602082015250565b7f45524332303a206275726e2066726f6d20746865207a65726f2061646472657360008201527f7300000000000000000000000000000000000000000000000000000000000000602082015250565b7f45524332303a207472616e736665722066726f6d20746865207a65726f20616460008201527f6472657373000000000000000000000000000000000000000000000000000000602082015250565b7f45524332304361707065643a2063617020657863656564656400000000000000600082015250565b7f45524332303a20617070726f76652066726f6d20746865207a65726f2061646460008201527f7265737300000000000000000000000000000000000000000000000000000000602082015250565b7f45524332303a2064656372656173656420616c6c6f77616e63652062656c6f7760008201527f207a65726f000000000000000000000000000000000000000000000000000000602082015250565b7f45524332303a206d696e7420746f20746865207a65726f206164647265737300600082015250565b611bd78161175e565b8114611be257600080fd5b50565b611bee8161179c565b8114611bf957600080fd5b5056fea2646970667358221220b5ea4b52c5915119e9957a0bf24ea38cc415817057af9d81e71ba74ea80a351b64736f6c63430008070033",
  "devdoc": {
    "kind": "dev",
    "methods": {
      "allowance(address,address)": {
        "details": "See {IERC20-allowance}."
      },
      "approve(address,uint256)": {
        "details": "See {IERC20-approve}. NOTE: If `amount` is the maximum `uint256`, the allowance is not updated on `transferFrom`. This is semantically equivalent to an infinite approval. Requirements: - `spender` cannot be the zero address."
      },
      "balanceOf(address)": {
        "details": "See {IERC20-balanceOf}."
      },
      "burn(uint256)": {
        "details": "Destroys `amount` tokens from the caller. See {ERC20-_burn}."
      },
      "burnFrom(address,uint256)": {
        "details": "Destroys `amount` tokens from `account`, deducting from the caller's allowance. See {ERC20-_burn} and {ERC20-allowance}. Requirements: - the caller must have allowance for ``accounts``'s tokens of at least `amount`."
      },
      "cap()": {
        "details": "Returns the cap on the token's total supply."
      },
      "decimals()": {
        "details": "Returns the number of decimals used to get its user representation. For example, if `decimals` equals `2`, a balance of `505` tokens should be displayed to a user as `5.05` (`505 / 10 ** 2`). Tokens usually opt for a value of 18, imitating the relationship between Ether and Wei. This is the value {ERC20} uses, unless this function is overridden; NOTE: This information is only used for _display_ purposes: it in no way affects any of the arithmetic of the contract, including {IERC20-balanceOf} and {IERC20-transfer}."
      },
      "decreaseAllowance(address,uint256)": {
        "details": "Atomically decreases the allowance granted to `spender` by the caller. This is an alternative to {approve} that can be used as a mitigation for problems described in {IERC20-approve}. Emits an {Approval} event indicating the updated allowance. Requirements: - `spender` cannot be the zero address. - `spender` must have allowance for the caller of at least `subtractedValue`."
      },
      "increaseAllowance(address,uint256)": {
        "details": "Atomically increases the allowance granted to `spender` by the caller. This is an alternative to {approve} that can be used as a mitigation for problems described in {IERC20-approve}. Emits an {Approval} event indicating the updated allowance. Requirements: - `spender` cannot be the zero address."
      },
      "name()": {
        "details": "Returns the name of the token."
      },
      "symbol()": {
        "details": "Returns the symbol of the token, usually a shorter version of the name."
      },
      "totalSupply()": {
        "details": "See {IERC20-totalSupply}."
      },
      "transfer(address,uint256)": {
        "details": "See {IERC20-transfer}. Requirements: - `to` cannot be the zero address. - the caller must have a balance of at least `amount`."
      },
      "transferFrom(address,address,uint256)": {
        "details": "See {IERC20-transferFrom}. Emits an {Approval} event indicating the updated allowance. This is not required by the EIP. See the note at the beginning of {ERC20}. NOTE: Does not update the allowance if the current allowance is the maximum `uint256`. Requirements: - `from` and `to` cannot be the zero address. - `from` must have a balance of at least `amount`. - the caller must have allowance for ``from``'s tokens of at least `amount`."
      }
    },
    "version": 1
  },
  "userdoc": {
    "kind": "user",
    "methods": {},
    "version": 1
  },
  "storageLayout": {
    "storage": [
      {
        "astId": 15,
        "contract": "contracts/ERC20Token.sol:ERC20Token",
        "label": "_balances",
        "offset": 0,
        "slot": "0",
        "type": "t_mapping(t_address,t_uint256)"
      },
      {
        "astId": 21,
        "contract": "contracts/ERC20Token.sol:ERC20Token",
        "label": "_allowances",
        "offset": 0,
        "slot": "1",
        "type": "t_mapping(t_address,t_mapping(t_address,t_uint256))"
      },
      {
        "astId": 23,
        "contract": "contracts/ERC20Token.sol:ERC20Token",
        "label": "_totalSupply",
        "offset": 0,
        "slot": "2",
        "type": "t_uint256"
      },
      {
        "astId": 25,
        "contract": "contracts/ERC20Token.sol:ERC20Token",
        "label": "_name",
        "offset": 0,
        "slot": "3",
        "type": "t_string_storage"
      },
      {
        "astId": 27,
        "contract": "contracts/ERC20Token.sol:ERC20Token",
        "label": "_symbol",
        "offset": 0,
        "slot": "4",
        "type": "t_string_storage"
      },
      {
        "astId": 716,
        "contract": "contracts/ERC20Token.sol:ERC20Token",
        "label": "_cap",
        "offset": 0,
        "slot": "5",
        "type": "t_uint256"
      },
      {
        "astId": 835,
        "contract": "contracts/ERC20Token.sol:ERC20Token",
        "label": "s_TokenName",
        "offset": 0,
        "slot": "6",
        "type": "t_string_storage"
      },
      {
        "astId": 837,
        "contract": "contracts/ERC20Token.sol:ERC20Token",
        "label": "s_TokenSYM",
        "offset": 0,
        "slot": "7",
        "type": "t_string_storage"
      },
      {
        "astId": 839,
        "contract": "contracts/ERC20Token.sol:ERC20Token",
        "label": "_cap",
        "offset": 0,
        "slot": "8",
        "type": "t_uint256"
      },
      {
        "astId": 841,
        "contract": "contracts/ERC20Token.sol:ERC20Token",
        "label": "blockReward",
        "offset": 0,
        "slot": "9",
        "type": "t_uint256"
      }
    ],
    "types": {
      "t_address": {
        "encoding": "inplace",
        "label": "address",
        "numberOfBytes": "20"
      },
      "t_mapping(t_address,t_mapping(t_address,t_uint256))": {
        "encoding": "mapping",
        "key": "t_address",
        "label": "mapping(address => mapping(address => uint256))",
        "numberOfBytes": "32",
        "value": "t_mapping(t_address,t_uint256)"
      },
      "t_mapping(t_address,t_uint256)": {
        "encoding": "mapping",
        "key": "t_address",
        "label": "mapping(address => uint256)",
        "numberOfBytes": "32",
        "value": "t_uint256"
      },
      "t_string_storage": {
        "encoding": "bytes",
        "label": "string",
        "numberOfBytes": "32"
      },
      "t_uint256": {
        "encoding": "inplace",
        "label": "uint256",
        "numberOfBytes": "32"
      }
    }
  }
}